:100000000080001071010000E9010000F101000012
:10001000F9010000010200000902000000000000D8
:1000200000000000000000000000000011020000BD
:100030001902000000000000210200002902000057
:1000400031020000310200003102000031020000E4
:1000500031020000B9070000310200003102000047
:1000600031020000310200003102000031020000C4
:1000700031020000310200003102000031020000B4
:1000800031020000310200003102000031020000A4
:100090003102000031020000310200003102000094
:1000A000D1020000310200003102000031020000E4
:1000B0003102000031020000310200003102000074
:1000C0003102000031020000310200004C32000019
:1000D00000000010500000004C32000000C007205B
:1000E00000000000500000107001000000C0072058
:1000F0000000000080B489B000AFF860B9607A6099
:10010000BB68FB61FB68BB6100237B610AE0FB69A4
:100110001A1DFA61BA69111DB96112681A607B690A
:1001200004337B617A697B689A42F0D300BF24373D
:10013000BD4680BC704700BF80B485B000AF78601A
:1001400039607B68FB600023BB6007E0FB681A1D19
:10015000FA6000221A60BB680433BB60BA683B686F
:100160009A42F3D300BF1437BD4680BC704700BF2E
:1001700080B584B000AF194BFB6013E0FB681A1D1B
:10018000FA601B68BB60FB681A1DFA601B687B6025
:10019000FB681A1DFA601B683B603A687968B868AA
:1001A000FFF7A8FFFB680E4A9342E7D30DE0FB6818
:1001B0001A1DFA601B687B60FB681A1DFA601B68D9
:1001C0003B6039687868FFF7B7FFFB68054A9342E0
:1001D000EDD300F02BFC02F017FCFEE7CC00000092
:1001E000E4000000F400000080B400AFFEE700BFB0
:1001F00080B400AFFEE700BF80B400AFFEE700BFF1
:1002000080B400AFFEE700BF80B400AFFEE700BFE0
:1002100080B400AFFEE700BF80B400AFFEE700BFD0
:1002200080B400AFFEE700BF80B400AFFEE700BFC0
:1002300080B400AFFEE700BF80B483B000AF0346D8
:10024000FB71084997F907305B09FA7902F01F0240
:10025000012000FA02F241F8232000BF0C37BD460E
:1002600080BC704700E100E080B483B000AF03467B
:100270003960FB7197F90730002B0BDA0D49FB79D8
:1002800003F00F03043B3A68D2B2D200D2B20B445F
:100290001A7609E0084997F907303A68D2B2D200D5
:1002A000D2B20B4483F8002300BF0C37BD4680BC9C
:1002B000704700BF00ED00E000E100E080B500AF56
:1002C00000F080FD012000F0EDFC00BF80BD00BF0C
:1002D00080B500AF044B1B681B68DB68034A1268DB
:1002E0001046984700BF80BD4C0000105000001021
:1002F00080B487B000AF7860396000233B617B68D1
:100300007B617B68FB6015E07B695B78042B07D120
:100310007B693B613B695B791A463B689A420ED028
:1003200000233B617B691B781A467B691344FB60A1
:10033000FB687B617B691B78002BE5D100E000BF87
:100340003B6918461C37BD4680BC704780B598B0E5
:1003500000AF0023FB6500F029FD00F091FCFFF7E2
:10036000ADFF07F1180344220021184602F056FBA6
:100370001F4BBB61032387F824301E4BFB614FF4F6
:1003800000633B621C4B7B601C4BBB601C4B3B61A6
:100390001B4BFB6000237B611A4B1B681B685B686F
:1003A00007F11802391D18489847F865FB6D002BB6
:1003B0001BD1154B1B6807F11802391D184600F0B8
:1003C000ADFAF865FB6D002B0FD101211820FFF766
:1003D0004BFF1820FFF730FF0A4B1B681B689B6818
:1003E000094A126801211046984730BFFDE700BF57
:1003F00000C2005000C00720D8300000EC300000E0
:10040000000000104C0000105000001080B483B0B9
:1004100000AF0346FB71084997F907305B09FA7989
:1004200002F01F02012000FA02F241F8232000BF6F
:100430000C37BD4680BC704700E100E080B483B05B
:1004400000AF03463960FB7197F90730002B0BDAD8
:100450000D49FB7903F00F03043B3A68D2B2D20096
:10046000D2B20B441A7609E0084997F907303A6886
:10047000D2B2D200D2B20B4483F8002300BF0C37B3
:10048000BD4680BC704700BF00ED00E000E100E029
:1004900080B483B000AF786039607B685A683B688D
:1004A0001A437B685A6000BF0C37BD4680BC70475A
:1004B00080B483B000AF786039607B685A683B686D
:1004C000DB431A407B685A6000BF0C37BD4680BCD6
:1004D000704700BF80B483B000AF78607B685B6812
:1004E00018460C37BD4680BC704700BF80B483B04F
:1004F00000AF786039607B683A689A6000BF0C375B
:10050000BD4680BC704700BF80B483B000AF786048
:1005100039607B683A68DA6000BF0C37BD4680BC42
:10052000704700BF80B485B000AF78607B68FB6027
:10053000FB6893F89D31002B14BF01230023DBB22D
:1005400018461437BD4680BC704700BF80B500AF69
:100550000F4801F05BF84FF4E1310D4801F0FCF871
:1005600003210B48FFF7D0FF81210948FFF7BEFFA9
:10057000074801F087F805210548FFF789FF0121A9
:100580000520FFF75BFF0520FFF740FF00BF80BDA0
:1005900000C0004090B587B000AFF860B9607A60E5
:1005A000BB683B6100237B617B68022B3AD0032B45
:1005B00000D077E03B699A7C3B69DB7C9A4205D2AC
:1005C0003B69DB7CC3F140037B6106E03B699B7CBC
:1005D0001A463B69DB7CD31A7B617B69002B1DD0FB
:1005E0003B6901221A75324B1B681B681C6D3B6905
:1005F00018683B699B682F4AD27C1A447B69812129
:10060000A04778612B4BDA7C7B69DBB21344DBB209
:1006100003F03F03DAB2274BDA7443E03B69002270
:100620001A753FE02448FFF755FF034603F0020325
:10063000002B2FD11E4B1B681B685B6C3A69D2687C
:100640000121F868984703465AB23B695A743B69DE
:1006500000221A743B69DB68164A127C99183B69C0
:1006600093F911301A46144801F024F80346DAB21F
:100670003B691A743B6993F91130DAB23B691B7C10
:10068000D31ADBB25AB23B695A7402210A48FFF707
:10069000FFFE06E03B695B7DDBB20133DAB23B690A
:1006A0005A7500BF002318461C37BD4690BD00BFD9
:1006B0004C0000105400001000C0004080B584B011
:1006C00000AF786039600023FB603B689B79062BA4
:1006D00004D0072B07D0052B0FD009E0FB6843F0AF
:1006E0000103FB600AE0FB6843F00203FB6005E0E6
:1006F000FB6843F00303FB6000E000BF3B681B792D
:10070000012B02D0022B0BD015E03B689B79052B07
:1007100004D1FB6843F00403FB600CE0234B40E092
:100720003B689B79052B04D0FB6843F00403FB6016
:1007300001E01E4B35E03B685B79013B032B1FD882
:1007400001A252F823F000BF590700006307000020
:100750006D07000077070000FB6843F00803FB60AB
:100760000FE0FB6843F01803FB600AE0FB6843F00E
:100770002803FB6005E0FB6843F03803FB6000E002
:1007800000BF3B681B680A4A934205D83B681B6858
:100790001946084800F0E0FFF9680648FFF7B4FE84
:1007A000002318461037BD4680BD00BF020004007C
:1007B00007AF2F0000C0004090B583B000AF00230A
:1007C0007B60534B5B6803F00203002B54D0514B0A
:1007D00093F91130002B20DD4E4BDB684D4A127C23
:1007E00099184C4B93F911301A46494800F062FFB2
:1007F00003467B60474B93F91130DAB27B68DBB27A
:10080000D31ADBB25AB2434B5A74424B1A7C7B6800
:10081000DBB21344DAB23F4B1A743E4B93F91130FA
:10082000002B29DC3B4B5B7DDBB2002B20D0394B0E
:100830001B681846FFF776FE0346002B18D0354B91
:100840005B7DDBB2013BDAB2324B5A75324B1B682F
:100850001B685B6C2F4A10682E4AD26801219847AA
:1008600003465AB22B4B5A742A4B00221A7403E0E7
:1008700002212748FFF71CFE264B9B68254A927CE5
:100880009918244B9B7CC3F140031A46204800F082
:1008900039FF03467B607B68002B34D01D4B9A7C6C
:1008A0007B68DBB21344DBB203F03F03DAB2194BCF
:1008B0009A74184B1B7DDBB2002B24D1154B1B689F
:1008C0001846FFF72FFE0346002B1CD0114B0122C8
:1008D0001A75114B1B681B681C6D0E4B18680D4B6D
:1008E0009B680C4AD27C1A447B688121A0477860BF
:1008F000084BDA7C7B68DBB21344DBB203F03F03C6
:10090000DAB2044BDA7400BF0C37BD4690BD00BFAD
:1009100000C00040540000104C00001090B59BB087
:1009200000AFF860B9607A6000237B663A4AFB68E2
:10093000136007F1140348220021184602F06EF8F4
:100940007B685B687B617B689B68BB61BB68DB68BD
:1009500002211846FFF7CCFC0346FB61BB68DB684D
:100960000A211846FFF7C4FC03463B622B4B3B654C
:100970002B4B1B685B695B6807F11401294AF86817
:10098000984778667B6E002B40D17B691A46224BD4
:10099000DA607B6940337B61BB69403BBB617B694B
:1009A0001A461D4B9A607B6940337B61BB69403BB3
:1009B000BB6103233B661A4B1B685B685C68164B84
:1009C000194A396EF868A04778667B6E002B17D1FC
:1009D00002233B66124B1B685B685C680E4B124A35
:1009E000396EF868A0477866FFF7B0FD0A4B5B6880
:1009F000FB65FB6D4FF4E1321A61FB6D08229A75BD
:100A00007A697B685A60BA697B689A607B6E18461F
:100A10006C37BD4690BD00BF54000010BD060000FD
:100A20004C000010580000109505000080B582B001
:100A300000AF054B7B60054A7B681A6000F08AF9BD
:100A400000BF0837BD4680BD08ED00E00000000093
:100A500080B582B000AF78600F2000F0C1FA00BF0F
:100A60000837BD4680BD00BF80B582B000AF78605A
:100A70000F2000F0B5FA00BF0837BD4680BD00BFAB
:100A800080B483B000AF78600B46FB701346BB7038
:100A9000FB785B017A681344FA78520179680A445A
:100AA0001168BA78012000FA02F20A431A6000BF06
:100AB0000C37BD4680BC704780B483B000AF78600F
:100AC0000B46FB701346BB70FB785B017A681344DE
:100AD000FA78520179680A441168BA78012000FA5C
:100AE00002F2D2430A401A6000BF0C37BD4680BCF8
:100AF000704700BF80B582B000AF786008461146ED
:100B00001A460346FB700B46BB7013467B707B781E
:100B1000002B06D0BA78FB7819467868FFF7B0FF4B
:100B200005E0BA78FB7819467868FFF7C5FF00BF83
:100B30000837BD4680BD00BF80B582B000AF786089
:100B4000084611461A460346FB700B46BB70134617
:100B50007B707B78BA78F9787868FFF7CBFF00BFB5
:100B60000837BD4680BD00BF80B483B000AF786059
:100B70000B46FB70FA787B681A6000BF0C37BD46E5
:100B800080BC704780B483B000AF786039607B6808
:100B90003A68DA6000BF0C37BD4680BC704700BFC2
:100BA00080B483B000AF78607B685B6918460C370F
:100BB000BD4680BC704700BF80B586B000AFF8600E
:100BC000B9607A6000237B6109E0BA687B691344ED
:100BD0001B78184600F03AF87B6901337B617B682B
:100BE0007A699A42F1D37B6818461837BD4680BDB2
:100BF00080B500AF0123162200210248FFF79CFFB9
:100C000000BF80BD00C0092080B483B000AF786011
:100C100000BF0C37BD4680BC704700BF80B500AF39
:100C20000948FFF7F1FF084800F0F0FC4FF4E1310C
:100C3000054800F091FD03210348FFF7A3FF024898
:100C400000F020FD00BF80BD00C0004080B582B034
:100C500000AF0346FB7100BF0848FFF7A1FF034642
:100C600003F02003002BF7D0FB7919460348FFF768
:100C70007BFF00BF0837BD4680BD00BF00C00040FD
:100C800080B500AFFFF7CAFF0448FFF7EDFE044848
:100C9000FFF7DEFEFFF7ACFF00BF80BD00C00920FC
:100CA00000C0024080B584B002AF78600123009399
:100CB00008231D2200210D4800F0B6FA01230093FD
:100CC00008231E220021094800F0AEFA084B122228
:100CD000C3F8F42F00BF064BD3F8F83F03F012031C
:100CE000122BF8D100BF0837BD4680BD00C00240BE
:100CF00000C0005080B485B000AF0346FB71084BC4
:100D00001B68C3F30B03FB60054AFB791B03194601
:100D1000FB680B43136000BF1437BD4680BC7047AF
:100D200000C00F4080B500AF17220349034800F010
:100D3000C5FA00BF80BD00BF4C31000000C00240BA
:100D400080B500AF00F054FB0420FFF7D3FF00BFD5
:100D500080BD00BF80B500AFFFF7E4FFFFF7F0FFF5
:100D600000BF80BD80B400AF064BD3F8A83003F4B9
:100D70008063002B14BF01230023DBB21846BD465D
:100D800080BC704700C00F4080B400AF064BD3F862
:100D9000A83003F40073002B14BF01230023DBB23F
:100DA0001846BD4680BC704700C00F4080B500AFFC
:100DB00000F0FEF90246024B1A6000BF80BD00BF82
:100DC000BC01001080B500AF01220321012000F01A
:100DD000D9F80121012000F08FF800BFFFF7C2FF12
:100DE000034683F00103DBB2002BF7D1032101207E
:100DF00000F082F800BFFFF7C7FF034683F001034E
:100E0000DBB2002BF7D11F2000F0EAF800BF80BD55
:100E100080B400AF064BD3F8883003F08073002B0A
:100E200014BF01230023DBB21846BD4680BC7047C7
:100E300000C00F4080B400AF064BD3F8883003F0F9
:100E40000073002B14BF01230023DBB21846BD46FC
:100E500080BC704700C00F4080B483B000AF034631
:100E6000FB71094AFB795B0113448C33AA221A6097
:100E7000054AFB795B0113448C3355221A6000BF8D
:100E80000C37BD4680BC704700C00F4080B400AF37
:100E9000054BD3F80C31DBB203F00303DBB2184689
:100EA000BD4680BC704700BF00C00F4080B400AF9B
:100EB000024B1B681846BD4680BC70474431000099
:100EC00080B400AF024B1846BD4680BC704700BFDF
:100ED00000093D0080B400AF024B1B681846BD46B8
:100EE00080BC70474831000080B500AF00F008F9C1
:100EF0000346184680BD00BF80B584B000AF0346EE
:100F00003960FB710C4AFB7904335B0113441B68A5
:100F1000FB60FA683B681343FB60074AFB790433C4
:100F20005B011344FA681A60FB791846FFF794FFD7
:100F300000BF1037BD4680BD00C00F4080B584B0F3
:100F400000AF03463960FB710D4AFB7904335B0146
:100F500013441B68FB603B68DB43FA681340FB608B
:100F6000074AFB7904335B011344FA681A60FB7982
:100F70001846FFF771FF00BF1037BD4680BD00BFA8
:100F800000C00F4080B586B000AF0346B9607A60FC
:100F9000FB73FB7B002B05D17B681A04BB681343F2
:100FA0007B6104E07B685A01BB6813437B610B4A99
:100FB000FB7B04335B01134404337A691A60074AEC
:100FC000FB7B04335B01134401221A60FB7B184650
:100FD000FFF742FF00BF1837BD4680BD00C00F407D
:100FE00080B485B000AF0346FB71FB79FB60084914
:100FF000074BD3F8C4300120FA6800FA02F2134319
:10100000C1F8C43000BF1437BD4680BC704700BF74
:1010100000C00F4080B582B000AFFFF70BFF034662
:10102000002B02D00123FB7101E00023FB71FB794F
:1010300018460837BD4680BD80B483B000AF7860E5
:10104000044A7B68C2F8043100BF0C37BD4680BC3F
:10105000704700BF00C00F4080B400AF044BD3F80E
:101060000431DBB201331846BD4680BC704700BF77
:1010700000C00F4080B487B000AF0346FB7101236E
:101080007B61FB795B003B613B6903F01F03FB6005
:101090003B695B093B61194A3B696A3352F823306B
:1010A0007B617A69FB6822FA03F303F003037B6137
:1010B0007B69002B02D104237B6119E07B69012B42
:1010C00002D101237B6113E07B69022B02D1022351
:1010D0007B610DE0FB790D2B05D0FB790E2B02D047
:1010E000FB790F2B02D106237B6101E008237B6192
:1010F0007B6918461C37BD4680BC704700C00F4056
:1011000080B500AFFFF7C2FE0346012B07D0022BCC
:1011100009D0002B0BD1FFF7D3FE034608E0FFF701
:10112000C5FE034604E0FFF7D5FE034600E00023BA
:10113000184680BD80B584B000AF0023FB60FFF788
:1011400067FE0346002B18D00E4BD3F88430C3F350
:101150000E030133BB600B4BD3F884301B0CDBB2A6
:1011600001337B60FFF7C0FE0246BB6803FB02F35E
:101170005A007B68B2FBF3F3FB60FB68184610373C
:10118000BD4680BD00C00F4080B500AFFFF742FFF5
:101190000346002B05D0012B07D1FFF7CBFF0346F9
:1011A00004E0FFF7ADFF034600E00023184680BDD2
:1011B00098B500AFFFF7E8FF0446FFF74DFF034681
:1011C000B4FBF3F3184698BD90B583B000AF034667
:1011D000FB71FFF7EDFF0446FB791846FFF74AFF66
:1011E0000346B4FBF3F318460C37BD4690BD00BF71
:1011F00080B586B002AFF8607B600B46FB72134689
:10120000BB727B6898087B68DBB203F00303DBB238
:10121000BA7AF97A00930346F86800F005F800BF3F
:101220001037BD4680BD00BF80B487B000AFF86006
:101230007B600B46FB721346BB72BB7A03F00F0355
:10124000DBB25B00FB75FB7A5B00DAB2BB7A1B0991
:10125000DBB21344BB75BA7DFB6853F82220FB7DDB
:10126000032101FA03F3DB4313403B61BA7D97F896
:101270002010FB7D01FA03F319463B691943FB6813
:1012800043F82210BA7DFB68103253F82220FB7D10
:10129000032101FA03F3DB4313403B61BA7DFB7D7D
:1012A000796899403B691943FB68103243F8221072
:1012B00000BF1C37BD4680BC704700BF80B586B0FC
:1012C00000AFF860B9607A6000237B611FE07B6942
:1012D0009B00BA6813441B78C3F30203DBB21946C0
:1012E0007B699B00BA6813441B78C3F3C403DBB269
:1012F00018467B699B00BA6813441B68C3F3172325
:101300000246F868FFF774FF7B6901337B617A69F5
:101310007B689A42DBD300BF1837BD4680BD00BF53
:1013200080B400AF064BD3F8883003F08073002BF5
:1013300014BF01230023DBB21846BD4680BC7047B2
:1013400000C00F4080B400AF064BD3F8883003F0E4
:101350008063002B14BF01230023DBB21846BD4677
:1013600080BC704700C00F4080B400AF064BD3F87C
:10137000883003F00073002B14BF01230023DBB27D
:101380001846BD4680BC704700C00F4080B400AF17
:10139000054A054BD3F8A03143F02003C2F8A03131
:1013A00000BFBD4680BC704700C00F4080B400AF96
:1013B000064BD3F8A03103F04003002B14BF0123E8
:1013C0000023DBB21846BD4680BC704700C00F400A
:1013D00080B483B000AF0346FB71044AFB79C2F8C6
:1013E0000C3100BF0C37BD4680BC704700C00F40B9
:1013F00080B500AFFFF7B8FF0346002B03D00221F2
:101400000020FFF79BFDFFF78BFF0346002B03D067
:1014100001210020FFF792FDFFF7C8FF034683F08C
:101420000103DBB2002B01D0FFF7B0FF00BFFFF7D5
:10143000BDFF034683F00103DBB2002BF7D1002090
:10144000FFF7FAFD0120FFF7C3FF00220F21002064
:10145000FFF798FD01210020FFF74EFD0320FFF765
:10146000EBFD00BFFFF76EFF034683F00103DBB225
:10147000002BF7D102210020FFF73EFD00BF80BD09
:1014800080B483B000AF78600B46FB70FA787B685D
:101490001A6000BF0C37BD4680BC704780B483B073
:1014A00000AF78607B681B68DBB218460C37BD461E
:1014B00080BC704780B483B000AF786039607B68CF
:1014C0003A689A6000BF0C37BD4680BC704700BFC9
:1014D00080B483B000AF786039607B683A68DA60C6
:1014E00000BF0C37BD4680BC704700BF80B483B0DE
:1014F00000AF78607B68DB6843F080027B68DA606D
:1015000000BF0C37BD4680BC704700BF80B483B0BD
:1015100000AF78607B68DB6823F080027B68DA606C
:1015200000BF0C37BD4680BC704700BF80B483B09D
:1015300000AF78600B46FB701346BB70FA787B688F
:101540001A60BA787B685A6000BF0C37BD4680BC11
:10155000704700BF80B483B000AF78607B685B6980
:1015600018460C37BD4680BC704700BF80B485B0BC
:1015700000AF78607B680E4A934202D10423FB736C
:101580000FE07B680B4A934202D11823FB7308E0FB
:101590007B68094A934202D11923FB7301E00323BC
:1015A000FB73FB7B18461437BD4680BC704700BFF9
:1015B000000001400080094000C0094080B485B0AF
:1015C00000AF78607B680E4A934202D10423FB731C
:1015D0000FE07B680B4A934202D11823FB7308E0AB
:1015E0007B68094A934202D11923FB7301E003236C
:1015F000FB73FB7B18461437BD4680BC704700BFA9
:10160000000001400080094000C0094080B584B05E
:1016100000AF78607868FFF7A9FF03461846FFF728
:10162000DFFC07217868FFF745FF786800F036F89F
:101630007B6800225A607B680022DA607B680022A7
:101640001A627B680022DA647B6800225A657B6834
:1016500000221A657B680A4A934205D17B68002202
:101660001A617B689B69FB6003217868FFF730FF94
:101670007B6810229A6200BF1037BD4680BD00BF54
:101680000000014080B483B000AF78607B688022A6
:101690001A6300BF0C37BD4680BC704780B483B06E
:1016A00000AF78607B6800221A6300BF0C37BD462C
:1016B00080BC704780B586B000AFF860B9607A60D2
:1016C00000237B61BB683B610BE03B691B781946DB
:1016D000F868FFF7D5FE3B6901333B617B69013355
:1016E0007B617A697B689A4207DAF868FFF732FF14
:1016F000034603F02003002BE7D17B691846183717
:10170000BD4680BD80B586B000AFF860B9607A6034
:1017100000237B61BB683B610CE0F868FFF7BEFE0D
:1017200003461A463B691A703B6901333B617B698A
:1017300001337B617A697B689A4207DAF868FFF7C0
:1017400009FF034603F00103002BE6D17B6918462D
:101750001837BD4680BD00BF80B586B000AF786049
:1017600039607868FFF72AFF03461846FFF72CFD1B
:1017700078613B681B017A69B2FBF3F33B613B691B
:101780001B0AFB60FB681B023A69D31ABB607868CE
:10179000FFF7ACFEBB68DBB2FA68D2B219467868D4
:1017A000FFF7C4FE7868FFF7B1FE7A693B69B2FBC8
:1017B000F3F318461837BD4680BD00BF034600F05E
:1017C0000F0040001B0648BF0130704743681022DD
:1017D0009A6019611A68D206FCD5704738B504467C
:1017E0001546FFF7F3FF20462946BDE83840FFF7CE
:1017F000EDBF38B5044608461546FFF7DFFF010484
:1018000041F4A0612046FFF7E1FF20462946BDE8EC
:101810003840FFF7DBBF436830229A6019611A68CD
:101820009206FCD5586970474FF40C707047FFFF63
:10183000044A0029D0F8C801034908BF4FF4807258
:10184000FFF7CCBF000101000005FE00D0F8C83151
:1018500000225B689A64D0F8A021D179D964012173
:101860009964D279DA641A68D205FCD54FF0FF3258
:101870009A635A639A600C225A6070470346B3F821
:101880009E31D0F8C8019B0703D50249024AFFF7F1
:10189000A5BF70470005FE00000101007047FFFF73
:1018A00070B50904D0F8C861084D41F4000444F44F
:1018B0008074304629462246FFF790FF304629467D
:1018C0002246BDE87040FFF789BF00BF0005D00089
:1018D00093682DE9F041B3F50C7F8046144633D36D
:1018E000566806F110026260A3F11002A2606568FA
:1018F000AA0702D001356560F9E705F50772A3F57F
:101900000B736260A360636813F0030702D00133B6
:101910006360F8E72846224600F0E2FF39461022CD
:10192000304601F07BF82368B5602846C5F8C861E9
:101930007360FFF78BFF28463946FFF7B1FFC8F801
:1019400000503846BDE8F0810148BDE8F08100BF95
:101950000A00040010B50A4AD0F8C841002908BF9F
:101960004FF4807220460749FFF738FF636803226F
:101970005A641A68D205FCD54FF480729A6010BD83
:10198000000101000005D80038B5054688780C46EE
:10199000FFF714FF012102469140D5F8C8315B687A
:1019A000586C014359649A64A288DA641A68D205B3
:1019B000FCD54FF480729A6038BD704710B504466C
:1019C0000846FFF7FBFE010441F48001D4F8C8018A
:1019D00041F4A0614FF48072BDE81040FFF7FEBEF5
:1019E00010B504460846FFF7E9FE010441F4800102
:1019F000D4F8C80141F4A061024ABDE81040FFF7E5
:101A0000EDBE00BF0001200010B504460846FFF7F8
:101A1000D5FE010441F48001D4F8C80141F4A0616D
:101A20004FF48072BDE81040FFF7D8BE10B50446F1
:101A30000846FFF7C3FE010441F48001D4F8C80151
:101A400041F4A061024ABDE81040FFF7C7BE00BFE5
:101A50000001010010B504460846FFF7AFFE01047F
:101A600041F48001D4F8C80141F4A0614FF48072C0
:101A7000BDE81040FFF7B2BE043A38B51D46D0F8B5
:101A8000C8410D2A48D8DFE802F00E0E4747474705
:101A90004747474744074A0A0122002041E04FF4E4
:101AA000007200203DE00846FFF788FE012303FA9C
:101AB00000F0236815B11843206002E023EA00001B
:101AC0002060226823682168DB071B4B02F00202BA
:101AD00001EA030348BF42F004020BB142F02002C6
:101AE0002168164B0B400BB142F0400223681449A9
:101AF000194009B142F0080223681249194009B19E
:101B000042F01002120420460F4942F48072FFF79F
:101B100065FE0022104604E000220C4801E0082285
:101B2000002061684B6815B11A434A6038BD23EA4A
:101B300002024A6038BD00BF200882A01004415054
:101B400008822008044110040005F300010004008D
:101B5000D0F8C80101F00F032DE9F0419B00456862
:101B600043F00103AB622C6A2605FCD514F48068AF
:101B70001DD0C4F309085FEA980C25D0164600234F
:101B8000AF690133634546F8047BF9D102EB830268
:101B900004F003045CB1AE691444002326FA03F593
:101BA00002F8015BA24203F10803F7D1456841F254
:101BB00048230B410022DB07AA6202D4034AFFF745
:101BC00018FE4046BDE8F0814446E3E70005F20018
:101BD00070470020704700207047FFF7B9BFFFFF34
:101BE000D0F8C8012DE9F04101F00F044668A400C7
:101BF000DF1C44F00204BF08B4629846736206D04A
:101C0000002452F8045B0134BC42F561F9D1002391
:101C1000B362034AFFF7EDFD4046BDE8F08100BF27
:101C20000005FA002DE9F047D0F8C8918246D9F8AE
:101C30000420136823F004019160516801EA03084D
:101C400018F0080461D118F0040F2BD0166B3EB3C6
:101C5000274605460121A140314219D00F43916327
:101C600013689806FCD5E30750693DD4002C00F0BA
:101C70009080AB6D63B1D9F80020114201D0C1064C
:101C80006DD402225046D5F8D8109847D9F80420D0
:101C90001F2C05D0B74204F1010405F10405D9D188
:101CA0000423936018F4007F0FD0DAF83C3063B15E
:101CB00048464049FFF78AFD3F494846FFF7ABFDDC
:101CC000DAF83C3001465046984718F0010F09D029
:101CD000DAF834300BB150469847D9F80C3001335C
:101CE000C9F80C30BDE8F087AB6D002BD0D0D9F827
:101CF0000020114201D0C20629D403225046D5F853
:101D0000D8109847D9F80420C2E748462B49FFF776
:101D10005DFD48462A49FFF77EFDC606044626D4E7
:101D2000A50706D5DAF838301BB1504604F001019A
:101D3000984704F00903092BD4D1640724D5DAF8B5
:101D40002C30002BCED050469847BDE8F0870522B6
:101D50005046D5F8D8109847D9F8042098E70422BF
:101D60005046D5F8D8109847D9F8042090E7504647
:101D7000FFF76CFD504600F09DFCDAF82830002B90
:101D8000CED050469847CBE7DAF83030002BDAD186
:101D9000A8E743077FF56DAFDAF85830002B3FF422
:101DA00079AF01225046DAF8D8109847D9F80420C4
:101DB00070E700BF0005FB000002FB000005FE000D
:101DC0000002FE0070B54D781646042D1A4618D054
:101DD00003D84DB1022D0DD027E0222D13D0232D95
:101DE00013D0202D21D115E00BB3036A1BB331684A
:101DF000984770BDDBB1846ADCB149883268A0477E
:101E000070BD036B02E0436B00E0836B9BB14988BC
:101E1000984770BD2BB1C36B6BB100F110019847AF
:101E200070BD00F11004346001E0044870BD10463C
:101E300070BD204670BD184670BD00BF0200040092
:101E4000012A38B50446084602D0022A2AD04AE0C0
:101E500094F8143203F07F02212A44D194F8182216
:101E6000097E914202D0417E91423CD104F5EA7252
:101E7000DB09C4F8CC2104F5057104F5E67207D13D
:101E8000456CA847054678BBB4F81A3263BB26E018
:101E9000056C04F5E873A847054628BB204600F00A
:101EA00098FB21E094F8143203F07F03212B1AD120
:101EB00094F818320A7E9A4202D04A7E9A4212D18F
:101EC000D4F8CC21B4F81A32456CD21AC4F8CC211B
:101ED00004F5057104F5E672A847054620B92046C9
:101EE00000F0A0FB00E0014D284638BD02000400D0
:101EF00038B54D780446032D09D0212D14D0012D7D
:101F000019D1456A1DB111461A46A84738BDE56A80
:101F10001DB120464988A84738BD1068294640228F
:101F200000F07CFD284638BD00F110041460072243
:101F30001A80002038BD014838BD00BF02000400EF
:101F400008B50346A120187101294FF0000059710E
:101F50009871D871187258729872D8720BD007D3D2
:101F6000202910D102211A73120A99725A730AE0B9
:101F70000AB101229A71197F1A1D18680823FFF708
:101F80002FFE002008BD014808BD00BF030001006E
:101F90004C2070472DE9F0410C68074614F0030F00
:101FA0000D4690468E684B6802D0472B40F28380E6
:101FB000483B04F14B0223F0030322F003022A60A2
:101FC0006B6020460021482200F028FD3B4B276033
:101FD00023643B4B63642B6A23626B6A6362AB6A64
:101FE000A362EB6AE3622B6B23636B6B6363AB6B84
:101FF000A363EB6BE3637378042B02D03148BDE835
:10200000F0817379022BF9D13379012BF6D8B378AB
:1020100023763379012B04D0EB685A78042AEDD16A
:1020200015E033781E443278334616445A78052A30
:1020300005D1DA78032AF6D19B78237701E0042AC8
:10204000F1D1237F002BE7D11F48BDE8F0815A79F9
:102050000A2AD3D19A79002AD0D199786176197851
:102060001944187982420FD20E78084631444678D6
:10207000052E07D1C678022E04D1807806064CBF03
:10208000A076E0760132ECE7A37E002BDCD0E37E85
:10209000002BD9D0696C384621B90C49224600F092
:1020A0008DFC04E0224600F089FC084B6B64C8F804
:1020B0000040BDE8F0810648BDE8F081F11E000057
:1020C000C51D00000800040009000400411E0000B6
:1020D0000A00040090F8143213F01F0305D100F237
:1020E0009D12C0F8CC21184670470148704700BFC8
:1020F000010004007047704790F8143203F01F038A
:10210000012B06D0022B15D0002B37D100F5CF7252
:102110000DE090F89D318BB390F8182290F89B3128
:102120009A422BD20023A0F8D43100F5EA72C0F80D
:10213000CC2121E090F818321A064BBF4FF48031C1
:10214000012103F00F0203F08F0201FA02F290F86E
:102150009D1109B91B0711D1D0F8B4311A420DD025
:10216000D0F8B8311A420CBF00230123A0F8D431B3
:1021700000F5EA73C0F8CC31002070470048704782
:102180000100040010B590F8142212F01F0237D19C
:1021900090F81732022B09D0032B19D0012B2FD125
:1021A000D0F8A031C0F8CC31122321E0D0F8AC3106
:1021B00090F816128A4205D01C780CB15C88234432
:1021C0000132F7E71A78DAB1C0F8CC315B880FE05A
:1021D000D0F8A43190F81642A24204D0197801B187
:1021E0000B440132F8E71A7852B1C0F8CC311B78B1
:1021F000B0F8D0219A4288BFA0F8D031002010BD9D
:10220000004810BD0100040090F8143203F01F03D1
:10221000012B0FD190F89D3163B190F8183290F8EE
:102220009B219A4206D903F5E0730344C0F8CC31F0
:10223000002070470048704701000400F8B590F88E
:102240001432044613F01F030D4602D0022B1BD09C
:102250004AE0B0F81632012B0ED1036C03B1984757
:10226000B4F89E312DB143F00203A4F89E31002052
:10227000F8BD23F00203F8E7022B35D190F81912CC
:10228000BDE8F840FFF7A5BC90F818321A0603F035
:102290008F0105D503F00F024FF48036964001E020
:1022A00001268E4094F89D21F2B11B071CD0D4F872
:1022B000B4311E4218D0B4F81672AFB935B1204609
:1022C000FFF7B4FBD4F8B8311E430AE0D4F8BC31B0
:1022D0001E42CCD12046FFF7BDFBD4F8B83123EA2B
:1022E0000606C4F8B861C2E70048F8BD0100040062
:1022F000F8B590F81472044617F01F0740F0BE803E
:1023000090F81632002B00F08480D0F8A851D0F855
:10231000AC3190F89A21012A08BF1D462B78002B7A
:1023200000F0A2806B78042B4ED0052B4ED0022BF0
:102330006CD16A7994F81632934243D184F89D3176
:102340002B7984F89B310023E21801330021082BFC
:1023500082F8C011F8D1012694F899319E4217D223
:102360000122B240D4F8B4311A4203D0204631469B
:10237000FFF736FB4FF48032B240D4F8B4311A4242
:1023800004D0204646F08001FFF72AFB0136E3E740
:102390004FF00113C4F8B4310023C4F8B831C4F8C5
:1023A000BC3120460121FFF7D5FAEB7913F0400F3D
:1023B000B4F89E3114BF43F0010323F00103A4F8E5
:1023C0009E3123E06B8822E0EF781FE0F7B9AB780D
:1023D0001A0603F08F0606D503F00F034FF4803280
:1023E00002FA03F301E00123B340D4F8B4212046FC
:1023F0001343C4F8B4312946FFF7C6FA20463146E4
:10240000FFF7DCFA20463146FFF7FEFA2B781D4431
:1024100084E780F89D31012594F899319D4217D2C7
:102420000122AA40D4F8B4311A4203D020462946EA
:10243000FFF7D6FA4FF48032AA40D4F8B4311A42EA
:1024400004D0204645F08001FFF7CAFA0135E3E7E2
:1024500000214FF00113C4F8B431C4F8B811C4F826
:10246000BC112046FFF776FA94F89D0194F81622E5
:10247000034B904214BF18460020F8BD0048F8BD39
:10248000010004002DE9F74F90F81432044603F0E0
:102490001F03012B40F0918090F89D31002B00F03C
:1024A0008C80D0F8AC31D0F8A85190F89A21002651
:1024B000012A08BF1D46434BB2463746B1462A782B
:1024C000002A78D06A78042A0AD0052A1CD0022A69
:1024D0006ED1697994F89D21914269D06A8868E04B
:1024E00095F8029094F81822EF7891455DD194F810
:1024F0001622974259D104EB090393F8C0A183F83F
:10250000C07100231E4653E094F8182291454FD124
:1025100095F8028018F0800F08F08F0B06D008F0B5
:102520000F084FF4803202FA08F803E04FF0010878
:1025300008FA0BF894F8162297421BD1D4F8B4216C
:10254000204642EA0802C4F8B421D4F8B82129464A
:1025500022EA0802C4F8B8210193FFF715FA2046D1
:102560005946FFF72BFA20465946FFF74DFA46EA3F
:10257000080618E057451BD118EA060F17D1D4F802
:10258000B4216FEA080802EA0802C4F8B421D4F8BA
:10259000B821204602EA0802C4F8B821594601933E
:1025A000FFF71EFABA46019B02E0002600E0BA4699
:1025B0002A78154483E7184600E0024803B0BDE8D6
:1025C000F08F00BF01000400002100F50572FFF745
:1025D00004BBB0F8D03110B5402B28BF4023802178
:1025E000D0F8CC210446FFF7FBFAD4F8CC310344F1
:1025F000C4F8CC31B4F8D031181AA4F8D00110BD09
:1026000010B50021D0F8CC210446FFF7A1FAD4F888
:10261000CC310344C4F8CC31B4F8D031181AA4F842
:10262000D00110BD002280211346FFF7D9BA002146
:1026300000F5EA72FFF78CBA10B580210446FFF767
:10264000F5F90023A4F8D03110BDFFFF90F8143243
:1026500013F01F0307D190F8162262F07F0280F872
:102660009C21184670470148704700BF01000400D4
:10267000F8B504460F460546002694F898319E4268
:1026800013D2D5F858316BB12046D5F878113A46B7
:102690009847074B984205D0054638B12046FFF7CA
:1026A000CBFF03E001360435E7E7014D2846F8BDCE
:1026B0000200040001224FF00111A0F89E21002227
:1026C000C0F8B41180F89C2180F89D21C0F8B82191
:1026D000C0F8BC210E21FFF7CBBFFFFF10B50446A9
:1026E000FFF772FF94F814122046C909FFF765F945
:1026F000B4F81A322046A4F8D0310121FFF7B8FF10
:10270000374B98426AD194F81432C3F3411313B192
:10271000022B50D05EE094F815320B2B5AD8DFE82C
:1027200003F0060F5913591E272931333C3EE36845
:102730002046984700284DD12046FFF74AFF4CE03D
:10274000636A2046002102E0636A2046012198471F
:1027500000283FD12046FFF765FFE36C27E02046C5
:10276000FFF774FF002835D12046FFF75BFF34E008
:102770002369DDE720460021FFF758F90023A4F87C
:10278000D0312AE06369D3E7A3692046984708BBA4
:102790002046FFF747FF636C09E0E369C8E7236A57
:1027A00020469847B0B92046FFF73CFFA36CA3B181
:1027B0002046984711E0A36863B12046012198475D
:1027C00040B9B4F81A32002BCED094F81432DB0999
:1027D00003D0B1E72046FFF72FFF002010BD00BF58
:1027E0000200040038B590F814320446DB0923D106
:1027F000B0F8D03113B3FFF703FFB4F8D031EBB921
:1028000020460221FFF734FF0F4B984218D194F86D
:102810001432C3F34113022B0AD1A36843B12046FB
:1028200001219847054618B92046FFF7FBFE08E04E
:102830002046FFF701FF01E0FFF7F9FE002500E069
:102840000546284638BD00BF02000400013A10B515
:102850000446062A40D8DFE802F0041D21063F3A6C
:102860003C00036817E00421FFF702FF1B4B98426E
:1028700032D194F814122046C90904D1D4F8CC21DD
:10288000B4F8D03103E00021D4F8CC210B46FFF797
:10289000A2F921E04368204698471DE090F81432E1
:1028A000DB0909D00321FFF7E3FE0C4B984213D15B
:1028B0002046FFF78EFE0FE090F89C110B060BD51B
:1028C00001F07F0180F89C11FEF7EAFF04E000218F
:1028D00000E08021FFF7BEF8002010BD02000400D8
:1028E00070B515460E464FF407720021044600F0FD
:1028F00095F82A7B254B84F89921A365C4F8D84024
:1029000012B1E365C4F8DC40214B224A2360224B1C
:102910006360224BE360224B6362224B2361224BB4
:102920006361224BA361224BE361224B2362EB6B79
:10293000002B08BF134623651F4A2B6C002B08BFD2
:10294000134663656B6A2364AB6AA3632B69A36256
:102950006B69E362AB6923632B6A6363EB6AE363CE
:102960002B6B63646B6BA364AB6BE3643368C4F879
:10297000A0317368C4F8A431B368C4F8A831F3680F
:10298000C4F8AC313369C4F8B03170BD4D280000D3
:10299000DD260000F5200000E5270000F9200000FA
:1029A0003D22000085210000D5200000F12200001A
:1029B0000922000085240000F720000010B590F8DF
:1029C0009831072B0AD800EB83040133C4F858115F
:1029D000C4F8782180F89831002010BD004810BD5F
:1029E0000B00040010B590F89941B1EB440F06D8E4
:1029F00000EB81008265C0F8D830002010BD01488E
:102A000010BD00BF0300010008B5002211461046AA
:102A100000F006F8BDE80840FDF798BC00F030BBB8
:102A200070B54FF4A07200212048FFF7F7FFC020D7
:102A300000F09CF91E4CC02200211C4D206028266D
:102A4000FFF7ECFF20680023182406FB035204FB69
:102A500003010133082B5162F7D1144A15490020B4
:102A600000F072F84FF480534FF4806200210F4859
:102A700000F028F8104A1149012000F065F84FF4E1
:102A800080534FF4806200210B4800F01BF80C4A81
:102A90000A49022000F058F8BDE870404FF4805316
:102AA0004FF480620021064800F00CB8700000105E
:102AB0006C0000103032000098000010323200002C
:102AC000C000001070B5C468A50717D0B2F5007F2C
:102AD00009D0B2F5806F03D0B2F5807F0ED102E04D
:102AE000416A012303E0064D5E1EAE4206D8224332
:102AF00001610160C361C260002070BD012070BD32
:102B0000FEFFFF00C36810B523F02003C360436AD3
:102B100082695B6804469A420FD000F04AF8E36885
:102B2000626A23F4405323F0100343F01003E36080
:102B30005368A361236993602360E36823F48043AF
:102B400023F04003E36010BD70B50D460646104605
:102B5000144600F01BF92B78722B0AD0772B05D086
:102B6000612B22D1082348F2020204E0042302224E
:102B700001E00023012215F8011F2B2906D062294C
:102B800009D142F0040243F00103F4E742F00302EA
:102B900043F00203EFE71B07E260666107D50222FC
:102BA0000021204600F040F901E0002070BD2046E1
:102BB00070BD38B50446436A05690168C0689B6802
:102BC00020F40022E26000F08202022A02D04FF0DC
:102BD000FF3038BD10F4803016D0994238BF194606
:102BE0008D4209D1636A00209D60E368256023F46B
:102BF0008033A060E36038BD2246491B284600F0C0
:102C000005F80028EED0E2E738BDFFFF2DE9F041DE
:102C1000D5688046EB020E461446576905D53846FE
:102C200000F04BFA45F01005A061114B2B4053B159
:102C3000A169384600F04AFA002810DB25F4003577
:102C400025F01005E560324641463846FDF7B4FFF1
:102C500020F00043F61AA3691E44A66128B1E36878
:102C60004FF0FF3043F08003E360BDE8F08100BF28
:102C700010000200F8B5304F3C68A0B1C51CAD088B
:102C8000002605F10A0E05F1030C05E02368B3F1F7
:102C9000805F14D02646A468002CF7D10C3000F0D9
:102CA000A1F9431C10D10020F8BD1168B1F1805F7B
:102CB00015D151680B44033363609368A360A26825
:102CC0006368002AF1D10AE04FF0005380E8280041
:102CD00084600EB9386000E0B0600C30F8BD9D42F1
:102CE00007DC634505DC20464FF0005340F80C3B01
:102CF000F8BD734511D920464FF00051656040F88A
:102D00000C1B00EB8501A1604FF0805440F825407A
:102D10005D1B033D4D608A60F8BD002ABAD1A0EB6F
:102D2000830000F05FF90130BDD04FF0005384E81C
:102D3000280004F10C00F8BDB0010010A8B14FF05C
:102D4000805340F80C3C50F8042C72B11368B3F176
:102D5000805F0AD1536850F8081C0B44033340F8D5
:102D6000083C936840F8043CEDE7704710B5FFF766
:102D700081FF044628B917220349FDF71DFF00F023
:102D800098F9204610BD00BF343200002DE9F04113
:102D9000C56888B0A9070446466A28D02A0719D40E
:102DA000D0F81480076900F027F8404600F082F957
:102DB0002B0502D53846FFF7C1FFAD0DAD0515F166
:102DC000A54F07D12022216A684600F082F96846A3
:102DD00000F0D8F818220021606AFFF71FFE2822B1
:102DE00000212046FFF71AFE6662002001E04FF046
:102DF000FF3008B0BDE8F08170B5044618B1BDE8F9
:102E0000704000F00FB90546064E301900F00AF97F
:102E10002834002818BF4FF0FF35B4F5A07FF4D157
:102E2000284670BD700000102DE9F843C668414B7C
:102E3000044633400D469046002B77D0D0F81490CE
:102E4000484600F03DF9074600286FD1B8F1010F60
:102E500006D0B8F1020F08D0B8F1000F66D129E012
:102E6000204600F069F8054424E0484600F025F9C2
:102E7000B0F1000ED4F80CC004DA4CF08001E1602F
:102E8000012754E0606A83681A46A36919462368DB
:102E900093422CBFC918891823691CF0200FA1EB9D
:102EA000030303D042689342B8BF13467345ACBFD7
:102EB000ED187544002D39DB16F4005F626A04D00A
:102EC00023689168994238BF9360A1698D4210DBF5
:102ED00020689368D4F810E0834238BF034658183E
:102EE000CEEB0000854204DCD06801EB000C6545A8
:102EF00006DB0023A360636046F0200655600FE008
:102F00006D1AB10744BF281AA060F20744BFCEEB88
:102F10000303EB1A754448BF6360256026F0200662
:102F200026F4032626F04006E66000E00227384635
:102F3000BDE8F88303001000C3689A0705D1104B61
:102F400021221A604FF0FF30704713F4002F03F076
:102F500020030AD013B1436A586804E00268836909
:102F600000691344181A0138704713B1436A58684E
:102F700070470268836900691344181A704700BFDC
:102F8000B801001010B5044600F006F801462046CE
:102F9000BDE8104000F097B810B5421C830705D07B
:102FA00010F8013B002BF9D1801A10BD034650F8F0
:102FB000041BA1F1013424EA010414F0803FF5D090
:102FC00011F0FF0F0AD011F47F4F05D011F47F0FDD
:102FD00014BF0346033302E0023300E00133981AC2
:102FE00010BDFFFF38B50C4B1A680AB90B4A1A60BE
:102FF000C41C1D6824F003042C44204600F034F85F
:1030000018B9054B28461C6038BD054B0C221A60C8
:103010004FF0FF3038BD00BFB4010010C0010010F8
:10302000B8010010C26870B512F00303044619D04D
:10303000930604D5436A5D68FFF764FD04E0056804
:1030400083692B4405695D1BE368204623F44053E4
:10305000E360FFF7AEFD0646002229462046FFF753
:10306000E3FE3346184670BD044B23B1984234BF8B
:103070000020012070471846704700BF0000000084
:10308000034613F0030F0ED101F0FF0141EA0121C5
:1030900041EA0141043A24BF43F8041BB2F104029F
:1030A000F9D202F10402013A24BF03F8011BFAE746
:1030B0007047FEE74FF0FF3070474FF0FF3070472A
:1030C0004FF0FF3070474FF0FF3070474FF0FF3048
:1030D00070474FF0FF30704712010002EF020140CD
:1030E000C91F8300000101020301FFFF040309045B
:1030F00008034E00580050001403560043004F00D0
:103100004D00200050006F00720074000E034E004E
:10311000580050002D00370037000A0356004300C6
:103120004F004D00A83100000432000000000000F4
:103130000000000000000000243200000000000039
:1031400001112202001BB70000800000000A0000ED
:10315000080A0000200A0000280A0000B008000049
:10316000B8090000D00A00000109000009090000A8
:10317000210900004109000049090000510900002F
:103180007109000079090000810900008909000027
:10319000D90900001A080000780800002208000081
:1031A000800800008808000029180000D1180000DD
:1031B00031180000251C00004D180000D11B000034
:1031C0009D180000A1180000551900008919000081
:1031D000BB190000BD190000E1190000091A000028
:1031E0002D1A0000551A0000D31B0000511B0000CF
:1031F000D71B0000DB1B0000E11B00007D18000056
:10320000791A0000BD290000E5290000C925000049
:10321000D325000001260000252600002F260000EF
:1032200039260000911F0000951F0000411F00007B
:10323000720077002A2A2A205F437379735F616CDA
:0C3240006C6F63206661696C65640A00B5
:10324C0009024B00020100C0FA080B000202020046
:10325C000409040000010202000405240010010509
:10326C002401010104240202052406000107058241
:10327C000310000209040100020A00000407050102
:10328C0002400000070581024000000024310000CC
:040000030000017187
:00000001FF
