:100000000080001071010000E9010000F101000012
:10001000F9010000010200000902000000000000D8
:1000200000000000000000000000000011020000BD
:100030001902000000000000210200002902000057
:1000400031020000310200003102000031020000E4
:10005000310200006D030000310200003102000097
:1000600031020000310200003102000031020000C4
:1000700031020000310200003102000031020000B4
:1000800031020000310200003102000031020000A4
:100090003102000031020000310200003102000094
:1000A0003102000031020000310200003102000084
:1000B0003102000031020000310200003102000074
:1000C000310200003102000031020000282000004F
:1000D00000000010000000002820000000C00720E1
:1000E00000000000000000102002000000C00720F7
:1000F0000000000080B489B000AFF860B9607A6099
:10010000BB68FB61FB68BB6100237B610AE0FB69A4
:100110001A1DFA61BA69111DB96112681A607B690A
:1001200004337B617A697B689A42F0D300BF24373D
:10013000BD4680BC704700BF80B485B000AF78601A
:1001400039607B68FB600023BB6007E0FB681A1D19
:10015000FA6000221A60BB680433BB60BA683B686F
:100160009A42F3D300BF1437BD4680BC704700BF2E
:1001700080B584B000AF194BFB6013E0FB681A1D1B
:10018000FA601B68BB60FB681A1DFA601B687B6025
:10019000FB681A1DFA601B683B603A687968B868AA
:1001A000FFF7A8FFFB680E4A9342E7D30DE0FB6818
:1001B0001A1DFA601B687B60FB681A1DFA601B68D9
:1001C0003B6039687868FFF7B7FFFB68054A9342E0
:1001D000EDD300F031F801F033FBFEE7CC00000076
:1001E000E4000000F400000080B400AFFEE700BFB0
:1001F00080B400AFFEE700BF80B400AFFEE700BFF1
:1002000080B400AFFEE700BF80B400AFFEE700BFE0
:1002100080B400AFFEE700BF80B400AFFEE700BFD0
:1002200080B400AFFEE700BF80B400AFFEE700BFC0
:1002300080B400AFFEE700BF80B582B000AF054BD1
:100240007B60054A7B681A6000F056FB00BF0837E8
:10025000BD4680BD08ED00E00000000080B483B022
:1002600000AF0346FB71084997F907305B09FA793B
:1002700002F01F02012000FA02F241F8232000BF21
:100280000C37BD4680BC704700E100E080B483B00D
:1002900000AF0346FB71094997F907305B09FA790A
:1002A00002F01F02012000FA02F2203341F823205D
:1002B00000BF0C37BD4680BC704700BF00E100E0C6
:1002C00080B483B000AF03463960FB7197F9073003
:1002D000002B0BDA0D49FB7903F00F03043B3A685E
:1002E000D2B2D200D2B20B441A7609E0084997F98B
:1002F00007303A68D2B2D200D2B20B4483F800235E
:1003000000BF0C37BD4680BC704700BF00ED00E069
:1003100000E100E080B483B000AF786039607B68B2
:100320005A683B681A437B685A6000BF0C37BD4669
:1003300080BC704780B483B000AF786039607B6860
:100340003A689A6000BF0C37BD4680BC704700BF5A
:1003500080B483B000AF786039607B683A68DA6057
:1003600000BF0C37BD4680BC704700BF80B500AFF2
:10037000034A0449044801F03DFA00BF80BD00BFB4
:10038000000000101400001000C0004080B584B0D0
:1003900002AF00F0B9FA01230093082302220021E2
:1003A0003A4800F0E3FC01230093082303220021D4
:1003B000364800F0DBFC00F05DFA354800F0CCF97F
:1003C0000021002000F004FA314801F0FBF84FF45E
:1003D000E1312F4801F05CF903212D48FFF7B8FF08
:1003E00081212B48FFF7A6FF294801F039F9202386
:1003F00001222849284800F07DFD80230122274959
:10040000274800F077FDC7212148FFF793FF05211A
:100410001F48FFF77FFF01210520FFF751FF05204F
:10042000FFF71CFF2E231F4A1D49194801F0A0F9B0
:100430002C231D4A1A49164801F09AF90023FB7033
:1004400015E0FA1C01231449114801F0C1F9786044
:100450007B68002B0BDDFA1C012311490C4801F0CD
:1004600087F90346012B02D0002000F0E1F9FB7868
:100470001B2BE6D10520FFF709FF054801F0DEF848
:10048000012318460837BD4680BD00BF00C00240AA
:1004900000C00040280000101400001048000010A8
:1004A00000000010481F0000781F000080B582B0D7
:1004B00000AF78600F2000F01BFB00BF0837BD467F
:1004C00080BD00BF80B582B000AF78600F2000F023
:1004D0000FFB00BF0837BD4680BD00BF80B483B0AE
:1004E00000AF7860084611461A460346FB700B467B
:1004F000BB7013467B707B78002B0FD0FB785B01C1
:100500007A681344FA78520179680A449169BA7892
:10051000012000FA02F20A439A610EE0FB785B01C7
:100520007A681344FA78520179680A44D169BA7832
:10053000012000FA02F20A43DA6100BF0C37BD461F
:1005400080BC704780B584B000AFF860B9601146D8
:100550001A460B46FB711346BB71BB68D9B2BB7917
:10056000FA79F868FFF7BAFF00BF1037BD4680BDC3
:1005700080B483B000AF78600B46FB701346BB704D
:10058000FB785B017A6813445A69BB7822FA03F35B
:1005900003F00103002B14BF01230023DBB2184634
:1005A0000C37BD4680BC704780B584B000AFF860A2
:1005B000B9601346FB71BB68DBB2FA791946F8687B
:1005C000FFF7D6FF034618461037BD4680BD00BF73
:1005D00080B483B000AF78600B46FB701346BB70ED
:1005E000FB785B017A681344FA78520179680A440F
:1005F0001168BA78012000FA02F20A431A6000BFBB
:100600000C37BD4680BC704780B483B000AF7860C3
:100610000B46FB701346BB70FB785B017A68134492
:10062000FA78520179680A441168BA78012000FA10
:1006300002F2D2430A401A6000BF0C37BD4680BCAC
:10064000704700BF80B582B000AF786008461146A1
:100650001A460346FB700B46BB7013467B707B78D3
:10066000002B06D0BA78FB7819467868FFF7B0FF00
:1006700005E0BA78FB7819467868FFF7C5FF00BF38
:100680000837BD4680BD00BF80B582B000AF78603E
:10069000084611461A460346FB700B46BB701346CC
:1006A0007B707B78BA78F9787868FFF7CBFF00BF6A
:1006B0000837BD4680BD00BF80B483B000AF78600E
:1006C0000B46FB70FA787B681A6000BF0C37BD469A
:1006D00080BC704780B483B000AF786039607B68BD
:1006E0003A68DA6000BF0C37BD4680BC704700BF77
:1006F00080B483B000AF78607B685B6918460C37C4
:10070000BD4680BC704700BF80B586B000AFF860C2
:10071000B9607A6000237B6109E0BA687B691344A1
:100720001B78184600F03AF87B6901337B617B68DF
:100730007A699A42F1D37B6818461837BD4680BD66
:1007400080B500AF0123162200210248FFF79CFF6D
:1007500000BF80BD00C0092080B483B000AF7860C6
:1007600000BF0C37BD4680BC704700BF80B500AFEE
:100770000948FFF7F1FF084800F024FF4FF4E1318A
:10078000054800F085FF03210348FFF7A3FF024857
:1007900000F066FF00BF80BD00C0004080B582B0A1
:1007A00000AF0346FB7100BF0848FFF7A1FF0346F7
:1007B00003F02003002BF7D0FB7919460348FFF71D
:1007C0007BFF00BF0837BD4680BD00BF00C00040B2
:1007D00080B582B000AF03460A46FB711346BB7179
:1007E000FB79002B05D1BB79162200210348FFF7C6
:1007F000A9FE00BF0837BD4680BD00BF00C009206C
:1008000080B584B000AF0346FB710023FB73FB7916
:10081000002B06D1162200210448FFF7C5FE03462F
:10082000FB73FB7B18461037BD4680BD00C0092016
:1008300080B582B000AF0346FB71FB79002B14D169
:10084000FB791846FFF7DCFF0346002B14BF01239A
:100850000023DBB283F00103DBB203F00103DAB261
:10086000FB7911461846FFF7B3FF00BF0837BD46B6
:1008700080BD00BF80B500AFFFF778FF0448FFF7E9
:1008800021FE0448FFF712FEFFF75AFF00BF80BDAC
:1008900000C0092000C0024080B485B000AF03460C
:1008A000FB71084B1B68C3F30B03FB60054AFB7924
:1008B0001B031946FB680B43136000BF1437BD468A
:1008C00080BC704700C00F4080B500AF17220349BD
:1008D000034800F095FA00BF80BD00BFB01F0000C4
:1008E00000C0024080B500AF00F0E8FC0420FFF734
:1008F000D3FF00BF80BD00BF80B500AFFFF7E4FFAE
:10090000FFF7F0FF00BF80BD80B500AF00F0F2F947
:100910000246024B1A6000BF80BD00BF1C020010DF
:1009200080B400AF064BD3F8883003F08073002BFF
:1009300014BF01230023DBB21846BD4680BC7047BC
:1009400000C00F4080B400AF064BD3F8883003F0EE
:100950000073002B14BF01230023DBB21846BD46F1
:1009600080BC704700C00F4080B483B000AF034626
:10097000FB71094AFB795B0113448C33AA221A608C
:10098000054AFB795B0113448C3355221A6000BF82
:100990000C37BD4680BC704700C00F4080B400AF2C
:1009A000054BD3F80C31DBB203F00303DBB218467E
:1009B000BD4680BC704700BF00C00F4080B400AF90
:1009C000024B1B681846BD4680BC7047A81F00003C
:1009D00080B400AF024B1846BD4680BC704700BFD4
:1009E00000093D0080B400AF024B1B681846BD46AD
:1009F00080BC7047AC1F000080B500AF00F022F94A
:100A00000346184680BD00BF80B584B000AF0346E2
:100A10003960FB710C4AFB7904335B0113441B689A
:100A2000FB60FA683B681343FB60074AFB790433B9
:100A30005B011344FA681A60FB791846FFF794FFCC
:100A400000BF1037BD4680BD00C00F4080B584B0E8
:100A500000AF03463960FB710D4AFB7904335B013B
:100A600013441B68FB603B68DB43FA681340FB6080
:100A7000074AFB7904335B011344FA681A60FB7977
:100A80001846FFF771FF00BF1037BD4680BD00BF9D
:100A900000C00F4080B586B000AF0346B9607A60F1
:100AA000FB73FB7B002B05D17B681A04BB681343E7
:100AB0007B6104E07B685A01BB6813437B610B4A8E
:100AC000FB7B04335B01134404337A691A60074AE1
:100AD000FB7B04335B01134401221A60FB7B184645
:100AE000FFF742FF00BF1837BD4680BD00C00F4072
:100AF00080B485B000AF0346FB71FB79FB60084909
:100B0000074BD3F8C4300120FA6800FA02F213430D
:100B1000C1F8C43000BF1437BD4680BC704700BF69
:100B200000C00F4080B485B000AF0346FB71FB7975
:100B3000FB600849074BD3F8C4300120FA6800FA7B
:100B400002F2D2431343C1F8C43000BF1437BD468C
:100B500080BC704700C00F4080B582B000AFFFF787
:100B6000F1FE0346002B02D00123FB7101E00023BC
:100B7000FB71FB7918460837BD4680BD80B483B051
:100B800000AF7860044A7B68C2F8043100BF0C37BC
:100B9000BD4680BC704700BF00C00F4080B400AFAE
:100BA000044BD3F80431DBB201331846BD4680BC98
:100BB000704700BF00C00F4080B487B000AF03464D
:100BC000FB7101237B61FB795B003B613B6903F0B7
:100BD0001F03FB603B695B093B61194A3B696A3350
:100BE00052F823307B617A69FB6822FA03F303F041
:100BF00003037B617B69002B02D104237B6119E035
:100C00007B69012B02D101237B6113E07B69022BFD
:100C100002D102237B610DE0FB790D2B05D0FB791E
:100C20000E2B02D0FB790F2B02D106237B6101E052
:100C300008237B617B6918461C37BD4680BC704722
:100C400000C00F4080B500AFFFF7A8FE0346012BA0
:100C500007D0022B09D0002B0BD1FFF7B9FE0346BA
:100C600008E0FFF7ABFE034604E0FFF7BBFE0346D8
:100C700000E00023184680BD80B584B000AF00239B
:100C8000FB60FFF74DFE0346002B18D00E4BD3F848
:100C90008430C3F30E030133BB600B4BD3F88430B5
:100CA0001B0CDBB201337B60FFF7A6FE0246BB687C
:100CB00003FB02F35A007B68B2FBF3F3FB60FB68B3
:100CC00018461037BD4680BD00C00F4080B500AF4C
:100CD000FFF742FF0346002B05D0012B07D1FFF79A
:100CE000CBFF034604E0FFF7ADFF034600E000231F
:100CF000184680BD98B500AFFFF7E8FF0446FFF740
:100D00004DFF0346B4FBF3F3184698BD90B583B08E
:100D100000AF0346FB71FFF7EDFF0446FB79184671
:100D2000FFF74AFF0346B4FBF3F318460C37BD4602
:100D300090BD00BF80B586B002AFF8607B600B4607
:100D4000FB721346BB727B6898087B68DBB203F0CA
:100D50000303DBB2BA7AF97A00930346F86800F02D
:100D600005F800BF1037BD4680BD00BF80B487B016
:100D700000AFF8607B600B46FB721346BB72BB7A18
:100D800003F00F03DBB25B00FB75FB7A5B00DAB2AA
:100D9000BB7A1B09DBB21344BB75BA7DFB6853F801
:100DA0002220FB7D032101FA03F3DB4313403B6167
:100DB000BA7D97F82010FB7D01FA03F319463B69D1
:100DC0001943FB6843F82210BA7DFB68103253F8D0
:100DD0002220FB7D032101FA03F3DB4313403B6137
:100DE000BA7DFB7D796899403B691943FB681032F5
:100DF00043F8221000BF1C37BD4680BC704700BFBF
:100E000080B586B000AFF860B9607A6000237B617E
:100E10001FE07B699B00BA6813441B78C3F302038D
:100E2000DBB219467B699B00BA6813441B78C3F395
:100E3000C403DBB218467B699B00BA6813441B6885
:100E4000C3F317230246F868FFF774FF7B69013389
:100E50007B617A697B689A42DBD300BF1837BD4655
:100E600080BD00BF80B483B000AF78607B680C3376
:100E70001A687B6810331B68D31A18460C37BD46B6
:100E800080BC704790B583B000AF78607B685C68C9
:100E90007868FFF7E7FF0346E31A18460C37BD46AC
:100EA00090BD00BF80B582B000AF78607868FFF772
:100EB000D9FF02467B685B689A42ACBF01230023DE
:100EC000DBB218460837BD4680BD00BF80B483B092
:100ED00000AF78607B680C331A687B6810331B683E
:100EE0009A420CBF01230023DBB218460C37BD46E3
:100EF00080BC704780B485B000AFF860B9607A609C
:100F00003B60FB68BA681A60FB683A685A60FB6825
:100F10007A689A60FB6800221A61FB681A69FB68AC
:100F2000DA60012318461437BD4680BC704700BF05
:100F300080B584B000AF786039607B681B68FB6067
:100F40007868FFF7AFFF0346002B01D0002319E0BC
:100F50007B68DB687A685268013A13407A68926865
:100F600002FB03F3FA681344FB607B689B681A4634
:100F70003968F86800F06EFC7B68DB685A1C7B6897
:100F8000DA60012318461037BD4680BD80B588B0B1
:100F900000AFF860B9607A60FB681B68BB61F868F5
:100FA000FFF780FF0346002B01D000237BE0F868A9
:100FB000FFF768FF78617B69FB61FB68DB68FA68B3
:100FC0005268013A1A40FB691344FA685268934226
:100FD0000AD3FB685B681946FB68DB68FA685268ED
:100FE000013A1340CB1AFB617A69FB69D31A7B6122
:100FF000FA697B689342A8BF1346FB617A68FB6974
:10100000D31A7B607A697B689342A8BF13467B61E1
:101010007A687B69D31A7B60FB68DB68FA68526880
:10102000013A1340FA68926802FB03F3BA69134469
:10103000BB61FB689B68FA6902FB03F31A46B96857
:10104000B86900F007FCFB68DA68FB691A44FB68C2
:10105000DA60FB681A68FB68DB68F968496801397F
:101060000B40F968896801FB03F31344BB61FB681B
:101070009B68FA6902FB03F31A46BB681344BB6022
:10108000FB689B687A6902FB03F31A46B968B86982
:1010900000F0E0FBFB68DA687B691A44FB68DA6001
:1010A000FA697B69134418462037BD4680BD00BFEE
:1010B00080B584B000AF786039607B681B68FB60E6
:1010C0007868FFF703FF0346002B01D0002319E0E7
:1010D0007B681B697A685268013A13407A689268A3
:1010E00002FB03F3FA681344FB607B689B681A46B3
:1010F000F968386800F0AEFB7B681B695A1C7B6896
:101100001A61012318461037BD4680BD80B588B0EE
:1011100000AFF860B9607A60FB681B68BB61F86873
:10112000FFF7D4FE0346002B01D000237BE0F868D4
:10113000FFF798FE78617B69FB61FB681B69FA68C1
:101140005268013A1A40FB691344FA6852689342A4
:101150000AD3FB685B681946FB681B69FA6852682A
:10116000013A1340CB1AFB617A69FB69D31A7B61A0
:10117000FA697B689342A8BF1346FB617A68FB69F2
:10118000D31A7B607A697B689342A8BF13467B6160
:101190007A687B69D31A7B60FB681B69FA685268BE
:1011A000013A1340FA68926802FB03F3BA691344E8
:1011B000BB61FB689B68FA6902FB03F31A46B969D5
:1011C000B86800F047FBFB681A69FB691A44FB68C2
:1011D0001A61FB681A68FB681B69F968496801397C
:1011E0000B40F968896801FB03F31344BB61FB689A
:1011F0009B68FA6902FB03F31A46BB681344BB60A1
:10120000FB689B687A6902FB03F31A46B969B86800
:1012100000F020FBFB681A697B691A44FB681A61BD
:10122000FA697B69134418462037BD4680BD00BF6C
:1012300080B400AF064BD3F8883003F08073002BE6
:1012400014BF01230023DBB21846BD4680BC7047A3
:1012500000C00F4080B400AF064BD3F8883003F0D5
:101260008063002B14BF01230023DBB21846BD4668
:1012700080BC704700C00F4080B400AF064BD3F86D
:10128000883003F00073002B14BF01230023DBB26E
:101290001846BD4680BC704700C00F4080B483B084
:1012A00000AF0346FB71044AFB79C2F80C3100BF62
:1012B0000C37BD4680BC704700C00F4080B500AF02
:1012C000FFF7DAFF0346002B03D002210020FFF7CF
:1012D000BDFBFFF7ADFF0346002B03D0012100202B
:1012E000FFF7B4FB0020FFF749FC0020FFF7D6FF13
:1012F000002224210020FFF7CDFB01210020FFF771
:1013000083FB0320FFF73AFC00BFFFF7A3FF034670
:1013100083F00103DBB2002BF7D102210020FFF79D
:1013200073FB00BF80BD00BF80B483B000AF7860A6
:101330007B680C331A687B6810331B689A420CBFB9
:1013400001230023DBB218460C37BD4680BC704732
:1013500080B483B000AF78600B46FB70FA787B688E
:101360001A6000BF0C37BD4680BC704780B483B0A4
:1013700000AF78607B681B68DBB218460C37BD464F
:1013800080BC704780B483B000AF786039607B6800
:101390005A683B681A437B685A6000BF0C37BD46E9
:1013A00080BC704780B483B000AF786039607B68E0
:1013B0005A683B68DB431A407B685A6000BF0C37B1
:1013C000BD4680BC704700BF80B483B000AF78607A
:1013D0007B689B6818460C37BD4680BC704700BFD1
:1013E00080B483B000AF786039607B683A689A60F7
:1013F00000BF0C37BD4680BC704700BF80B483B0CF
:1014000000AF786039607B683A68DA6000BF0C37FB
:10141000BD4680BC704700BF80B483B000AF786029
:101420007B68DB6843F080027B68DA6000BF0C37C2
:10143000BD4680BC704700BF80B483B000AF786009
:101440007B68DB6823F080027B68DA6000BF0C37C2
:10145000BD4680BC704700BF80B483B000AF7860E9
:101460000B46FB701346BB70FA787B681A60BA783B
:101470007B685A6000BF0C37BD4680BC704700BF18
:1014800080B483B000AF78607B685B6918460C3726
:10149000BD4680BC704700BF80B483B000AF7860A9
:1014A00039607B681A6A3B681A437B681A6200BF1E
:1014B0000C37BD4680BC704780B485B000AF786003
:1014C0007B680E4A934202D10423FB730FE07B68D2
:1014D0000B4A934202D11823FB7308E07B68094A48
:1014E000934202D11923FB7301E00323FB73FB7BBF
:1014F00018461437BD4680BC704700BF000001404D
:101500000080094000C0094080B582B000AF78601B
:101510007868FFF759FF034603F48073002B11D05E
:101520004FF480717868FFF7B7FF4FF480717868E7
:10153000FFF738FF0E4B1B78DBB2002B02D10C4BB0
:1015400001221A707868FFF73FFF034603F4007327
:10155000002B09D04FF400717868FFF79DFF4FF41E
:1015600000717868FFF71EFF00BF0837BD4680BDD9
:10157000C800001080B485B000AF78607B680E4A68
:10158000934202D10423FB730FE07B680B4A934222
:1015900002D11823FB7308E07B68094A934202D109
:1015A0001923FB7301E00323FB73FB7B18461437FD
:1015B000BD4680BC704700BF00000140008009406C
:1015C00000C0094080B584B000AF78607868FFF74C
:1015D00073FF03461846FFF78BFA07217868FFF779
:1015E000FFFE786800F048F87B6800225A607B684C
:1015F0000022DA607B6800221A627B680022DA64CB
:101600007B6800225A657B6800221A657B680A4A5B
:10161000934205D17B6800221A617B689B69FB605D
:1016200003217868FFF7EAFE7B6810229A6200BF08
:101630001037BD4680BD00BF0000014080B582B0BC
:1016400000AF7860786800F017F87868FFF734FF2B
:1016500003461846FFF766FA00BF0837BD4680BD4F
:1016600080B483B000AF78607B6880221A6300BFCB
:101670000C37BD4680BC704780B483B000AF786043
:101680007B6800221A6300BF0C37BD4680BC7047E0
:1016900080B586B000AF786039607868FFF76AFF80
:1016A00003461846FFF732FB78613B681B017A69F5
:1016B000B2FBF3F33B613B691B0AFB60FB681B0257
:1016C0003A69D31ABB607868FFF7A6FEBB68DBB245
:1016D000FA68D2B219467868FFF7BEFE7868FFF75D
:1016E000ABFE7A693B69B2FBF3F318461837BD4687
:1016F00080BD00BF80B584B000AF786039600AE07B
:101700007868FFF733FE0346FB7307F10F031946B2
:101710003868FFF70DFC7868FFF7B2FE034603F068
:101720000103002BECD100BF1037BD4680BD00BFC8
:1017300080B584B000AF7860396004E0FB7B194667
:101740007868FFF705FE7868FFF79AFE034603F016
:101750002003002B08D007F10F0319463868FFF764
:10176000A7FC0346002BE9D100BF1037BD4680BD62
:1017700080B586B000AFF860B9607A603B607B6886
:101780007B610221F868FFF70DFE3A687969B86855
:10179000FFF7FCFB03463B61B968F868FFF7C8FF39
:1017A0007A693B69D1183A683B69D31A1A46B86816
:1017B000FFF7ECFB03461A463B6913443B610221E9
:1017C000F868FFF7DFFD3B6918461837BD4680BD56
:1017D00080B584B000AFF860B9607A603B603A6869
:1017E0007968B868FFF792FC034618461037BD4683
:1017F00080BD00BF80B584B000AFF860B9607A608A
:10180000FB685B6803F00203002B0DD07968F86871
:10181000FFF78EFF7868FFF787FD0346002B03D0A4
:101820000221F868FFF7BEFDB968F868FFF762FFAC
:10183000F868FFF769FE00BF1037BD4680BD00BFE6
:1018400008B500221146104600F006F8BDE8084031
:10185000FEF79CBD00F032BB70B54FF4A0720021C2
:10186000204800F06BF8C02000F09EF91E4CC0220A
:1018700000211C4D2060282600F060F8206800231D
:10188000182406FB035204FB03010133082B5162A9
:10189000F7D1144A1549002000F074F84FF4805332
:1018A0004FF4806200210F4800F028F8104A1149D7
:1018B000012000F067F84FF480534FF4806200215C
:1018C0000B4800F01BF80C4A0A49022000F05AF8B5
:1018D000BDE870404FF480534FF480620021064809
:1018E00000F00CB8D0000010CC0000100C2000005C
:1018F000F80000100E2000002001001070B5C46830
:10190000A50717D0B2F5007F09D0B2F5806F03D0DC
:10191000B2F5807F0ED102E0416A012303E0064D5B
:101920005E1EAE4206D8224301610160C361C260FF
:10193000002070BD012070BDFEFFFF0000F0D8BA8E
:10194000C36810B523F02003C360436A82695B68F3
:1019500004469A420FD000F04AF8E368626A23F422
:10196000405323F0100343F01003E3605368A36176
:10197000236993602360E36823F4804323F04003EA
:10198000E36010BD70B50D4606461046144600F0E3
:101990001BF92B78722B0AD0772B05D0612B22D123
:1019A000082348F2020204E00423022201E000239B
:1019B000012215F8011F2B2906D0622909D142F016
:1019C000040243F00103F4E742F0030243F0020390
:1019D000EFE71B07E260666107D50222002120467F
:1019E00000F040F901E0002070BD204670BD38B520
:1019F0000446436A05690168C0689B6820F40022B8
:101A0000E26000F08202022A02D04FF0FF3038BDBF
:101A100010F4803016D0994238BF19468D4209D152
:101A2000636A00209D60E368256023F48033A06032
:101A3000E36038BD2246491B284600F005F800281F
:101A4000EED0E2E738BDFFFF2DE9F041D5688046D2
:101A5000EB020E461446576905D5384600F065FA84
:101A600045F01005A061114B2B4053B1A1693846D8
:101A700000F064FA002810DB25F4003525F010058D
:101A8000E560324641463846FEF73EFE20F0004310
:101A9000F61AA3691E44A66128B1E3684FF0FF302F
:101AA00043F08003E360BDE8F08100BF1000020056
:101AB000F8B5304F3C68A0B1C51CAD08002605F153
:101AC0000A0E05F1030C05E02368B3F1805F14D022
:101AD0002646A468002CF7D10C3000F0A1F9431C75
:101AE00010D10020F8BD1168B1F1805F15D15168A7
:101AF0000B44033363609368A360A2686368002AA1
:101B0000F1D10AE04FF0005380E8280084600EB95C
:101B1000386000E0B0600C30F8BD9D4207DC6345E2
:101B200005DC20464FF0005340F80C3BF8BD7345F0
:101B300011D920464FF00051656040F80C1B00EBB6
:101B40008501A1604FF0805440F825405D1B033DA6
:101B50004D608A60F8BD002ABAD1A0EB830000F086
:101B60005FF90130BDD04FF0005384E8280004F144
:101B70000C00F8BD10020010A8B14FF0805340F8DF
:101B80000C3C50F8042C72B11368B3F1805F0AD199
:101B9000536850F8081C0B44033340F8083C936822
:101BA00040F8043CEDE7704710B5FFF781FF0446AD
:101BB00028B917220349FEF7A7FD00F0B2F9204625
:101BC00010BD00BF102000002DE9F041C56888B0AD
:101BD000A9070446466A28D02A0719D4D0F81480E9
:101BE000076900F027F8404600F09CF92B0502D564
:101BF0003846FFF7C1FFAD0DAD0515F1A54F07D173
:101C00002022216A684600F09CF9684600F0D8F866
:101C100018220021606AFFF791FE28220021204649
:101C2000FFF78CFE6662002001E04FF0FF3008B045
:101C3000BDE8F08170B5044618B1BDE8704000F011
:101C40000FB90546064E301900F00AF9283400286D
:101C500018BF4FF0FF35B4F5A07FF4D1284670BD12
:101C6000D00000102DE9F843C668414B04463340CC
:101C70000D469046002B77D0D0F81490484600F0DF
:101C800057F9074600286FD1B8F1010F06D0B8F117
:101C9000020F08D0B8F1000F66D129E0204600F00D
:101CA00069F8054424E0484600F03FF9B0F1000E21
:101CB000D4F80CC004DA4CF08001E160012754E054
:101CC000606A83681A46A3691946236893422CBF49
:101CD000C918891823691CF0200FA1EB030303D056
:101CE00042689342B8BF13467345ACBFED187544C4
:101CF000002D39DB16F4005F626A04D02368916816
:101D0000994238BF9360A1698D4210DB20689368C7
:101D1000D4F810E0834238BF03465818CEEB0000D9
:101D2000854204DCD06801EB000C654506DB00232E
:101D3000A360636046F0200655600FE06D1AB1079E
:101D400044BF281AA060F20744BFCEEB0303EB1A8E
:101D5000754448BF6360256026F0200626F40326FC
:101D600026F04006E66000E002273846BDE8F8832A
:101D700003001000C3689A0705D1104B21221A6096
:101D80004FF0FF30704713F4002F03F020030AD008
:101D900013B1436A586804E0026883690069134418
:101DA000181A0138704713B1436A586870470268BF
:101DB000836900691344181A704700BF18020010A5
:101DC00010B5044600F006F801462046BDE8104074
:101DD00000F0B1B810B5421C830705D010F8013BE4
:101DE000002BF9D1801A10BD034650F8041BA1F155
:101DF000013424EA010414F0803FF5D011F0FF0F04
:101E00000AD011F47F4F05D011F47F0F14BF0346A1
:101E1000033302E0023300E00133981A10BDFFFFE4
:101E200038B50C4B1A680AB90B4A1A60C41C1D68F5
:101E300024F003042C44204600F034F818B9054B74
:101E400028461C6038BD054B0C221A604FF0FF304D
:101E500038BD00BF1402001020020010180200104C
:101E6000C26870B512F00303044619D0930604D576
:101E7000436A5D68FFF764FD04E0056883692B44ED
:101E800005695D1BE368204623F44053E360FFF7D8
:101E9000AEFD0646002229462046FFF7E3FE334604
:101EA000184670BD044B23B1984234BF0020012076
:101EB00070471846704700BF0000000040EA010369
:101EC000DB0703460CD40346043A22BF51F804CB87
:101ED00043F804CBB2F10402F7D2043208BF7047D2
:101EE000013A24BF11F801CB03F801CBF8D87047B1
:101EF000034613F0030F0ED101F0FF0141EA012167
:101F000041EA0141043A24BF43F8041BB2F1040240
:101F1000F9D202F10402013A24BF03F8011BFAE7E7
:101F20007047FEE74FF0FF3070474FF0FF307047CB
:101F30004FF0FF3070474FF0FF3070474FF0FF30E9
:101F400070474FF0FF3070474C5043313778782F4F
:101F5000343078782055415254206578616D706C2A
:101F600065207573696E672072696E672062756699
:101F7000666572730D0A00FF5072657373206120ED
:101F80006B657920746F206563686F2069742062C7
:101F900061636B206F722045534320746F2071750D
:101FA00069740D0A00FFFFFF001BB70000800000EE
:101FB000000A0000080A0000200A0000280A0000A9
:101FC000B0080000B8090000D00A000001090000B4
:101FD0000909000021090000410900004909000029
:101FE0005109000071090000790900008109000011
:101FF00089090000D90900001A08000078080000CB
:1020000022080000800800008808000072007700A5
:102010002A2A2A205F437379735F616C6C6F632097
:082020006661696C65640A0049
:040000030000017187
:00000001FF
