:100000000080001071010000E9010000F101000012
:10001000F9010000010200000902000000000000D8
:1000200000000000000000000000000011020000BD
:100030001902000000000000210200002902000057
:1000400031020000310200003102000031020000E4
:1000500031020000310200003102000031020000D4
:1000600031020000310200003102000031020000C4
:1000700031020000310200003102000031020000B4
:1000800031020000310200003102000031020000A4
:100090003102000031020000310200003102000094
:1000A0003102000031020000310200003102000084
:1000B0001106000031020000310200003102000090
:1000C000310200003102000031020000C045000092
:1000D0000000001010000000C045000000C0072014
:1000E00000000000100000107401000000C0072094
:1000F0000000000080B489B000AFF860B9607A6099
:10010000BB68FB61FB68BB6100237B610AE0FB69A4
:100110001A1DFA61BA69111DB96112681A607B690A
:1001200004337B617A697B689A42F0D300BF24373D
:10013000BD4680BC704700BF80B485B000AF78601A
:1001400039607B68FB600023BB6007E0FB681A1D19
:10015000FA6000221A60BB680433BB60BA683B686F
:100160009A42F3D300BF1437BD4680BC704700BF2E
:1001700080B584B000AF194BFB6013E0FB681A1D1B
:10018000FA601B68BB60FB681A1DFA601B687B6025
:10019000FB681A1DFA601B683B603A687968B868AA
:1001A000FFF7A8FFFB680E4A9342E7D30DE0FB6818
:1001B0001A1DFA601B687B60FB681A1DFA601B68D9
:1001C0003B6039687868FFF7B7FFFB68054A9342E0
:1001D000EDD300F071FB01F071FDFEE7CC000000F3
:1001E000E4000000F400000080B400AFFEE700BFB0
:1001F00080B400AFFEE700BF80B400AFFEE700BFF1
:1002000080B400AFFEE700BF80B400AFFEE700BFE0
:1002100080B400AFFEE700BF80B400AFFEE700BFD0
:1002200080B400AFFEE700BF80B400AFFEE700BFC0
:1002300080B400AFFEE700BF80B483B000AF786049
:1002400039603B6805331B781B023A680432127828
:100250001A437B681A643B6803331B781B023A68B5
:10026000023212781A437B685A643B6801331B7868
:100270001B023A6812781A437B689A6400BF0C37F5
:10028000BD4680BC704700BF80B483B000AF7860CB
:100290007B68D3F8003143F002027B68C3F8002189
:1002A00000BF0C37BD4680BC704700BF80B483B030
:1002B00000AF78607B68D3F8003143F001027B68BF
:1002C000C3F800217B681B6843F001027B681A6059
:1002D00000BF0C37BD4680BC704700BF80B483B000
:1002E00000AF78607B684FF480729A6100BF0C3772
:1002F000BD4680BC704700BF80B483B000AF78605B
:100300007B6800229A6100BF0C37BD4680BC7047F5
:1003100080B483B000AF78607B68D3F82C319BB297
:1003200018460C37BD4680BC704700BF80B483B010
:1003300000AF78607B68D3F814319BB218460C3755
:10034000BD4680BC704700BF80B483B000AF78600A
:100350007B6849F6404202FB03F37B6002E07B6866
:10036000013B7B607B68002BF9D100BF0C37BD4699
:1003700080BC704780B582B000AF454B1B6820221F
:100380000021184601F0A6FC424B1B6810220021F8
:10039000184601F09FFC404B1B68202200211846A4
:1003A00001F098FC3D4B1B6820220021184601F00B
:1003B00091FC3B4B00221A60394B00221A6000234B
:1003C0007B6026E0344B1A687B68DB00D1187A68C2
:1003D00013465B0013445B021A46324B13440B6016
:1003E0002D4B1A687B68DB00134440F2FF525A60C1
:1003F0002A4B1A687B68DB00134400221A60274BE3
:100400001A687B68DB00134400225A607B68013362
:100410007B607B68032BD5DD00237B601EE01C4BDB
:100420001A687B68DB00D1187A6813465B001344B6
:100430005B021A461C4B13440B60154B1A687B6811
:10044000DB00134400225A60124B1A687B689B0041
:10045000134400221A607B6801337B607B68032BA6
:10046000DDDD0B4B19680B4B1A6804234FF0A040DD
:1004700001F014F9084B1968084B1A6804234FF06F
:10048000A04001F029F900BF0837BD4680BD00BF7C
:10049000080000100C000010000000100400001004
:1004A0001000001070C0072070D8072080B584B0FD
:1004B00000AF78604FF0A040FFF738FF03467B8124
:1004C000154B1B689AB2798904234FF0A04001F0C4
:1004D00021F90346002B15D0104B1A680E4B1B68F0
:1004E000DB0013441B68FB600D4B1A680A4B1B684A
:1004F000DB0013441B68C3F30A03033B1A467B6803
:100500001A6004E07B6800221A600023FB60FB682D
:1005100018461037BD4680BD1000001000000010C6
:100520000400001080B500AF4FF0A04001F03AF990
:1005300003461A46014B1A6000BF80BD1000001030
:1005400080B582B000AF4FF0A040FFF7E1FE034658
:10055000FB800C4B1B6899B2FA8804234FF0A04033
:1005600001F0D8F80346022B07D0074B1A68054B59
:100570001B68DB0013441B6800E0002318460837A3
:10058000BD4680BD140000100800001080B582B088
:1005900000AF78607B68002B14DD0C4B1A680C4BA5
:1005A0001B68DB0013447A68013AC2F30A0242F086
:1005B00080425A604FF0A04001F0D6F803461A4638
:1005C000034B1A6000BF0837BD4680BD080000100D
:1005D0001400001080B582B000AF4FF0A040FFF7CC
:1005E00097FE0346FB80094B1B6899B2FA880423E7
:1005F0004FF0A04001F08EF80346002B01D10123FB
:1006000000E0002318460837BD4680BD14000010E6
:1006100080B400AF00BFBD4680BC7047B0B58CB0A1
:1006200004AF0023FB610123FB7501233B6000F055
:10063000FFFC00F0EFFA0021002000F0D3FA0121C6
:100640004FF0A04000F01EFF92494FF0A04000F094
:1006500083FF0346012219464FF0A04000F05AFFE5
:100660008D49012000F02AFC07F10803184600F02C
:10067000E3FA07F1080319464FF0A040FFF7DCFD4D
:10068000FFF778FE4FF0A040FFF7FEFD4FF0A040CF
:10069000FFF70CFEF5E03B1D1846FFF707FF38613A
:1006A0003B69002B5DD07D4802F02AF8FB7D83F08A
:1006B0000103FB75FB7D1946012000F093FA3B69AD
:1006C0001B7818463B6901331B781C463B69023393
:1006D0001B781D463B6903331B781A463B6904337C
:1006E0001B7819463B6905331B78029301910092F0
:1006F0002B46224601466A4802F002F83B6906335F
:100700001B7818463B6907331B781C463B69083346
:100710001B781D463B6909331B781A463B690A332F
:100720001B7819463B690B331B78029301910092A9
:100730002B46224601465B4801F0E2FF7B681946E2
:10074000594801F0DDFF3B690C331B781B023A6905
:100750000D32127813431946544801F0D1FFFFF7C8
:10076000E1FE00F029FA0346B3F1FF3F42D0FB69F6
:1007700003F00803002B3DD0FFF7E2FE38613B6930
:10078000002B37D00023BB6107E0BB693A691344F3
:10079000FF221A70BB690133BB61BB69052BF4DD15
:1007A0003B69063307F108010622184601F090FA6A
:1007B0003B690C3300221A703B690D3380221A709A
:1007C0000023BB6109E0BB690E333A691344BA697F
:1007D000D2B21A70BB690133BB61BB697F2BF2DDFA
:1007E0008020FFF7D3FE324801F08AFF012101206B
:1007F00000F0F8F9FFF7EEFE0346002B03D00021CE
:10080000012000F0EFF900F0AFFBF861FB6903F0A5
:100810000403002B35D0FB6903F00803002B20D024
:100820000121002000F0DEF9FB6903F02003002B1A
:1008300004D04FF0A04000F0FDFE03E04FF0A040D8
:1008400000F012FFFB6903F01003002B04D04FF0FF
:10085000A040FFF743FD08E04FF0A040FFF74CFD3C
:1008600003E00021002000F0BDF9FB6903F008035C
:10087000002B14BF01230023DBB219460D4801F001
:100880003FFF3B68002B7FF406AF0023184620375C
:10089000BD46B0BDA025260049030000004400006D
:1008A00014440000404400006C4400007C440000FC
:1008B0008C4400009C44000080B582B000AF054B22
:1008C0007B60054A7B681A6000F0FEF900BF0837BC
:1008D000BD4680BD08ED00E00000000080B582B09C
:1008E00000AF78600F2000F097FC00BF0837BD46CE
:1008F00080BD00BF80B582B000AF78600F2000F0EF
:100900008BFC00BF0837BD4680BD00BF80B483B0FC
:1009100000AF7860084611461A460346FB700B4646
:10092000BB7013467B707B78002B0FD0FB785B018C
:100930007A681344FA78520179680A449169BA785E
:10094000012000FA02F20A439A610EE0FB785B0193
:100950007A681344FA78520179680A44D169BA78FE
:10096000012000FA02F20A43DA6100BF0C37BD46EB
:1009700080BC704780B584B000AFF860B9601146A4
:100980001A460B46FB711346BB71BB68D9B2BB79E3
:10099000FA79F868FFF7BAFF00BF1037BD4680BD8F
:1009A00080B483B000AF78600B46FB701346BB7019
:1009B000FB785B017A681344FA78520179680A443B
:1009C0001168BA78012000FA02F20A431A6000BFE7
:1009D0000C37BD4680BC704780B483B000AF7860F0
:1009E0000B46FB701346BB70FB785B017A681344BF
:1009F000FA78520179680A441168BA78012000FA3D
:100A000002F2D2430A401A6000BF0C37BD4680BCD8
:100A1000704700BF80B582B000AF786008461146CD
:100A20001A460346FB700B46BB7013467B707B78FF
:100A3000002B06D0BA78FB7819467868FFF7B0FF2C
:100A400005E0BA78FB7819467868FFF7C5FF00BF64
:100A50000837BD4680BD00BF80B582B000AF78606A
:100A6000084611461A460346FB700B46BB701346F8
:100A70007B707B78BA78F9787868FFF7CBFF00BF96
:100A80000837BD4680BD00BF80B483B000AF78603A
:100A90000B46FB70FA787B681A6000BF0C37BD46C6
:100AA00080BC704780B483B000AF78607B681B68FF
:100AB000DBB218460C37BD4680BC704780B483B0AB
:100AC00000AF786039607B683A68DA6000BF0C3745
:100AD000BD4680BC704700BF80B483B000AF786073
:100AE0007B685B6918460C37BD4680BC704700BF09
:100AF00080B586B000AFF860B9607A6000237B6192
:100B000009E0BA687B6913441B78184600F03AF88C
:100B10007B6901337B617B687A699A42F1D37B6898
:100B200018461837BD4680BD80B500AF0123162298
:100B300000210248FFF790FF00BF80BD00C00920E0
:100B400080B483B000AF786000BF0C37BD4680BC76
:100B5000704700BF80B500AF0948FFF7F1FF0848B4
:100B600001F026F84FF4E131054801F075F8032152
:100B70000348FFF7A3FF024801F056F800BF80BD0D
:100B800000C0004080B582B000AF0346FB7100BFDB
:100B90000848FFF7A1FF034603F02003002BF7D01E
:100BA000FB7919460348FFF76FFF00BF0837BD46C2
:100BB00080BD00BF00C0004080B500AF0848FFF70F
:100BC0008BFF034603F00103002B04D00448FFF71A
:100BD00069FF034601E04FF0FF33184680BD00BFB8
:100BE00000C0004080B582B000AF03460A46FB71EA
:100BF0001346BB71FB79002B05D1BB79162200216E
:100C00000348FFF7B7FE00BF0837BD4680BD00BFF1
:100C100000C0092080B500AFFFF79CFF0448FFF734
:100C200069FE0448FFF75AFEFFF77EFF00BF80BD54
:100C300000C0092000C0024080B584B000AF7860D9
:100C4000084A07F108031068186092889A8007F133
:100C5000080306221946786801F03AF800BF1037F9
:100C6000BD4680BDC044000080B485B000AF0346DF
:100C7000FB71084B1B68C3F30B03FB60054AFB7950
:100C80001B031946FB680B43136000BF1437BD46B6
:100C900080BC704700C00F4080B500AF17220349E9
:100CA000034800F003FE00BF80BD00BFC844000041
:100CB00000C0024080B500AF00F092FE0420FFF7B4
:100CC000D3FF00BF80BD00BF80B500AFFFF7E4FFDA
:100CD000FFF7F0FF00BF80BD80B483B000AF786045
:100CE0007B685B6B03F00103002B14BF012300231F
:100CF000DBB218460C37BD4680BC704780B584B067
:100D000000AF03460A46FB711346BB800023FB730A
:100D1000FA23BB60BA88FB7919464FF0A04000F077
:100D200043FC12E04FF0A040FFF7D6FF0346002B34
:100D300007D0BB68013BBB60084B1B68012098478C
:100D400003E00023BB600123FB73BB68002BE9DCDD
:100D5000FB7B18461037BD4680BD00BF2400001045
:100D600080B584B000AF03463960FB710023FB738C
:100D7000FA23BB60FB7919464FF0A04000F032FC2B
:100D80001DE04FF0A040FFF7A7FF034683F00103EB
:100D9000DBB2002B0CD00023BB604FF0A04000F072
:100DA00039FC03461A463B681A800123FB7306E0B0
:100DB000BB68013BBB60064B1B6801209847BB68C2
:100DC000002BDEDCFB7B18461037BD4680BD00BF24
:100DD0002400001080B483B000AF03460A46FB80B5
:100DE0001346BB80FB8803F00403002B06D0314B75
:100DF0001B6843F008032F4A136005E02D4B1B6866
:100E000023F008032B4A1360BB8803F01C03082B54
:100E10001DD0142B0ED0042B26D0264B1B6843F07C
:100E20001003244A1360234B1B6843F02003214A1C
:100E3000136026E01F4B1B6823F010031D4A13604C
:100E40001C4B1B6843F020031A4A136019E0194B2E
:100E50001B6843F01003174A1360164B1B6823F0FE
:100E60002003144A13600CE0124B1B6823F010039C
:100E7000104A13600F4B1B6823F020030D4A1360C8
:100E800000BF0C4B1A680C4B1B68534003F038032F
:100E9000002B09D0074B1B68074A1360054B1B68E2
:100EA00043F00403034A136000BF0C37BD4680BC07
:100EB000704700BF180000101C00001080B584B0FF
:100EC00000AF03463960FB71234A3B681360234B34
:100ED00000221A60224B00221A60214B1B68214A13
:100EE00013604FF400410020FFF708FF0346012B79
:100EF00001D000232CE04FF4C873FB601AE0164BBE
:100F00001B680120984707F10A0319460020FFF7E4
:100F100027FF0346012B01D0002319E07B8903F44E
:100F20000843002B03D14FF0FF33FB6002E0FB6866
:100F3000013BFB60FB68002BE1DCFB68002B01D16F
:100F4000002305E04FF480510020FFF7D7FE012376
:100F500018461037BD4680BD240000102000001048
:100F6000180000101C00001098B500AF2D4B1B6836
:100F7000012B16D0022B2FD001214FF0A04000F002
:100F800031FB294B1B6823F00403274A1360264BCF
:100F90001B6843F00203244A1360224B01221A60AB
:100FA0003CE04FF0A040FFF797FE034683F00103BB
:100FB000DBB2002B2FD04FF0A04000F02BFB0346FC
:100FC0001A461A4B1A801F214FF0A04000F00AFB6E
:100FD000144B02221A601EE04FF0A040FFF77CFE87
:100FE000034683F00103DBB2002B16D00E4B1B68C7
:100FF00023F002030C4A13600C4B1C884FF0A040F6
:1010000000F008FB034619462046FFF7E3FE054BB8
:1010100000221A6001E000BF00E000BF024B1B6825
:10102000184698BD2000001018000010280000107D
:1010300080B500AF00F0D8F90246024B1A6000BF3D
:1010400080BD00BF8001001080B400AF064BD3F814
:10105000883003F08073002B14BF01230023DBB220
:101060001846BD4680BC704700C00F4080B400AF3A
:10107000064BD3F8883003F00073002B14BF012314
:101080000023DBB21846BD4680BC704700C00F404D
:1010900080B483B000AF0346FB71094AFB795B0162
:1010A00013448C33AA221A60054AFB795B0113446E
:1010B0008C3355221A6000BF0C37BD4680BC704788
:1010C00000C00F4080B400AF054BD3F80C31DBB249
:1010D00003F00303DBB21846BD4680BC704700BF77
:1010E00000C00F4080B400AF024B1B681846BD46DD
:1010F00080BC7047B844000080B400AF024B184673
:10110000BD4680BC704700BF00093D0080B400AF01
:10111000024B1B681846BD4680BC7047BC440000AB
:1011200080B500AF00F008F90346184680BD00BF47
:1011300080B584B000AF03463960FB710C4AFB797F
:1011400004335B0113441B68FB60FA683B6813437C
:10115000FB60074AFB7904335B011344FA681A60A9
:10116000FB791846FFF794FF00BF1037BD4680BDDE
:1011700000C00F4080B584B000AF03463960FB71FA
:101180000D4AFB7904335B0113441B68FB603B6829
:10119000DB43FA681340FB60074AFB7904335B01C9
:1011A0001344FA681A60FB791846FFF771FF00BF15
:1011B0001037BD4680BD00BF00C00F4080B586B06F
:1011C00000AF0346B9607A60FB73FB7B002B05D14F
:1011D0007B681A04BB6813437B6104E07B685A0197
:1011E000BB6813437B610B4AFB7B04335B011344F5
:1011F00004337A691A60074AFB7B04335B011344AA
:1012000001221A60FB7B1846FFF742FF00BF183728
:10121000BD4680BD00C00F4080B485B000AF03461E
:10122000FB71FB79FB600849074BD3F8C430012000
:10123000FA6800FA02F21343C1F8C43000BF143751
:10124000BD4680BC704700BF00C00F4080B582B073
:1012500000AFFFF70BFF0346002B02D00123FB7109
:1012600001E00023FB71FB7918460837BD4680BDBD
:1012700080B483B000AF7860044A7B68C2F8043160
:1012800000BF0C37BD4680BC704700BF00C00F4098
:1012900080B400AF044BD3F80431DBB201331846FD
:1012A000BD4680BC704700BF00C00F4080B487B00F
:1012B00000AF0346FB7101237B61FB795B003B615F
:1012C0003B6903F01F03FB603B695B093B61194A03
:1012D0003B696A3352F823307B617A69FB6822FAF2
:1012E00003F303F003037B617B69002B02D104232A
:1012F0007B6119E07B69012B02D101237B6113E043
:101300007B69022B02D102237B610DE0FB790D2B5F
:1013100005D0FB790E2B02D0FB790F2B02D10623CF
:101320007B6101E008237B617B6918461C37BD4661
:1013300080BC704700C00F4080B500AFFFF7C2FE11
:101340000346012B07D0022B09D0002B0BD1FFF74E
:10135000D3FE034608E0FFF7C5FE034604E0FFF7AF
:10136000D5FE034600E00023184680BD80B584B05A
:1013700000AF0023FB60FFF767FE0346002B18D089
:101380000E4BD3F88430C3F30E030133BB600B4B19
:10139000D3F884301B0CDBB201337B60FFF7C0FE57
:1013A0000246BB6803FB02F35A007B68B2FBF3F30F
:1013B000FB60FB6818461037BD4680BD00C00F407B
:1013C00080B500AFFFF742FF0346002B05D0012B8D
:1013D00007D1FFF7CBFF034604E0FFF7ADFF03465D
:1013E00000E00023184680BD98B500AFFFF7E8FF86
:1013F0000446FFF74DFF0346B4FBF3F3184698BDD0
:1014000090B583B000AF0346FB71FFF7EDFF0446D4
:10141000FB791846FFF74AFF0346B4FBF3F318467F
:101420000C37BD4690BD00BF80B500AFFFF7DCFFB5
:101430000346184680BD00BF80B483B000AF78601B
:101440007B684FF44F421A607B687822C3F8002112
:1014500000BF0C37BD4680BC704700BF80B584B06C
:1014600000AF78607868FFF7E7FF0023FB6002E0D9
:10147000FB680133FB60FB68632BF9D900BF1037B1
:10148000BD4680BD80B582B000AF78600B46FB7072
:101490001E20FFF7C1FE7868FFF7E0FF7B6802229D
:1014A0001A607B6831225A60FB78002B05D07B687C
:1014B0004FF4C862C3F8002104E07B684FF48862EF
:1014C000C3F800217B6815229A607B681222DA60DB
:1014D0007B684FF480729A617B684FF4C0625A61F6
:1014E0007B6843F20F721A617B68D3F8003143F0D6
:1014F00080027B68C3F800217B684FF6FF72C3F857
:10150000E82F7B680022C3F8E42F00BF0837BD46F0
:1015100080BD00BF80B485B000AFF860B9601346ED
:10152000FB71FB791B0203F4F8530A4A1360BB6892
:101530009B0003F03C0343F40042FB681A62FB6823
:101540001B6A23F40042FB681A6200BF1437BD46D1
:1015500080BC70472C00001080B584B000AF78606C
:1015600039600023FB60FFF75FFF02463B68B2FB78
:10157000F3F3BB600023FB600CE00A4AFB681344F2
:101580001B781A46BB689A4201D3FB6806E0FB68E9
:101590000133FB60FB680E2BEFD90E231846103782
:1015A000BD4680BD2445000080B483B000AF7860A4
:1015B0000B46FB7013463B807B6800225A62FB7827
:1015C00003F01F02064B1B681A437B689A623A8835
:1015D0007B68DA6200BF0C37BD4680BC704700BF35
:1015E0002C00001080B483B000AF78600B46FB7015
:1015F000FB7803F01F02064B1B681A437B689A6254
:101600007B6801225A6200BF0C37BD4680BC704720
:101610002C00001080B483B000AF78607B6800229B
:101620005A627B681B6B9BB218460C37BD4680BC68
:10163000704700BF80B483B000AF78607B685B68A0
:1016400043F001027B685A607B68D3F8003143F4B1
:1016500080627B68C3F800217B6815229A6000BF16
:101660000C37BD4680BC704780B483B000AF786053
:101670007B685B6823F001027B685A607B68D3F863
:10168000003123F480627B68C3F800217B6812225A
:101690009A6000BF0C37BD4680BC704780B485B0EF
:1016A00000AFF860B9607A603B60BA68FB68C3F865
:1016B0001C213B685A1EFB68C3F824217A68FB682A
:1016C000C3F82021FB680022C3F8282100BF14378B
:1016D000BD4680BC704700BF80B485B000AFF860E5
:1016E000B9607A603B60BA68FB68C3F808213B6860
:1016F0005A1EFB68C3F810217A68FB68C3F80C21F6
:10170000FB680022C3F8182100BF1437BD4680BC17
:10171000704700BF80B485B000AFF860084611463E
:101720001A4603467B810B463B811346FB803A8970
:101730007B899A4201D1002311E03B89002B06D11D
:101740007A89FB88013B9A4201D1022307E03A895A
:101750007B8901339A4201D1022300E0012318461C
:101760001437BD4680BC704780B485B000AF786048
:101770007B68D3F82831FB60FB680133FB607B6832
:10178000D3F82421FB689A4201D20023FB607B68D6
:10179000FA68C3F82821FB689BB218461437BD4687
:1017A00080BC704780B485B000AF78607B68D3F8A8
:1017B0001831FB60FB680133FB607B68D3F81021B4
:1017C000FB689A4201D20023FB607B68FA68C3F889
:1017D0001821FB689BB218461437BD4680BC704781
:1017E00080B586B002AFF8607B600B46FB72134693
:1017F000BB727B6898087B68DBB203F00303DBB243
:10180000BA7AF97A00930346F86800F005F800BF49
:101810001037BD4680BD00BF80B487B000AFF86010
:101820007B600B46FB721346BB72BB7A03F00F035F
:10183000DBB25B00FB75FB7A5B00DAB2BB7A1B099B
:10184000DBB21344BB75BA7DFB6853F82220FB7DE5
:10185000032101FA03F3DB4313403B61BA7D97F8A0
:101860002010FB7D01FA03F319463B691943FB681D
:1018700043F82210BA7DFB68103253F82220FB7D1A
:10188000032101FA03F3DB4313403B61BA7DFB7D87
:10189000796899403B691943FB68103243F822107C
:1018A00000BF1C37BD4680BC704700BF80B586B006
:1018B00000AFF860B9607A6000237B611FE07B694C
:1018C0009B00BA6813441B78C3F30203DBB21946CA
:1018D0007B699B00BA6813441B78C3F3C403DBB273
:1018E00018467B699B00BA6813441B68C3F317232F
:1018F0000246F868FFF774FF7B6901337B617A6900
:101900007B689A42DBD300BF1837BD4680BD00BF5D
:1019100080B400AF064BD3F8883003F08073002BFF
:1019200014BF01230023DBB21846BD4680BC7047BC
:1019300000C00F4080B400AF064BD3F8883003F0EE
:101940008063002B14BF01230023DBB21846BD4681
:1019500080BC704700C00F4080B400AF064BD3F886
:10196000883003F00073002B14BF01230023DBB287
:101970001846BD4680BC704700C00F4080B400AF21
:10198000054A054BD3F8A03143F02003C2F8A0313B
:1019900000BFBD4680BC704700C00F4080B400AFA0
:1019A000064BD3F8A03103F04003002B14BF0123F2
:1019B0000023DBB21846BD4680BC704700C00F4014
:1019C00080B483B000AF0346FB71044AFB79C2F8D0
:1019D0000C3100BF0C37BD4680BC704700C00F40C3
:1019E00080B500AFFFF7B8FF0346002B03D00221FC
:1019F0000020FFF7BFFBFFF78BFF0346002B03D050
:101A000001210020FFF7B6FBFFF7C8FF034683F074
:101A10000103DBB2002B01D0FFF7B0FF00BFFFF7DF
:101A2000BDFF034683F00103DBB2002BF7D100209A
:101A3000FFF71EFC0120FFF7C3FF00220F2100204B
:101A4000FFF7BCFB01210020FFF772FB0320FFF72B
:101A50000FFC00BFFFF76EFF034683F00103DBB20C
:101A6000002BF7D102210020FFF762FB00BF80BDF1
:101A700080B483B000AF786039607B683A689A6060
:101A800000BF0C37BD4680BC704700BF80B483B038
:101A900000AF786039607B683A68DA6000BF0C3765
:101AA000BD4680BC704700BF80B483B000AF786093
:101AB0007B68DB6843F080027B68DA6000BF0C372C
:101AC000BD4680BC704700BF80B483B000AF786073
:101AD0007B68DB6823F080027B68DA6000BF0C372C
:101AE000BD4680BC704700BF80B483B000AF786053
:101AF0000B46FB701346BB70FA787B681A60BA78A5
:101B00007B685A6000BF0C37BD4680BC704700BF81
:101B100080B485B000AF78607B680E4A934202D1F2
:101B20000423FB730FE07B680B4A934202D1182316
:101B3000FB7308E07B68094A934202D11923FB73C7
:101B400001E00323FB73FB7B18461437BD4680BCC2
:101B5000704700BF000001400080094000C00940FC
:101B600080B485B000AF78607B680E4A934202D1A2
:101B70000423FB730FE07B680B4A934202D11823C6
:101B8000FB7308E07B68094A934202D11923FB7377
:101B900001E00323FB73FB7B18461437BD4680BC72
:101BA000704700BF000001400080094000C00940AC
:101BB00080B584B000AF78607868FFF7A9FF03466E
:101BC0001846FFF729FB07217868FFF751FF78686F
:101BD00000F036F87B6800225A607B680022DA60E9
:101BE0007B6800221A627B680022DA647B6800222C
:101BF0005A657B6800221A657B680A4A934205D1C0
:101C00007B6800221A617B689B69FB60032178680E
:101C1000FFF73CFF7B6810229A6200BF1037BD4679
:101C200080BD00BF0000014080B483B000AF786089
:101C30007B6880221A6300BF0C37BD4680BC7047AA
:101C400080B483B000AF78607B6800221A6300BF65
:101C50000C37BD4680BC704780B586B000AF786059
:101C600039607868FFF77CFF03461846FFF7C8FB2A
:101C700078613B681B017A69B2FBF3F33B613B6916
:101C80001B0AFB60FB681B023A69D31ABB607868C9
:101C9000FFF70AFFBB68DBB2FA68D2B21946786870
:101CA000FFF722FF7868FFF70FFF7A693B69B2FB05
:101CB000F3F318461837BD4680BD00BF08B50022B3
:101CC0001146104600F046FDBDE80840FEF7A6BCF0
:101CD00002F04FBB02F067BB10B5425C4318342AD8
:101CE00001DC002010BD352A06D1194611F8012F5C
:101CF000302AFBD0002AF4D01A46302412F8011DF5
:101D0000392901D11470F9E7013111700278302AB4
:101D1000E7D01A1A002A03DB13F801299A70F8E7B2
:101D2000012010BD30B58C1F0A25A1420CD090FBBC
:101D3000F5F3C3EB4312C3EB8202303000EB4200F9
:101D400001F801091846F0E730BDFFFF0EB430B5C9
:101D5000054690B013AB53F8044B2822002106A887
:101D60000593FFF7B7FF0A2309936FF00043089329
:101D7000104B00940293059B4FF0FF32019306A88D
:101D80006FF00043069500F037FD089B0446013BC9
:101D9000002B089303DB069B00221A7003E006A9C0
:101DA000002001F024FC204610B0BDE8304003B014
:101DB000704700BFB91D00002DE9F04F144647F6EB
:101DC000F0724E689DB00693C6F30F4323F00F03E5
:101DD0005B040F685B0C93420590DDF89CB009979B
:101DE000079627D10023E370C6F313033B434FF05C
:101DF0006E0315D169226370002E4FF066032270C6
:101E0000A37001DAA64B10E0069B980706D4A54AFA
:101E100013F0040FA44B08BF134606E0A34B04E0E5
:101E200023706122A3709F4B6270269A0320136077
:101E300000F033BC059B23F02003412B00F03982D6
:101E4000002200233846314602F015FA38B106F177
:101E50000043099A1E46012317460A9300E00A90A0
:101E6000002200233846314602F0EFF9002840F006
:101E7000028240F22D150FAA3846314601F0B8FC17
:101E80000F9ACDE910015543A5F5AB531C3B4FF418
:101E90007A7593FBF5F50020AA1A854901F0D6FC66
:101EA000002DCDE91A0106DA77A3D3E900236E42AB
:101EB000CDE9162306E07F4B4FF00002CDE9162353
:101EC00016D02E46F10709D4DDE91601DDE9162307
:101ED00001F0F6FE7610CDE91601F3E7DDE9160113
:101EE000DDE91A2301F0ECFE012ECDE91A01EBD158
:101EF000DDE91001DDE91A2301F06AFFCDE91201E5
:101F0000DDE9120162A3D3E9002302F0B4F988B13C
:101F1000DDE912010022684B01F0D2FECDE9120189
:101F2000DDE91A010022644B01F052FF013DCDE9C9
:101F30001A01E5E7DDE9120157A3D3E9002302F016
:101F4000EEF988B1DDE9120100225B4B01F040FFA0
:101F5000CDE91201DDE91A010022574B01F0B0FE74
:101F60000135CDE91A01E5E7DDE9120102F022F9B8
:101F70006B4213EA250338BF2B4682460B930F9A18
:101F80005046AE1A02F059F9324601F05FFC0022C9
:101F90000023002DCDE91201CDE914232FDA3AA355
:101FA000D3E90023CDE9162300220023CDE918232D
:101FB000DDE91689DDE916014FF000084246DDE94A
:101FC00018674B4601F0A0FF32463B4602F06CF822
:101FD000CDE91801CDE91689DDE916010022354B5E
:101FE00001F06EFE02460B460020314901F08CFFE5
:101FF0000022304B01F0ECFECDE918010CE02D4B36
:102000004FF00002CDE916234FF000024FF000031D
:10201000CDE9182300F094800B9B0893089BDA0706
:102020004CD4DDE91623DDE91889DDE9186710468F
:10203000194602F039F842464B4602F035F832466E
:102040003B4601F03DFECDE91801DDE91601DDE971
:10205000162301F035FECDE91601DDE91689DDE92B
:1020600016014FF000084246DDE918674B4601F0C3
:102070004BFF3B46324602F017F8089BCDE91801AA
:102080005B10CDE91689C8E79A9999999999C93F42
:1020900000000000006AF8400000000080842E412B
:1020A00065450000B345000035450000334500009C
:1020B0000000F03F0000144000002440DDE912233E
:1020C000DDE91889CDE90C23DDE91601DDE91823E6
:1020D00001F0EAFFDDE9146732463B4601F0F0FD0E
:1020E000424606460F46DDE90C014B4601F0E8FD8D
:1020F00002460B463046394601F0D6FFCDE91401C1
:10210000DDE91601DDE9122301F0DAFDCDE9120166
:10211000DDE91289DDE912014FF000084246DDE9F0
:1021200014674B4601F0F0FE3B46324601F0BCFF1F
:10213000089BCDE91401012BCDE912897FF471AF21
:10214000DDE91201DDE9102302F0BFF810B90AF150
:10215000FF3A14E7DDE91223DDE9100101F0D4FEB6
:10216000CDE91001DDE91423DDE9100101F0CCFE19
:10217000CDE91001DDE91A23DDE9100101F028FEA7
:10218000A5A3D3E90023CDE91001DDE9100101F099
:1021900097FDCDE91001DDE9100102F00BF8DDE952
:1021A0001067804602F049F802460B463046394631
:1021B00001F0AAFE98A3D3E9002301F081FDCDE947
:1021C0001001DDE9100101F0F5FF0646002E06DAE8
:1021D00006F5742606F5107608F1FF38F6E7904A02
:1021E00096428F4B06DDA6F57426A6F5107608F10B
:1021F0000108F5E7B8F1000F06DA08F5742808F5CC
:1022000010780AF1FF3AF5E7984506DDA8F574283D
:10221000A8F510780AF1010AF6E7824B9A4511DC1D
:10222000013398FBF3F296FBF3F37F480A2100FB9E
:10223000028800FB036601FB0A2A01FB08384E43B3
:10224000013D1DE0764B9A451ADD0A229AFBF2F118
:102250006FF0090303FB01AA7448013500FB0A8AE9
:102260009AFBF2F803FB08A300FB0366053696FB16
:10227000F2F68A4604E00026B046B2466FF0040546
:102280002146302701F8067B5046FFF74BFD04F14D
:102290000C014046FFF746FD04F112013046FFF7FE
:1022A00041FD002323750A9B0535E77443EA850544
:1022B00000E00025EB0701D55D4B0AE0069B9F0778
:1022C00006D45C4A13F0040F5B4B08BF134600E0D2
:1022D0005A4B269A25F001051360042395FBF3F56C
:1022E000059BDBF80000612B10D006DC452B6DD080
:1022F000472B4DD0412B49D108E0059B662B00F0C0
:102300000581672B44D0652B40D15FE007990022FF
:10231000C1F3130309990A430799C1F30A5515B18B
:10232000A5F2FF3104E052EA0301454908BF00214C
:1023300088B9069E36070ED4002D0B464148059DF0
:1023400041490CBF30223122612D08BF0146204691
:10235000FFF7FCFC10E0002DCDE9002302910346BD
:102360003A493B48059D0CBF30223122612D08BF00
:1023700001462046FFF7EAFC2D4A2E4B079933EA27
:10238000210328BF1346269A136086E1672305932D
:10239000069B002843F400630693DCBF0123CBF8BF
:1023A0000030DBF8001020461129D4BF0131122182
:1023B000FFF792FCDBF8003005449D42C0F29F809D
:1023C000013BCBF80030059B023B0593DBF8003066
:1023D000112B05DD299A113B13601123CBF8003036
:1023E000069BDBF8006013F4006706F1020604D1D7
:1023F00031462046FFF770FC054463782370DBF814
:10240000003023B940F60803069A134013B32E2375
:10241000637020E0AFF300800000000080842E4154
:102420003F420F009F8601006079FEFF40420F008F
:1024300065450000B3450000354500003345000008
:1024400001FCFFFF374500003F45000056450000F6
:10245000474500000126299B1B68002BC2BF3E2375
:10246000A355013677B1069B1F070BD4A219161B83
:1024700012F8013D302BFAD03E2BF8D02E2B08BF9E
:1024800006F1FF369DF81430002DA355B8BF6D42FC
:1024900006F1020306F10102B5BF2D212B211E46D4
:1024A0001E46B5F57A7FA1540ADB4FF47A7295FB8C
:1024B000F2F202F13001E15479495E1C01FB025550
:1024C000632D0ADD642395FBF3F303F13002A2557B
:1024D0006FF0630202FB035501360A2395FBF3F309
:1024E000DBB203F13002A255C3EB4312C3EB82030C
:1024F0003035344405EB43036370B01CCDE02A1D36
:10250000FFF65EAF6A1C9B1ACBF80030069A002DCE
:10251000DBF8003002F400674CDAC5F100085A1C01
:10252000904509DD302323702E236370DBF80030E3
:10253000299A0226136038E02B449E1C122EC1BF3C
:10254000299A113B136013265FB931462046FFF7E5
:10255000C3FB30B17FEA050806F1010601D16378BB
:102560000DE0B8F1010F04EB06030CD11A1B002A91
:1025700003DD13F801299A70F8E701363023237040
:102580002E23637011E01A1B002A03DD13F80129C2
:10259000DA70F8E7302323702E236370289A3C23E7
:1025A000A37008F1FF3302361360299B1B68002BD0
:1025B00025DC59E005EB030808F10206122E3DDD8B
:1025C0003FB913212046FFF787FB10B101351426D0
:1025D00000E01326721E9542234614DA13F8012FE9
:1025E00003F8012C1A1B9542F8DA63192E225A704F
:1025F000DBF800301D44299B113D1D60A5B33E232F
:10260000A355013630E013F8011F03F8011C191B14
:102610008A42F8DCA3193C2203F8012CAD1B289B4D
:102620002E2202351D60A255DBF80020731CD2B1AA
:10263000299902360A603E22E25415E03FB931463C
:102640002046FFF749FB10B1013508F10306234688
:1026500013F8012F03F8012C1A1B9542F8DA2544D0
:102660002E236B7000E01E4677B1069B180713D42B
:102670002644301B16F8013D302BFAD03E2BF8D003
:102680002E2B0AD1013808E0DBF8003023B9069B75
:10269000190701D4701E00E030461DB0BDE8F08F70
:1026A00018FCFFFFF0B504460D461F4616468FB0D6
:1026B0002822002104A8FFF70DFB0A2307936FF0DF
:1026C000004306930D4B0494002402936A1E234694
:1026D0008DE8C00004A800F08FF8069B0546013B7A
:1026E000A342069302DB049B1C7003E004A920466E
:1026F00000F07DFF28460FB0F0BD00BFB91D0000FF
:102700000FB473B506AB53F8046B0121324668462B
:102710000193FFF7C7FF041E13DD651C284601F077
:10272000EFF8009068B1019B32462946FFF7BAFFE7
:10273000074B22460099D86BFEF7DAF9009801F0B2
:1027400043F9204602B0BDE8704004B0704700BFB6
:102750003400001070B54FF4A07200212048FFF73C
:10276000B9FAC02001F048F91E4CC02200211C4DCE
:1027700020602826FFF7AEFA20680023182406FB05
:10278000035204FB03010133082B5162F7D1144AB1
:102790001549002000F0CBFF4FF480534FF48062C6
:1027A00000210F4800F0BCFE104A1149012000F042
:1027B000BEFF4FF480534FF4806200210B4800F0BD
:1027C000AFFE0C4A0A49022000F0B1FFBDE870409C
:1027D0004FF480534FF480620021064800F0A0BE01
:1027E0003400001030000010674500005C0000104D
:1027F00069450000840000102DE9F04F0546B1B096
:10280000CDE90A23DDF8EC8000223A9B0492187887
:1028100003F1010A002800F07E86252801D100245A
:102820001FE0049BDDE90A671946DA175C1C1346B2
:10283000B142BB4180F26586AB68013B002BAB60C7
:1028400005DB2B685A1C2A60187000F05ABE294616
:1028500000F0CDFE00F055BE09D92D2F0ED144F069
:10286000010453461AF8017B2B2FF5D10BE0202FE2
:102870000CD0232F0DD144F00804F2E7302F08D1FB
:1028800044F40074EDE744F00204EAE744F0040481
:10289000E7E72A2F02D000260A2211E0D8F80060CC
:1028A00008F10402002EBCBF764284F0010403F15B
:1028B000020A5F78904608E002FB06361AF8017BB0
:1028C000A7F13003D9B20929F6D926EAE6732E2FEB
:1028D0000E931DD19AF800702A2F08D1D8F80090D5
:1028E0009AF8017008F104080AF1020A0AE00AF1F4
:1028F000010A4FF000090A22A7F13003D9B20929D1
:1029000040F20386B9F1000F02DB44F0100401E04D
:102910004FF000096C2F0ED19AF800706C2F03BF96
:102920009AF8017044F060040AF1020A0AF1010AFF
:1029300018BF44F020044C2F01D0712F04D19AF815
:10294000007044F060041CE0682F0FD19AF800700A
:10295000682F03BF9AF8017044F480740AF1020AE8
:102960000AF1010A18BF44F080040CE06A2F02D17A
:1029700044F0400403E07A2F01D0742F03D19AF879
:1029800000700AF1010A672F1CDC652F80F2B28209
:10299000472F00F0AF8209DC412F00F0A582452FC0
:1029A00000F0A882002F00F0BF8027E0612F00F028
:1029B0009B8203DC582F00F0A8811FE0632F17D003
:1029C000642F09E0702F00F0F68108DC6E2F00F014
:1029D000B18000F3FB81692F00F04F820EE0752F6C
:1029E00000F01882782F00F0BB81732F06D1C4E06D
:1029F00008F104030793D8F8007001E0CDF81C80BB
:102A00000E9B14F0010603F1FF3308933CD10E9A9C
:102A100014F4007FA2F10204049A18BF3023104678
:102A20004FEAE2710A460146CDE90E1208BF2023A3
:102A30004FF000084FF00009049AB4EB080142443B
:102A4000089120D4DDE90E01DDE90ABC10EB080095
:102A500041EB0901584571EB0C020FDAAA68013A03
:102A6000002AAA6004DB2A68511C2960137005E063
:102A700018462946089300F0BAFD089B18F1010892
:102A800049F10009D8E70492049B1946DA175C1C47
:102A900013460A46DDE90A0182428B410DDAAB6832
:102AA000013B002BAB6004DB2B685A1C2A601F70B3
:102AB00003E02946384600F09AFD002E00F01D85FF
:102AC0002246089B002603F1FF380027E3174FF04A
:102AD0002009C6EB080100291FDBDDE90ABC9019BB
:102AE00043EB0701584571EB0C0112DAA968013973
:102AF0000029A96005DB2968481C286081F800903E
:102B000007E029462020CDE9042300F070FDDDE92F
:102B10000423013647F10007DBE7089B002BA8BF21
:102B2000E418234600F0E7BC0AF1FF3ACDF81C8018
:102B300000F0E4BC08F1040314F0400F0793D8F848
:102B4000003006D0049A1046D117C3E9000100F006
:102B5000D5BCA7060DD4E60504D59DF810201A7043
:102B600000F0CCBC240604D5BDF810201A8000F07B
:102B7000C5BC049A1A6000F0C1BC08F104030793B5
:102B8000B14AD8F80030002B08BF13461846089306
:102B900000F0E6FC14F0100F0746089B02D04845F1
:102BA000A8BF4F460E9AD61B14F0010208923DD1E1
:102BB000049914F4007F4FEAE17C08466146CDE9B0
:102BC0000E0114BF302220224FF000084FF0000900
:102BD000741EC8EB0401002922DBDDE90E01DDE9EA
:102BE0000ABC10EB080041EB0901584571EB0C01E0
:102BF00011DAA96801390029A96004DB2968481C99
:102C000028600A7007E0104629461E931C9200F0C7
:102C1000EEFC1E9B1C9A18F1010849F10009D8E747
:102C2000049A26EAE67632440492A61B049A4FF0F0
:102C300000081046D1170A460146CDE90E124FF0A2
:102C40000009474523DDDDE90E01DDE90ABC10EB93
:102C5000080041EB0901584571EB0C0212DAAA6831
:102C6000013A002AAA6003EB080205DB2968481C28
:102C7000286012780A7005E0294610781C9300F04D
:102C8000B6FC1C9B18F1010849F10009D9E7049B27
:102C9000002FA8BFDB190493089B002B00F02E84A3
:102CA000049B4FF000081946DA1713460A464FF006
:102CB0000009741E2027C8EB0401002920DBDDE990
:102CC0000ABC12EB080043EB0901584571EB0C01FB
:102CD00011DAA96801390029A96004DB2968481CB8
:102CE00028600F7007E029462020CDE9082300F076
:102CF0007EFCDDE9082318F1010849F10009DAE753
:102D0000049B002EA8BF9B19F5E3600609D508F1C6
:102D1000070828F0070808F108030793D8E900BC62
:102D200007E0D8F8002008F10403934607934FF01A
:102D3000000C210602D51FFA8BFB03E0E20503D548
:102D40000BF0FF0B4FF0000C404914F0080F404807
:102D500008BF0846E30640F1EA8024F40074E6E088
:102D6000660609D508F1070828F0070808F10803E6
:102D70000793D8E900BC07E0D8F8002008F1040365
:102D8000934607934FF0000C200602D51FFA8BFBE9
:102D900003E0E10503D50BF0FF0B4FF0000C2B49CE
:102DA00014F0080F2B4808BF0846E20640F1C18026
:102DB00024F40074BDE0D8F8002008F10403079360
:102DC00093464FF0000C24492248B5E0630609D52C
:102DD00008F1070828F0070808F108030793D8E965
:102DE00000BC07E0D8F8002008F1040393460793DD
:102DF0004FF0000C260602D51FFA8BFB03E0E0051E
:102E000003D50BF0FF0B4FF0000C14F0080F0F4927
:102E100012485EE0610609D508F1070828F00708A6
:102E200008F108030793D8E900BC07E0D8F80020B0
:102E300008F10403934607934FF0000C22060FD5C8
:102E40001FFA8BFB10E000BF6B450000B34500008C
:102E500072450000754500008B4500007845000074
:102E6000E30503D50BF0FF0B4FF0000C14F010013D
:102E700061D024F4007400215DE0660609D508F1F4
:102E8000070828F0070808F108030793D8E900238A
:102E900005E0D8F8002008F104030793D3172006B3
:102EA00001D512B202E0E10501D552B2D317002AD2
:102EB00073F1000105DAD2F1000B63EB430CB1486A
:102EC0000BE09346A2079C4606D4AF49AF4814F0E6
:102ED000040F08BF084600E0AD4814F010012BD0E5
:102EE00024F40074002127E0E3065CBF44F01004E2
:102EF0004FF00D0914F0100F08F1070828F007082B
:102F000008BF4FF0060914F0200144F4806008F176
:102F1000080318BF002107930446D8E900234FF0A7
:102F2000000BCDE926234FF0000C084604E0994938
:102F300002E0994900E09448049EDDE90A23921BCF
:102F400063EBE673CDE9082323904FF0FF30249024
:102F50002590CDF8889000204FF0550328AE83557A
:102F600001302028F8D114F4826F04BF0120229090
:102F7000672F14DC652F80F2BC80472F00F0B980EA
:102F800006DC412F00F0B580452F40F0C280B0E054
:102F9000612F00F0AE80642F11D0582F0CE0702FFD
:102FA00010D006DC692F0AD06F2F40F0B2800021CC
:102FB0001DE0752F03D0782F40F0AB8002E0002693
:102FC0000A2728E000205BEA0C03804600F0A3807B
:102FD0000BF00F068F5D28AE87554FEA1B1646EAA9
:102FE0000C764FEA1C17B346BC460130EBE75BEAB0
:102FF0000C03884600F08F800BF00700303028AEBD
:1030000088554FEADB0040EA4C704FEADC06834605
:10301000B4460131EBE75BEA0C03B0467BD05FEAD4
:103020005C014FEA3B004FEA9B0343EA8C73189321
:103030004FEA9C031993DDE9182312184B411946F6
:103040001046130943EA017310930B091193DDE94C
:10305000102312184B4119461046130A43EA016324
:1030600012930B0A1393DDE9122312184B411946F0
:103070001046130C43EA014314930B0C1593DDE93E
:10308000142312184B41104619461A9300231B9320
:10309000DDE91A2312184B411946D30843EA41735C
:1030A0000C93CB080D930C9B1BF10600A3FB078927
:1030B0000D9B4CF1000107FB0399B0EB080061EB9D
:1030C0000901030943EA017316930B091793DDE91C
:1030D0001623DDE90C01801859410BF1300200EB99
:1030E0008003A2EB430228ABF254834601368C46A0
:1030F00091E725AB039324AB029322AB019323AB5F
:10310000009328AA234626A938463C9EB04780460D
:1031100001E04FF0000814F480631C930ED00023EC
:103120002293249B002BC4BF03F1FF332293259BE2
:10313000002B09DD229A013B134404E0229BB3EBF0
:10314000080348BF00232293229E239800F008FA28
:103150000E9B46449E1B04F001030E9340F2012394
:103160002340361A2BB900220023771E4FF0200986
:103170001DE04FF000094846C11700220023CDE9A9
:103180001E013EE065450000B345000035450000E6
:10319000334500007A4500008B450000DDE9080159
:1031A000824273EB010106DB013243F10003B91ADD
:1031B0000029F3DA13E0A96801390029A96005DBC9
:1031C0002968481C286081F80090EDE729462020F6
:1031D000CDE91E2300F00BFADDE91E23E4E726EA21
:1031E000E679C9EB0706C6E7DDE91E0180185941FB
:1031F000DDE908BC584571EB0C010DDB013243F1F0
:103200000003239909EB0207481C239091F800E082
:10321000BEF1000FE8D113E0A96801390029A960C7
:1032200005DB2968481C286081F800E0E6E72946AC
:103230007046CDE9202300F0DAF9DDE92023DDE74F
:103240000E9B002B35D13846F917CDE91E0114F439
:10325000007F14BF4FF030094FF0200900220023F7
:10326000741EA11A002920DBDDE91E01DDE908BC7E
:1032700080185941584571EB0C0112DAA9680139DF
:103280000029A96005DB2968481C286081F80090A6
:1032900007E029464846CDE9202300F0A8F9DDE9FA
:1032A0002023013243F10003DBE726EAE6763744C8
:1032B000A61B1C9B43B93846F91700220023CDE911
:1032C0001C014FF030098FE00024A04540F3DE8060
:1032D00028ABE05C3C2808D03E285FD13846F9177F
:1032E00000220023CDE91C013BE03846F917CDE967
:1032F0001C0100220023249907EB0209013900294F
:10330000249161DBDDE91C01DDE908BC801859412D
:10331000584571EB0C0113DAA96801390029A9603D
:1033200006DB2968481C28604FF03000087007E071
:1033300029463020CDE91E2300F059F9DDE91E238E
:10334000013243F10003D6E7DDE91C018018594141
:10335000DDE908BC584571EB0C010ADB013243F191
:103360000003259907EB0209013900292591EBDAC1
:103370002AE0A96801390029A96006DB2968481CF0
:1033800028604FF030000870E8E729463020CDE98A
:103390001E2300F02CF9DDE91E23DFE7DDE908BC80
:1033A000FB175F4573EB0C0307F101090CDAAB68FF
:1033B000013B002BAB6004DB2B685A1C2A601870A1
:1033C00002E0294600F013F901344F467DE7DDE9BC
:1033D0001C0180185941DDE908BC584571EB0C010E
:1033E00009DB013243F100032299BC18013900299D
:1033F0002291ECDA13E0A96801390029A96005DB04
:103400002968481C286081F80090EAE729463020A6
:10341000CDE91E2300F0EBF8DDE91E23E1E72046AD
:10342000E11730ABCDE91C0103EB0807213F002277
:103430000023C2EB0801002922DDDDE91C01DDE9E2
:1034400008BC80185941584571EB0C0112DAA96883
:1034500001390029A96005DB2968481C28603878F3
:10346000087007E029463878CDE91E2300F0BFF840
:10347000DDE91E23013207F1FF3743F10003D8E7EE
:10348000B8F1000FACBF04EB0807271C0E9B83B3F9
:103490003A464FF000084FF00009741EFB17C8EBC6
:1034A0000401002922DBDDE908BC12EB080043EB34
:1034B0000901584571EB0C0113DAA968013900299B
:1034C000A96006DB2968481C28604FF020000870BE
:1034D00007E029462020CDE90E2300F088F8DDE939
:1034E0000E2318F1010849F10009D8E7002EA8BF02
:1034F000BF19049B3B44049300E00494DDF81C8056
:10350000049C04945346FFF782B902FB09391AF868
:10351000017BFFF7F1B9049831B0BDE8F08F00BF2F
:1035200070B5C468A50717D0B2F5007F09D0B2F511
:10353000806F03D0B2F5807F0ED102E0416A012393
:1035400003E0064D5E1EAE4206D8224301610160D3
:10355000C361C260002070BD012070BDFEFFFF008E
:1035600010B5421C830705D010F8013B002BF9D1A0
:10357000801A10BD034650F8041BA1F1013424EA5F
:10358000010414F0803FF5D011F0FF0F0AD011F4C0
:103590007F4F05D011F47F0F14BF0346033302E0C1
:1035A000023300E00133981A10BDC36810B523F050
:1035B0002003C360436A82695B6804469A420FD065
:1035C00000F0EAF8E368626A23F4405323F0100342
:1035D00043F01003E3605368A361236993602360A1
:1035E000E36823F4804323F04003E36010BDF8B5A3
:1035F000CB68064623F400229F060C46CA6002D51B
:103600000846FFF7D2FFA168E3684D1C0DDA980564
:103610000BD443F49033E3606FF001022368521A35
:10362000A2605A1C22601E707FE041F28A021A409A
:10363000022A1D4605D0002243F08003A260E36009
:1036400051E04AF210011940B1F5004F0AD10021B2
:10365000204600F02FFAE368990602D52046FFF7CE
:10366000A4FFE56845F4903315F4706FE3601CD156
:10367000606900F0B8FE50B16A0508D5636A23613D
:1036800023600123E36145F49233E3600DE04FF4DE
:10369000805000F0B1F94FF48053E268E36145F4E3
:1036A00094331A4320612060E26013F4106F2168A4
:1036B00025691BD0636A9B688B422CBFC5EB030155
:1036C000C5EB010149B9636A6A1C9A602260E2692C
:1036D000511EA160DA602E7027E02246284600F0D5
:1036E000DBF80028EFD04FF0FF30F8BD4A1C226015
:1036F0000E70676A2268B9688A422CBFC5EB020166
:10370000C5EB0101E2695B05FA6004D4F0B20A2856
:1037100001D091420ADB0023BD6022462560A360F0
:10372000284600F0B9F80028DDD1F0B2F8BD70B538
:103730000D4606461046144600F06EF92B78722BA3
:103740000AD0772B05D0612B22D1082348F2020240
:1037500004E00423022201E00023012215F8011FE6
:103760002B2906D0622909D142F0040243F001035B
:10377000F4E742F0030243F00203EFE71B07E260C5
:10378000666107D502220021204600F093F901E08E
:10379000002070BD204670BD38B50446436A0569F7
:1037A0000168C0689B6820F40022E26000F0820299
:1037B000022A02D04FF0FF3038BD10F4803016D00E
:1037C000994238BF19468D4209D1636A00209D6035
:1037D000E368256023F48033A060E36038BD2246AF
:1037E000491B284600F058F80028EED0E2E738BD23
:1037F000F8B515460023002206460F4600F025FDC9
:1038000020B100232B6000200021F8BDC7F30A532C
:1038100030463946A3F2FE348BB93246C7F3130360
:10382000D70F03F4002647EA4303C3F31303520000
:103830001EB163F31301104601E0013CF0E740F2D2
:10384000FE332C6063F31E51F8BDFFFF70B50023FB
:103850001646002204460D4600F0F7FC10B1002089
:10386000002170BD40F2FE73C5F30A5232449A4201
:103870002046294606DD064B22221A60054BD3E975
:10388000000170BD002AEADD62F31E5170BD00BF69
:1038900074010010B84500002DE9F041D56880465C
:1038A000EB020E461446576905D5384600F098FDE0
:1038B00045F01005A061114B2B4053B1A16938466A
:1038C00000F097FD002810DB25F4003525F01005E9
:1038D000E560324641463846FDF70AF920F00043DC
:1038E000F61AA3691E44A66128B1E3684FF0FF30C1
:1038F00043F08003E360BDE8F08100BF10000200E8
:10390000F8B5304F3C68A0B1C51CAD08002605F1E4
:103910000A0E05F1030C05E02368B3F1805F14D0B3
:103920002646A468002CF7D10C3000F07BF9431C2C
:1039300010D10020F8BD1168B1F1805F15D1516838
:103940000B44033363609368A360A2686368002A32
:10395000F1D10AE04FF0005380E8280084600EB9EE
:10396000386000E0B0600C30F8BD9D4207DC634574
:1039700005DC20464FF0005340F80C3BF8BD734582
:1039800011D920464FF00051656040F80C1B00EB48
:103990008501A1604FF0805440F825405D1B033D38
:1039A0004D608A60F8BD002ABAD1A0EB830000F018
:1039B00039F90130BDD04FF0005384E8280004F1FC
:1039C0000C00F8BD78010010A8B14FF0805340F80A
:1039D0000C3C50F8042C72B11368B3F1805F0AD12B
:1039E000536850F8081C0B44033340F8083C9368B4
:1039F00040F8043CEDE7704710B5FFF781FF04463F
:103A000028B917220349FDF773F800F0E5FC2046BA
:103A100010BD00BF9C4500002DE9F041C56888B08D
:103A2000A9070446466A28D02A0719D4D0F814807A
:103A3000076900F027F8404600F0CFFC2B0502D5BF
:103A40003846FFF7C1FFAD0DAD0515F1A54F07D104
:103A50002022216A684600F0CFFC684600F0D8F8C2
:103A600018220021606AFEF735F92822002120463D
:103A7000FEF730F96662002001E04FF0FF3008B039
:103A8000BDE8F08170B5044618B1BDE8704000F0A3
:103A9000E9B80546064E301900F0E4F8283400284D
:103AA00018BF4FF0FF35B4F5A07FF4D1284670BDA4
:103AB000340000102DE9F843C668414B04463340FA
:103AC0000D469046002B77D0D0F81490484600F071
:103AD0008AFC074600286FD1B8F1010F06D0B8F173
:103AE000020F08D0B8F1000F66D129E0204600F09F
:103AF00069F8054424E0484600F072FCB0F1000E7D
:103B0000D4F80CC004DA4CF08001E160012754E0E5
:103B1000606A83681A46A3691946236893422CBFDA
:103B2000C918891823691CF0200FA1EB030303D0E7
:103B300042689342B8BF13467345ACBFED18754455
:103B4000002D39DB16F4005F626A04D023689168A7
:103B5000994238BF9360A1698D4210DB2068936859
:103B6000D4F810E0834238BF03465818CEEB00006B
:103B7000854204DCD06801EB000C654506DB0023C0
:103B8000A360636046F0200655600FE06D1AB10730
:103B900044BF281AA060F20744BFCEEB0303EB1A20
:103BA000754448BF6360256026F0200626F403268E
:103BB00026F04006E66000E002273846BDE8F883BC
:103BC00003001000C3689A0705D1104B21221A6028
:103BD0004FF0FF30704713F4002F03F020030AD09A
:103BE00013B1436A586804E00268836900691344AA
:103BF000181A0138704713B1436A58687047026851
:103C0000836900691344181A704700BF74010010DB
:103C100010B50446FFF7A4FC01462046BDE810405D
:103C200000F0E4BB38B50C4B1A680AB90B4A1A60AD
:103C3000C41C1D6824F003042C44204600F034F812
:103C400018B9054B28461C6038BD054B0C221A607C
:103C50004FF0FF3038BD00BF7C0100108401001020
:103C600074010010C26870B512F00303044619D045
:103C7000930604D5436A5D68FFF797FC04E0056886
:103C800083692B4405695D1BE368204623F4405398
:103C9000E360FFF781FD0646002229462046FFF734
:103CA00009FF3346184670BD044B23B1984234BF18
:103CB0000020012070471846704700BF0000000038
:103CC0002DE9F04FC1F30A5681EA0304002E58D0C3
:103CD00040F2FF77BE4254D0C3F30A55002D50D0B6
:103CE000BD424ED006EB050EC1F31301550D41F454
:103CF000801145EAC323D20243F00045A1FB02AB89
:103D0000A2FB00234FF0000913EB0A0849F1000958
:103D1000E0FB0589002719EB0B0647F10007E5FBDF
:103D20000167B7F5801F04F0004448EA920809D201
:103D3000B6194FEAD873AEF5806E7F411E434FEA45
:103D4000480801E0AEF2FF3E40F2FD724FEAD87340
:103D5000F61847F10007B8F1004F334608BF26F0C8
:103D60000103964505D83C4304EB0E511846BDE8C7
:103D7000F08FBEF1000F0EDB44F0FF4444F4E0048A
:103D800009E0490011F5001F04F0004407D25A0071
:103D900012F5001F04D200202146BDE8F08F09D1A2
:103DA0005B0013F5001F05D8490D490511B15B0DE6
:103DB0005B051BB900200549BDE8F08F44F0FF44C6
:103DC000002044F4E001BDE8F08F00BF0000F87F60
:103DD0002DE9F043C1F30A56002E58D040F2FF7788
:103DE000BE4254D0C3F30A54002C50D0BC424ED033
:103DF000C4EB060E460D81EA030446EAC12141F0F8
:103E00000047510D41EAC32343F00049C6024FEA7F
:103E1000C2284F4508BF464502D20EF2FD3104E0EC
:103E20007F084FEA36060EF2FE315FEA59094FEA83
:103E30003808352300224F4508BF46454FEA420265
:103E400005D3B6EB080667EB090742F00102B61985
:103E50007F41212B08BF1546013BECD14F4508BFE0
:103E6000464502D3013208BF013540F2FD70814260
:103E700004F0004303D803EB0153591922E0002951
:103E8000A4BF43F0FF4343F4E003002034E04800C4
:103E900010F5001F03D85C0014F5001F01D90020A5
:103EA0002DE041EA0302C2F30A5255051AB9154939
:103EB0002846BDE8F083420D4B40520503F0004315
:103EC0001AB919461046BDE8F083620D520522B9B1
:103ED00043F0FF4343F4E001F4E714F5001F06D07C
:103EE00043F0FF43002043F4E001BDE8F08310F508
:103EF000001F4FF0000002D01946BDE8F0830149D1
:103F0000BDE8F0830000F87FF0B491EA03040546B1
:103F10000E4605D503F100452B46F0BC00F0C4B8B1
:103F2000994203D3904208D8994206D1554004F1F2
:103F300000416A404E404B40554040F2FF70370D03
:103F400027F400618142A7EB135400F09C808C425F
:103F500000F09680C6F31301C3F313031F2C41F442
:103F6000801143F480134ED823FA04F0091A22FA80
:103F700004F0C4F12004A3401843281A854238BF36
:103F800001F1FF3112FA04F304D05B42451E10B96F
:103F9000013900E0054611F4C01F51D1EA0FDB0FD3
:103FA00042EA410243EA450352EA030469D0BD1ED6
:103FB000510B05D1190E41EA02221B02083DF7E719
:103FC000510C01BF190F41EA02121B01043DD10C33
:103FD00001BF990F41EA82029B00023D110D04BF0F
:103FE000D90F05F1FF354FEAD72404BF41EA420259
:103FF0005B00B4EBD52F4FF0000006BF02EB05517C
:104000001846E1074BE0352C1AD8203C23FA04F07F
:10401000281A8542C4F1200538BF01F1FF3122FA88
:1040200004F4AB40120643EA040302D043F0FF035A
:1040300000E023B15B42451E10B9013900E005469E
:10404000CA020DD4013F7A0507D0EA0F42EA4101C6
:10405000DA0F42EA45055B0002E0390510461EE032
:10406000002B21F480124FEA075407DA013508BF0C
:104070000132B3F1004F08BF25F00105A1180DE092
:104080005CB9214607E033034FF0000001D0054939
:1040900005E014B90349204601E031462846F0BC4A
:1040A000704700BF0000F87F70B491EA0305044632
:1040B0000E4605D503F100452B4670BCFFF724BF23
:1040C000994204D2544062406E406B40544040F2EA
:1040D000FF75300D20F40061A9425ED0A0EB1355AE
:1040E0008D4255D0C6F31301C3F313031F2D41F4C2
:1040F000801143F480130ED823FA05F6314422FAD6
:1041000005F6C5F12005AB403343E41828BF013163
:1041100002FA05F312E0352D10D8203D23FA05F6FA
:10412000A419C5F1200603FA06F322FA05F528BF03
:1041300001312B43120618BF43F0FF038A0215D545
:10414000013408BF01310BB924F00204050505EB69
:1041500051056B0013F5001F04D2C9072B4641EA35
:10416000540212E0431C190500201EE0002B00F150
:10417000FF3007DA013408BF0131B3F1004F08BF47
:1041800024F00104224601EB0053104619460CE0CE
:104190004DB906F00041284607E033034FF0000018
:1041A00001D0034901E03146204670BC704700BF92
:1041B0000000F87FCB0243EA50500B0DC3F5836338
:1041C000063340F00040FF2B20FA03F011D913F41E
:1041D000E06F01D14042704711F0804009D04B00A0
:1041E00013F5001F04D8C80F00F1004001387047D4
:1041F0000020704710B9034602461BE0030C0CBFB9
:10420000000401F18071030E0CBF000201F50001F2
:10421000030F0CBF000101F58001830F0CBF80006C
:1042200001F500110028ACBF400001F5801101EB41
:10423000E023420510461946704710F0004118BFB0
:10424000404201F18041FFF7D5BF10B54C0050EA64
:10425000040E02D152EA430E09D0994209D190428C
:1042600007D114F5001F8CBF0020012010BD0120D4
:1042700010BD002010BD30B5054651EA03000BD437
:10428000580010F5001F1ED899421AD31BD1954231
:104290002CBF0020012030BD480010F5001F12D8AF
:1042A0005C0014F5001F0ED8284302D152EA040026
:1042B0000AD0994205D806D1954294BF002001202A
:1042C00030BD012030BD002030BD30B551EA0304BF
:1042D0000BD45C0014F5001F1FD899421BD31CD1CE
:1042E00090428CBF0020012030BD4D0015F5001F0D
:1042F00013D85C0014F5001F0FD899420BD801D1D8
:10430000904208D250EA050307D152EA04030CBFD9
:104310000120002030BD012030BD002030BD30B56F
:1043200051EA03044FEA41040AD414F5001F1ED8D1
:1043300099421AD81BD1904234BF0020012030BDD1
:1043400014F5001F13D85D0015F5001F0FD8994212
:104350000BD301D1904208D950EA040307D152EAA5
:1043600005030CBF0120002030BD012030BD00201E
:1043700030BD40EA0103DB0703460CD40346043A90
:1043800022BF51F804CB43F804CBB2F10402F7D2B8
:10439000043208BF7047013A24BF11F801CB03F87B
:1043A00001CBF8D87047034613F0030F0ED101F08C
:1043B000FF0141EA012141EA0141043A24BF43F8E7
:1043C000041BB2F10402F9D202F10402013A24BF43
:1043D00003F8011BFAE77047FEE74FF0FF30704724
:1043E0004FF0FF3070474FF0FF3070474FF0FF3015
:1043F00070474FF0FF3070474FF0FF307047FFFFBE
:104400005061636B65742072656365697665643AB3
:10441000200000002D44657374204D41433A20254F
:104420003032783A253032783A253032783A2530B1
:1044300032783A253032783A253032782D00000033
:104440002D536F75726365204D41433A20253032FC
:10445000783A253032783A253032783A2530327839
:104460003A253032783A253032782D002D5061636C
:104470006B6574206C656E3A202564002D5479704C
:10448000653A20253034780D0A0000005061636BD6
:1044900065742073656E7421200D0A004C696E6B83
:1044A00020636F6E6E656374207374617475733A04
:1044B0002025640D0A00FFFF001BB70000800000EC
:1044C000006037123456FFFF000A0000080A00009F
:1044D000200A0000280A0000B0080000B809000007
:1044E000D00A0000010900000909000021090000AC
:1044F000410900004909000051090000710900004C
:10450000790900008109000089090000D90900002B
:104510001A08000078080000220800008008000047
:10452000880800000406080A0E141C24282C3034C5
:10453000383C402B00200030782563702564003023
:1045400058256350256400307825632E252E2A6C6B
:104550006C7870256400305825632E252E2A6C6CEB
:1045600058502564002D0072007700286E756C6C21
:104570002900305800307800300030313233343583
:1045800036373839414243444546003031323334BE
:104590003536373839616263646566002A2A2A2015
:1045A0005F437379735F616C6C6F63206661696CE4
:1045B00065640A00FFFFFFFFFFFFFFFFFFFFEF7FC4
:1045C00000C0072020C0072040C0072060C007208F
:040000030000017187
:00000001FF
