:10000000008000101D010000F5000000F900000054
:10001000FD000000010100000501000000000000DB
:10002000000000000000000000000000CD02000001
:100030000D010000000000005503000091030000C6
:100040001901000019010000190100001901000048
:10005000190100000114000019010000190100003D
:100060001901000019010000190100001901000028
:100070001901000019010000190100001901000018
:100080001901000019010000190100001901000008
:1000900019010000190100001901000019010000F8
:1000A00019010000190100001901000019010000E8
:1000B00019010000190100001901000019010000D8
:1000C000190100001901000019010000A8500000EA
:1000D0000000001008000000A850000000C0072029
:1000E0000000000008000010745D000000C0072040
:1000F00000000000FEE700BFFEE700BFFEE700BF14
:10010000FEE700BFFEE700BFFEE700BFFEE700BF5F
:10011000FEE700BFFEE700BFFEE700BF70B5194C69
:10012000194EB44211D294E806000C3454F8045C21
:10013000002DF6D0043A002351F8040B04339D42FD
:1001400042F8040FF8D8B442EDD3104B9C4214D2BD
:1001500004F1080607339B1B23F0070310331C44EC
:10016000002516E90300034621B143F8045B1A1A7F
:100170009142FAD80836A642F3D100F0D3FE02F03D
:100180005BF9FEE7CC000000E4000000F400000092
:1001900052B110B40439002350F8044B04339A428E
:1001A00041F8044FF8D810BC704700BF41B1034676
:1001B00010B4002443F8044B1A1A9142FAD810BC28
:1001C000704700BF08B5034801F00CFB00F09AF837
:1001D000FEE700BF344D000030BF704708B503484C
:1001E00002F0DAFE00F08EF8FEE700BF5C4D000082
:1001F00010B5044600F0BCFA204602F02BF9044684
:1002000000F06EFB0CB1204610BDFFF7DBFF20466F
:1002100010BD00BF50B110B5044600F0A9FA204649
:1002200002F07CF9BDE8104000F05ABB704700BFF7
:1002300000F108034FF0FF310022816080E80C00DC
:10024000C3600361704700BF00230361704700BFB4
:1002500090E80C0010B49C6801328C609C684B6084
:100260006160996010BC08610260704743688168F2
:10027000026910B49960816854684B601368A042A9
:1002800008BF5160013B0021016110BC184613609A
:10029000704700BF03480068006880F3088862B6B2
:1002A00000DF00BF08ED00E0074B10B44FF0807492
:1002B00040F8044C40F8081C40F8202C40F80C3C56
:1002C00010BC4038704700BF15030000064B19688A
:1002D0000868B0E8F00F80F309884FF0000080F361
:1002E00011884EF00D0E7047A4000010044B4FF023
:1002F00080521A60BFF34F8FBFF36F8F704700BFFC
:1003000004ED00E0EFF311804FF0280181F3118834
:100310007047002008B5FFF7F5FFFEE708B5FFF7C7
:10032000F1FF044A136801331360BFF34F8FBFF32B
:100330006F8F08BD0000001080F31188704700BF68
:10034000034B18680138186000B17047FFF7F4BF1D
:1003500000000010EFF309800C4B1A6820E9F00F41
:1003600010602DE908404FF0280080F3118800F05C
:1003700067FB4FF0000080F31188BDE80840196862
:100380000868B0E8F00F80F309887047A4000010F7
:1003900008B5FFF7B7FF00F0FFF918B1044B4FF0B5
:1003A00080521A600020BDE80840FFF7C5BF00BFBB
:1003B00004ED00E0064B074A1B680748A2FB032335
:1003C000064A9B09013B072103601160704700BF8B
:1003D000785D0010D34D621014E000E010E000E002
:1003E000094B10B51A68002442F478021A601A68A2
:1003F00042F078421A60FFF7DDFF044B1C60FFF704
:1004000049FF204610BD00BF20ED00E000000010B5
:100410002DE9F04F074683B054208A46914698460E
:100420000C9E0D9DDDF838B0FFF7E2FE002800F0CD
:1004300095800446BBF1000F00F08280C0F830B018
:1004400058464FEA8902A52102F002F809F18049D5
:10045000236B09F1FF3903EB890929F007090AF138
:10046000FF330AF1130104F1330213F9010F02F80B
:10047000010F93F9000008B19942F6D1B346042E5A
:1004800028BF4FF0040B002304F1040A84F847301E
:100490005046C4F82CB0C4F850B0FFF7D5FE04F1B4
:1004A0001800FFF7D1FECBF10503A361246164625C
:1004B000424639464846FFF7F7FE206005B12C60FA
:1004C000FFF72CFF394A3A4D1368013313602B684C
:1004D00073B3384F3B68FBB1DFF8FC80364A3749CD
:1004E0001368E06A01331360A3640B68984288BF05
:1004F000086000EB800008EB80005146FFF7A8FE83
:10050000FFF71EFF3B681BB12B68DB6A9E420BD8CE
:10051000012003B0BDE8F08F2B68DFF8BC80DB6AF8
:100520009E4228BF2C60D9E7FFF7E0FE0120F0E7EC
:100530002C601368DFF8A080012B14D01D4FCDE78D
:100540004FEA890210460192FFF752FE019A20639A
:1005500000287FF478AF2046FFF75CFE4FF0FF30B5
:1005600003B0BDE8F08F474608F1640938461437F8
:10057000FFF75EFEB945F9D1114FDFF860903846BC
:10058000FFF756FE4846FFF753FE0E48FFF750FEB2
:100590000D48FFF74DFE0D48FFF74AFE0C4A0D4B84
:1005A0001760044FC3F8009098E700BFF8000010F0
:1005B000A40000100C000010C8000010FC00001087
:1005C000CC000010A800001014000010280000103B
:1005D00008000010C40000103C000010E0000010F3
:1005E0002DE9F8435420FFF703FE002866D00446A7
:1005F0004FF40070FFF7FCFD2063002800F09280AC
:10060000A5214FF4007201F023FF206B484B00F549
:10061000FE7020F0070504F1330103F1140013F913
:10062000012F01F8012F0AB19842F8D10026271DA9
:10063000384684F84760E6622665FFF705FE04F158
:100640001800FFF701FE05233246A3612846394909
:1006500024616462FFF728FE2060FFF75FFE364AE0
:10066000364D1368013313602B68002B30D0344EA5
:1006700033682BB3DFF8F080324A33491368E06AFD
:1006800001331360A3640B68984288BF086000EBD5
:10069000800008EB80003946FFF7DAFDFFF750FED7
:1006A000336803B12B68FFF72DFE284B0121002290
:1006B00031601A60BDE8F843FFF792BEBDE8F883E9
:1006C0002B68DFF8A480DB6A002BD5D12C60D3E740
:1006D0002C601368DFF89080012B01D0184ECBE717
:1006E000464608F1640930461436FFF7A1FD4E4531
:1006F000F9D1174EDFF874903046FFF799FD484660
:10070000FFF796FD1348FFF793FD1348FFF790FDA1
:100710001248FFF78DFD124A124B1660084EC3F8BF
:100720000090A9E72046BDE8F843FFF773BD00BF7E
:100730008B4D0000B5090000F8000010A400001067
:100740000C000010C8000010FC000010C0000010D9
:10075000CC000010A80000101400001028000010A9
:1007600008000010C40000103C000010E000001061
:10077000024A136801331360704700BFA0000010E5
:1007800010B5FFF7CBFD034B1C68FFF7D9FD2046E2
:1007900010BD00BFC00000102DE9F04F454B83B0E5
:1007A0001B68002B4FD1444B1A6801321A601D6838
:1007B000002D56D0414B01931B689D4268D3DFF852
:1007C0000891DFF818813E4F3E4E002428E03E4B52
:1007D0001B68DB68D3F80CB0DBF804200BF1040ACB
:1007E000954263D35046FFF741FDDBF828200BF11B
:1007F00018000AB1FFF73AFDDBF82C20336802EB52
:1008000082009A42514608EB800088BF3260FFF7B1
:100810001FFD3968DBF82C20CB6A9A4228BF0124DF
:10082000D9F800301B68002BD1D1019A4FF0FF336B
:1008300013603B68DB6A03EB830358F82330022B19
:1008400028BF012404E0214A002413680133136007
:100850001F4B1B68002B18BF0124204603B0BDE8C6
:10086000F08F194B1B4A186814681B491C601060F4
:100870000A6801320A601A68126872B90F4B1A4688
:1008800001934FF0FF33136013461B689D4296D2CD
:10089000DFF848800A4F0024CBE71B68074ADB6873
:1008A0000192DB685B681360134685E7019B1A6061
:1008B000BFE700BFA0000010C0000010040000103F
:1008C000A4000010FC00001008000010F40000104C
:1008D00000010010C4000010BC0000103C0000101B
:1008E0002DE9F84FFFF71AFD2A4B1A68013A1A60F2
:1008F0001B68002B44D1284B1B68002B40D0274E8F
:10090000DFF8A8A0B146264DDFF8A480254F1FE0F0
:10091000D9F80C30DC6804F1040B04F11800FFF77F
:10092000A5FC5846FFF7A2FCE36A2A6803EB8300A4
:100930009342594608EB800088BF2B60FFF788FC84
:100940003B68E26ADB6A9A4224BF0123CAF800309E
:100950003368002BDCD1144C23686BB123685BB186
:100960000125FFF719FF08B1CAF800502368013BC1
:1009700023602368002BF4D1DAF80040012C05D065
:100980000024FFF7DDFC2046BDE8F88FFFF7AEFC42
:10099000F7E700BFA0000010F8000010A80000104A
:1009A000FC000010A4000010F40000100001001072
:1009B0003C0000101D4E1E4D2DE98848B246A84649
:1009C0001C4CDFF8789006E0236837680133236019
:1009D000FFF786FF5FB92B68002BF5D1D9F80030FF
:1009E000012B01D9FFF782FCFFF7F6FBF3E7FFF7D6
:1009F00095FCDAF80C30D3F80CB00BF10400FFF7DB
:100A000035FC0D4B0C4A1B68013B1360D8F80030D5
:100A1000013BC8F80030FFF793FCDBF83000FFF72C
:100A2000F9FB5846FFF7F6FBD5E700BF14000010AE
:100A300010000010A0000010F80000103C00001092
:100A40001D4B1B68002B2AD11C4A10B51C4C13608F
:100A50002268236812681B6B9A4224D9194A1A49E2
:100A6000136803EB830351F823304BB91368013B40
:100A70001360136803EB830351F82330002BF5D088
:100A8000136803EB83039B00C8184268083352685D
:100A900019448A4242600CD0D368236010BD074BD2
:100AA00001221A607047206821683431FFF796FBF5
:100AB000D4E752684260EFE7A00000100001001088
:100AC000A4000010FC0000103C000010024B834208
:100AD0008CBF002001207047007C00102DE9F043FE
:100AE00083B00D46044603F06DFA2A2804D004288A
:100AF00073D003B0BDE8F08323782279A3F17003AB
:100B0000B3FA83F3217A702A227B4FEA531318BF7A
:100B100000237029217C18BF0023702A227D18BF72
:100B200000237029217E18BF0023702A227F18BF5E
:100B30000023702994F8201018BF0023702A94F81D
:100B4000242018BF0023702918BF0023702A18BF63
:100B50000023002B78D0464D464EDFF8408101340B
:100B600005F1C80706E01435AF4204F1040406F1AC
:100B70000406BED0204603F0D3F9B0F57A7FF2D256
:100B800000F0F8FB33683060C3EB0009484603F01F
:100B9000F3F9B9F1000F00EB80004FEA400015D0E7
:100BA000B8FBF0F0CCBF0121002183B2EA68ADF8B8
:100BB00004302B693048D31A6A688DF806109342C6
:100BC00008DA01A9284601F021F9CCE74FF6FF73B6
:100BD0000221EBE702F0E0F9C5E72849204603F0DF
:100BE000CFF9C0B9264802F0D7F9264B02225A7431
:100BF00083F8452083F8792083F8AD2083F8E1203D
:100C000083F8152183F8492183F87D2183F8B121E8
:100C100083F8E5216DE71C49204603F0B1F9B8B12E
:100C200020461A4903F0ACF9044600287FF461AF6E
:100C3000174802F0B1F9E0B2013400F0CFFA0A2C03
:100C4000F9D100232B6054E7124802F0A5F950E7D0
:100C500004461148264602F09FF90A4DE0B26E7430
:100C6000013400F0F1FA0A2C05F13405F6D140E721
:100C7000880C001004010010944D0000B04D0000DD
:100C8000B84D0000800A0010CC4D0000E84D000077
:100C9000F04D00009C4D0000D44D000080F0FA02A1
:100CA000F0B5284D83B0284E00241BE001A9304642
:100CB00001F0DAF8E7B270B39DF80610022938D0D7
:100CC000204600F043FA3846BDF8041000F0F0F971
:100CD000384600F001FB01340A2C05F1340506F119
:100CE000140616D06B7C022BE0D1E7B2384640F6F2
:100CF000354100F0DDF90021204600F027FA0134EB
:100D0000384600F0E9FA0A2C05F1340506F114061C
:100D1000E8D103B0F0BDE7B2384600F095FA022101
:100D2000204600F013FA384641F66A0100F0C0F997
:100D3000D1E7384641F66A0100F0BAF9384600F0CA
:100D400083FAC8E7800A0010880C00102DE9F04FE4
:100D5000674D684E9FB0A5F1C804314620464FF458
:100D600000730422143401F033F8AC4206F5006637
:100D7000F3D100231F469A461E465F4C04934FF062
:100D800001084FF007095FFA8AF06660A660E66026
:100D900084F8246000F022FA84F8108084F811901E
:100DA000FFF7EEFC00F59C5008300AF1010A3844C8
:100DB000BAF10A0FE06284F83080667407F5FA67CA
:100DC00004F13404DFD10026B346B246B1463446BE
:100DD0004A4B98465F695B69D8F814309F4218BF48
:100DE000D8F81470FFF7CCFCCAEB000063286CD86D
:100DF000FFF7C6FCC9EB0000B0F57A7F22D80136B8
:100E000000238DF80F3002E0642B11D01C460DF149
:100E10000F013B4801F028F8631C1EAA1119DBB230
:100E20000028D9D09DF80F200A2A01F8642CEBD1B4
:100E30001EAA1344002404A905A803F8644CFFF774
:100E40004DFEC9E7FFF79CFC8146FFF799FC2D4B4F
:100E5000A3FB00312C4BC1F38F11A3FB01312B4BB2
:100E6000490903FB0102274B0498A3FB02320090BF
:100E70003346C2F38F12264802F08EF80026F0B2F5
:100E800000F090F800F06CFA01360146214802F0BB
:100E900083F80A2EF3D1204802F07EF81F4EF16845
:100EA00033691C481436C91A02F076F8AE42F6D1FE
:100EB0001B4802F071F8BBF1070FD9BF0BF1010B12
:100EC000012601264FF0000B9AE7FFF759FC134B60
:100ED0008246DA681B699A4206D0074B5B7C022B7C
:100EE00002D0049B01330493FFF7DAFE80E700BFD2
:100EF000500D0010500D0010800A001040C0092055
:100F0000645D0010D34D621089888888A015FFFFAA
:100F1000044E0000184E00001C4E0000880C00100B
:100F2000E44D000038B51C4B1C49D3F888301C4AEE
:100F30001160990122D4184BD3F88830DA0126D4F5
:100F400000200546144C00F0E5FD2A4628462421E1
:100F5000C4F80C5100F084FD2846012100F03AFD50
:100F6000042000F0D7FD2246D2F888305B01FBD583
:100F700002210020BDE8384000F02CBD02210020F5
:100F800000F04AFD044BD3F88830DA01D8D50121AE
:100F9000002000F041FDD3E700C00F40000000003A
:100FA00008ED00E02DE9F043064687B003AD0C22C2
:100FB0000021284601F04CFA9DF80C009DF80D1018
:100FC0009DF811209DF81530042464F3471264F352
:100FD000471366F303006FF34711324C8DF811206D
:100FE0008DF80C008DF80D108DF81530E3685A0758
:100FF00006D52D48A36801F0CFFFE3685B07F8D45E
:10100000284B03211A461846196201AE002135F813
:1010100021309360D3685F07FCD5836826F81130D0
:1010200001310329F3D1BDF80830DDF806801C0733
:1010300048BF6FEA08381B4C48BF6FEA183827468C
:1010400003E01948A36801F0A7FFE3685807F8D444
:1010500003232362002235F82230A360E368590796
:10106000FCD5BB6826F812300132032AF3D1BDF853
:101070000830DDF806901B0744BF6FEA09396FEAB4
:101080001939C8EB090002F077FF40F6B7339842F0
:1010900004DD0648C84601F07FFFD6E7484607B0A2
:1010A000BDE8F08300800840204E0000444E000060
:1010B00030B583B004460D4608220021684601F091
:1010C000C7F941F66A01A94228BF29469DF80530B3
:1010D000022262F347138DF80530BDF804009DF835
:1010E00000209DF8013064F303026FF3471361F3AE
:1010F0000C00144CADF804008DF800208DF8013080
:10110000E3685B0706D51048A36801F045FFE36874
:101110005D07F8D40B4B032219461A62BDF8002074
:101120009A60CB68074A5807FBD51146BDF80430D2
:1011300090689360CB68034A5B07FBD5936803B064
:1011400030BD00BF00800840204E000070B506464C
:101150000D4682B008220021684601F079F99DF819
:1011600000009DF804109DF801209DF80530012431
:1011700064F3471366F3030065F300016FF347124E
:10118000144C8DF800008DF804108DF801208DF8B6
:101190000530E3685E0706D50F48A36801F0FCFE42
:1011A000E3685D07F8D40B4B032219461A62BDF8B9
:1011B00000209A60CB68074A5807FBD51146BDF856
:1011C000043090689360CB68024A5B07FBD5936854
:1011D00002B070BD00800840204E000010B50446EB
:1011E00082B0042200210DEB020001F031F99DF8DC
:1011F00004309DF8052064F30303DBB243F01003D1
:101200006FF347120E4C8DF804308DF80520E3681B
:10121000590706D50B48A36801F0BEFEE3685A07DC
:10122000F8D4074B032219461A62BDF804209A60CD
:10123000CB68034A5B07FBD5936802B010BD00BFC3
:1012400000800840204E000030B5054683B00822DB
:101250000021684601F0FCF89DF800009DF801109F
:101260009DF805209DF80430032464F347126FF3C2
:10127000000365F303006FF34711154C8DF8000070
:101280008DF801108DF805208DF80430E3685B07B8
:1012900006D51048A36801F07FFEE3685D07F8D427
:1012A0000B4B032219461A62BDF800209A60CB68E6
:1012B000074A5807FBD51146BDF804309068936083
:1012C000CB68034A5B07FBD5936803B030BD00BF12
:1012D00000800840204E000030B583B0054608224B
:1012E0000021684601F0B4F84FF000010A460B46B1
:1012F0000024032060F3471364F3471265F30301EE
:101300000120154C8DF800108DF801208DF8053066
:101310008DF80400E3685B0706D51048A36801F068
:101320003BFEE3685D07F8D40B4B032219461A62B3
:10133000BDF800209A60CB68074A5807FBD51146D4
:10134000BDF8043090689360CB68034A5B07FBD517
:10135000936803B030BD00BF00800840204E0000FD
:10136000034AC31782FB0020C3EBE010704700BFA5
:101370001F85EB514FF4C87303FB00F0704700BFAB
:10138000F0B51A4C83B0204600F06CFF0327184ECE
:101390004FF4E131204600F0B9FF01252046E76017
:1013A00000F09CFF3046009508230222002100F047
:1013B0008DFC3A46304600950823002100F086FC5B
:1013C0002A464FF400630B490B4800F001FDC72388
:1013D000A3606368094A43F0050308202021636085
:1013E00082F80503116003B0F0BD00BF00C00040EB
:1013F00000C002402C010010645D001000E100E01C
:1014000000220249024800F0F1BF00BF645D0010F5
:1014100000C0004008B5152000F050FB084B0949FA
:101420005A68184622F004025A601A6822F0FF0235
:1014300042F007021A60BDE8084000F09BBD00BF03
:101440000080084000093D0070B5544C84B000F0A5
:1014500041FA00F0DBF9FFF793FF204600F0E8F9CE
:10146000FFF7D8FF23684E4E23F0FF0343F00F032E
:1014700023606368002543F0020320466360012176
:10148000484C00F061FD30462A46009508230221B1
:1014900000F01CFC2368304623F001032360012286
:1014A00008230095022100F011FC2368022223F09A
:1014B00002032360304611460095082300F006FC25
:1014C0002368304623F00403236003220823009599
:1014D000022100F0FBFB2368304623F00803236061
:1014E000042208230095022100F0F0FB2368304617
:1014F00023F010032360052208230095022100F049
:10150000E5FB2368304623F02003236006220823EE
:101510000095022100F0DAFB2368304623F04003F7
:101520002360072208230095022100F0CFFB2268E8
:10153000082322F08002226030461A4600950221DC
:1015400000F0C4FB2368092223F480732360022186
:1015500030460823009500F0B9FB2368012623F4E8
:101560000073236000F092FB0446152000F09AFB04
:10157000214602460C4801F00FFD2B464FF4007245
:101580000A4903950295019500960948FEF740FF28
:10159000FFF726F8304604B070BD00BF0080084059
:1015A00000C0024040C00920704E0000884E00007C
:1015B0004D0D000080B582B000AF78600F2000F0C4
:1015C0007DFA00BF0837BD4680BD00BF80B582B040
:1015D00000AF78600F2000F071FA00BF0837BD46F9
:1015E00080BD00BF80B483B000AF78600B46FB7055
:1015F0001346BB70FB785B017A681344FA7852019A
:1016000079680A441168BA78012000FA02F20A43A4
:101610001A6000BF0C37BD4680BC704780B483B0F1
:1016200000AF78600B46FB701346BB70FB785B0124
:101630007A681344FA78520179680A441168BA78D2
:10164000012000FA02F2D2430A401A6000BF0C37B0
:10165000BD4680BC704700BF80B582B000AF7860E7
:10166000084611461A460346FB700B46BB701346EC
:101670007B707B78002B06D0BA78FB7819467868A7
:10168000FFF7B0FF05E0BA78FB7819467868FFF7F6
:10169000C5FF00BF0837BD4680BD00BF80B582B022
:1016A00000AF7860084611461A460346FB700B46A9
:1016B000BB7013467B707B78BA78F9787868FFF74F
:1016C000CBFF00BF0837BD4680BD00BF80B483B0EC
:1016D00000AF78600B46FB70FA787B681A6000BF39
:1016E0000C37BD4680BC704780B483B000AF7860D3
:1016F00039607B683A68DA6000BF0C37BD4680BC51
:10170000704700BF80B483B000AF78607B685B69CE
:1017100018460C37BD4680BC704700BF80B586B008
:1017200000AFF860B9607A6000237B6109E0BA68B5
:101730007B6913441B78184600F03AF87B69013343
:101740007B617B687A699A42F1D37B6818461837C7
:10175000BD4680BD80B500AF01231622002102489E
:10176000FFF79CFF00BF80BD00C0092080B483B09C
:1017700000AF786000BF0C37BD4680BC704700BF2B
:1017800080B500AF0948FFF7F1FF084800F06AFD97
:101790004FF4E131054800F0B9FD03210348FFF79C
:1017A000A3FF024800F09AFD00BF80BD00C00040CA
:1017B00080B582B000AF0346FB7100BF0848FFF759
:1017C000A1FF034603F02003002BF7D0FB79194655
:1017D0000348FFF77BFF00BF0837BD4680BD00BF51
:1017E00000C0004080B582B000AF786006E07B6842
:1017F0005A1C7A601B781846FFF7DAFF7B681B7863
:10180000002BF4D100BF0837BD4680BD80B500AFC6
:10181000FFF7B6FF0448FFF7D9FE0448FFF7CAFEFA
:10182000FFF798FF00BF80BD00C0092000C0024044
:1018300080B584B002AF78607B68244A934220D19F
:1018400002230093082307220021214800F03EFADA
:10185000022300930823062200211D4800F036FAD7
:1018600002230093082308220021194800F02EFAD1
:1018700002230093082309220021154800F026FACC
:101880001FE00223009308230F220021104800F0DC
:101890001DFA022300930823102200210C4800F0B7
:1018A00015FA02230093082311220021084800F0B2
:1018B0000DFA02230093082312220021044800F0AD
:1018C00005FA00BF0837BD4680BD00BF00000340D9
:1018D00000C0024080B500AF00F0D8F90246024BCC
:1018E0001A6000BF80BD00BF785D001080B400AFFB
:1018F000064BD3F8883003F08073002B14BF01230C
:101900000023DBB21846BD4680BC704700C00F40C4
:1019100080B400AF064BD3F8883003F00073002B7F
:1019200014BF01230023DBB21846BD4680BC7047BC
:1019300000C00F4080B483B000AF0346FB71094A7A
:10194000FB795B0113448C33AA221A60054AFB79A8
:101950005B0113448C3355221A6000BF0C37BD461F
:1019600080BC704700C00F4080B400AF054BD3F877
:101970000C31DBB203F00303DBB21846BD4680BC7A
:10198000704700BF00C00F4080B400AF024B1B681F
:101990001846BD4680BC7047944E000080B400AF2E
:1019A000024B1846BD4680BC704700BF00093D0091
:1019B00080B400AF024B1B681846BD4680BC704720
:1019C000984E000080B500AF00F008F903461846B5
:1019D00080BD00BF80B584B000AF03463960FB71A5
:1019E0000C4AFB7904335B0113441B68FB60FA6803
:1019F0003B681343FB60074AFB7904335B011344E4
:101A0000FA681A60FB791846FFF794FF00BF103799
:101A1000BD4680BD00C00F4080B584B000AF034616
:101A20003960FB710D4AFB7904335B0113441B6879
:101A3000FB603B68DB43FA681340FB60074AFB79B5
:101A400004335B011344FA681A60FB791846FFF708
:101A500071FF00BF1037BD4680BD00BF00C00F4002
:101A600080B586B000AF0346B9607A60FB73FB7B3C
:101A7000002B05D17B681A04BB6813437B6104E02B
:101A80007B685A01BB6813437B610B4AFB7B0433C1
:101A90005B01134404337A691A60074AFB7B043301
:101AA0005B01134401221A60FB7B1846FFF742FFDB
:101AB00000BF1837BD4680BD00C00F4080B485B060
:101AC00000AF0346FB71FB79FB600849074BD3F875
:101AD000C4300120FA6800FA02F21343C1F8C4309E
:101AE00000BF1437BD4680BC704700BF00C00F4028
:101AF00080B582B000AFFFF70BFF0346002B02D08A
:101B00000123FB7101E00023FB71FB7918460837C4
:101B1000BD4680BD80B483B000AF7860044A7B6866
:101B2000C2F8043100BF0C37BD4680BC704700BF0F
:101B300000C00F4080B400AF044BD3F80431DBB2D7
:101B400001331846BD4680BC704700BF00C00F403F
:101B500080B487B000AF0346FB7101237B61FB7942
:101B60005B003B613B6903F01F03FB603B695B0962
:101B70003B61194A3B696A3352F823307B617A69C9
:101B8000FB6822FA03F303F003037B617B69002BFC
:101B900002D104237B6119E07B69012B02D101236F
:101BA0007B6113E07B69022B02D102237B610DE094
:101BB000FB790D2B05D0FB790E2B02D0FB790F2B77
:101BC00002D106237B6101E008237B617B69184613
:101BD0001C37BD4680BC704700C00F4080B500AFC9
:101BE000FFF7C2FE0346012B07D0022B09D0002BC2
:101BF0000BD1FFF7D3FE034608E0FFF7C5FE03460F
:101C000004E0FFF7D5FE034600E00023184680BD40
:101C100080B584B000AF0023FB60FFF767FE03468A
:101C2000002B18D00E4BD3F88430C3F30E030133CE
:101C3000BB600B4BD3F884301B0CDBB201337B60F1
:101C4000FFF7C0FE0246BB6803FB02F35A007B6845
:101C5000B2FBF3F3FB60FB6818461037BD4680BD4E
:101C600000C00F4080B500AFFFF742FF0346002BD6
:101C700005D0012B07D1FFF7CBFF034604E0FFF7A8
:101C8000ADFF034600E00023184680BD98B500AFC5
:101C9000FFF7E8FF0446FFF74DFF0346B4FBF3F3FD
:101CA000184698BD90B583B000AF0346FB71FFF7AF
:101CB000EDFF0446FB791846FFF74AFF0346B4FBE5
:101CC000F3F318460C37BD4690BD00BF80B487B013
:101CD00000AFF8607B600B46FB721346BB72BB7AA9
:101CE00003F00F03DBB25B00FB75FB7A5B00DAB23B
:101CF000BB7A1B09DBB21344BB75BA7DFB6853F892
:101D00002220FB7D032101FA03F3DB4313403B61F7
:101D1000BA7D97F82010FB7D01FA03F319463B6961
:101D20001943FB6843F82210BA7DFB68103253F860
:101D30002220FB7D032101FA03F3DB4313403B61C7
:101D4000BA7DFB7D796899403B691943FB68103285
:101D500043F8221000BF1C37BD4680BC704700BF4F
:101D600080B483B000AF78607B680C331A687B68FE
:101D700010331B68D31A18460C37BD4680BC704719
:101D800080B582B000AF78607868FFF7E9FF02465F
:101D90007B685B689A42ACBF01230023DBB2184624
:101DA0000837BD4680BD00BF80B483B000AF786007
:101DB0007B680C331A687B6810331B689A420CBF2F
:101DC00001230023DBB218460C37BD4680BC7047A8
:101DD00080B485B000AFF860B9607A603B60FB68A2
:101DE000BA681A60FB683A685A60FB687A689A6059
:101DF000FB6800221A61FB681A69FB68DA6001233C
:101E000018461437BD4680BC704700BF80B584B00B
:101E100000AF786039607B681B68FB607868FFF70B
:101E2000AFFF0346002B01D0002319E07B68DB687D
:101E30007A685268013A13407A68926802FB03F3A9
:101E4000FA681344FB607B689B681A463968F86837
:101E500000F0FCFA7B68DB685A1C7B68DA600123BF
:101E600018461037BD4680BD80B584B000AF78609D
:101E700039607B681B68FB607868FFF795FF034655
:101E8000002B01D0002319E07B681B697A68526837
:101E9000013A13407A68926802FB03F3FA6813442C
:101EA000FB607B689B681A46F968386800F0CEFAD8
:101EB0007B681B695A1C7B681A610123184610371E
:101EC000BD4680BD80B483B000AF786039607B6868
:101ED0005B6823F004023B681A437B685A6000BFCA
:101EE0000C37BD4680BC704780B485B000AF7860C9
:101EF0007B68074A934202D11523FB7301E00A2352
:101F0000FB73FB7B18461437BD4680BC704700BF8F
:101F10000080084080B487B000AFF860B9607A6094
:101F2000FB681B6823F47F437B61BB681B029AB28A
:101F30007B691A43FB681A60FB687A681A6100BF04
:101F40001C37BD4680BC704780B582B000AF78605A
:101F50000B46FB70FB78002B04D000217868FFF75C
:101F6000B1FF03E004217868FFF7ACFF00BF08373A
:101F7000BD4680BD80B586B000AF786039607868B6
:101F8000FFF7B2FF03461846FFF78CFEB860002348
:101F90007B614FF0FF333B610223FB6017E07B69FD
:101FA0000133FA6802FB03F3BA68B2FBF3F33B6157
:101FB0003A693B689A420AD97B6901337B617B6944
:101FC000FF2B04D900237B61FB680233FB603A6975
:101FD0003B689A42E3D8FA6879697868FFF79AFF14
:101FE00000BF1837BD4680BD80B483B000AF7860B5
:101FF0007B680C331A687B6810331B689A420CBFED
:1020000001230023DBB218460C37BD4680BC704765
:1020100080B483B000AF78600B46FB70FA787B68C1
:102020001A6000BF0C37BD4680BC704780B483B0D7
:1020300000AF78607B681B68DBB218460C37BD4682
:1020400080BC704780B483B000AF786039607B6833
:102050005A683B68DB431A407B685A6000BF0C3704
:10206000BD4680BC704700BF80B483B000AF7860CD
:102070007B689B6818460C37BD4680BC704700BF24
:1020800080B483B000AF786039607B683A689A604A
:1020900000BF0C37BD4680BC704700BF80B483B022
:1020A00000AF786039607B683A68DA6000BF0C374F
:1020B000BD4680BC704700BF80B483B000AF78607D
:1020C0007B68DB6843F080027B68DA6000BF0C3716
:1020D000BD4680BC704700BF80B483B000AF78605D
:1020E0007B68DB6823F080027B68DA6000BF0C3716
:1020F000BD4680BC704700BF80B483B000AF78603D
:102100000B46FB701346BB70FA787B681A60BA788E
:102110007B685A6000BF0C37BD4680BC704700BF6B
:1021200080B483B000AF78607B685B6918460C3779
:10213000BD4680BC704700BF80B483B000AF7860FC
:1021400039607B681A6A3B681A437B681A6200BF71
:102150000C37BD4680BC704780B485B000AF786056
:102160007B680E4A934202D10423FB730FE07B6825
:102170000B4A934202D11823FB7308E07B68094A9B
:10218000934202D11923FB7301E00323FB73FB7B12
:1021900018461437BD4680BC704700BF00000140A0
:1021A0000080094000C0094080B582B000AF78606F
:1021B0007868FFF759FF034603F48073002B11D0B2
:1021C0004FF480717868FFF7B7FF4FF4807178683B
:1021D000FFF738FF0E4B1B78DBB2002B02D10C4B04
:1021E00001221A707868FFF73FFF034603F400737B
:1021F000002B09D04FF400717868FFF79DFF4FF472
:1022000000717868FFF71EFF00BF0837BD4680BD2C
:102210002C09001080B485B000AF78607B680E4A4E
:10222000934202D10423FB730FE07B680B4A934275
:1022300002D11823FB7308E07B68094A934202D15C
:102240001923FB7301E00323FB73FB7B1846143750
:10225000BD4680BC704700BF0000014000800940BF
:1022600000C0094080B584B000AF78607868FFF79F
:1022700073FF03461846FFF721FC07217868FFF734
:10228000FFFE786800F036F87B6800225A607B68B1
:102290000022DA607B6800221A627B680022DA641E
:1022A0007B6800225A657B6800221A657B680A4AAF
:1022B000934205D17B6800221A617B689B69FB60B1
:1022C00003217868FFF7EAFE7B6810229A6200BF5C
:1022D0001037BD4680BD00BF0000014080B483B010
:1022E00000AF78607B6880221A6300BF0C37BD4660
:1022F00080BC704780B483B000AF78607B680022F8
:102300001A6300BF0C37BD4680BC704780B586B0ED
:1023100000AF786039607868FFF77CFF03461846A5
:10232000FFF7C0FC78613B681B017A69B2FBF3F3ED
:102330003B613B691B0AFB60FB681B023A69D31ACD
:10234000BB607868FFF7B8FEBB68DBB2FA68D2B250
:1023500019467868FFF7D0FE7868FFF7BDFE7A6906
:102360003B69B2FBF3F318461837BD4680BD00BF8A
:1023700080B584B000AF786039600AE07868FFF714
:1023800055FE0346FB7307F10F0319463868FFF744
:102390003DFD7868FFF7C4FE034603F00103002B00
:1023A000ECD100BF1037BD4680BD00BF80B584B002
:1023B00000AF7860396004E0FB7B19467868FFF76E
:1023C00027FE7868FFF7ACFE034603F02003002BDE
:1023D00008D007F10F0319463868FFF745FD03469B
:1023E000002BE9D100BF1037BD4680BD80B584B059
:1023F00000AFF860B9607A60FB685B6803F00203C5
:10240000002B0DD07968F868FFF7D0FF7868FFF7E8
:10241000EBFD0346002B03D00221F868FFF712FE04
:10242000B968F868FFF7A4FFF868FFF7BDFE00BFC2
:102430001037BD4680BD00BF08B5002211461046CA
:1024400000F0D4FDBDE80840FEF7FEBF02F02BBC53
:1024500002F043BCF8B5304F3C68A0B1C51CAD08D4
:10246000002605F10A0E05F1030C05E02368B3F11F
:10247000805F14D02646A468002CF7D10C3001F000
:10248000C7FD431C10D10020F8BD1168B1F1805F79
:1024900015D151680B44033363609368A360A2684D
:1024A0006368002AF1D10AE04FF0005380E8280069
:1024B00084600EB9386000E0B0600C30F8BD9D4219
:1024C00007DC634505DC20464FF0005340F80C3B29
:1024D000F8BD734511D920464FF00051656040F8B2
:1024E0000C1B00EB8501A1604FF0805440F82540A3
:1024F0005D1B033D4D608A60F8BD002ABAD1A0EB98
:10250000830001F085FD0130BDD04FF0005384E819
:10251000280004F10C00F8BD740A0010A8B14FF0B7
:10252000805340F80C3C50F8042C72B11368B3F19E
:10253000805F0AD1536850F8081C0B44033340F8FD
:10254000083C936840F8043CEDE7704710B5FFF78E
:1025500081FF044628B917220349FFF7DFF802F08C
:10256000D5FB204610BD00BF9C4E000010B5425C5C
:102570004318342A01DC002010BD352A06D1194643
:1025800011F8012F302AFBD0002AF4D01A4630244B
:1025900012F8011D392901D11470F9E701311170C8
:1025A0000278302AE7D01A1A002A03DB13F801292F
:1025B0009A70F8E7012010BD30B58C1F0A25A142A2
:1025C0000CD090FBF5F3C3EB4312C3EB8202303027
:1025D00000EB420001F801091846F0E730BDFFFFAB
:1025E0000EB430B5054690B013AB53F8044B282217
:1025F000002106A80593FFF72BFF0A2309936FF02C
:1026000000430893104B00940293059B4FF0FF3258
:10261000019306A86FF00043069500F039FD089B72
:102620000446013B002B089303DB069B00221A7033
:1026300003E006A9002001F02DFD204610B0BDE802
:10264000304003B0704700BF51260000FFFFFFFF7E
:102650002DE9F04F144647F6F0724E689DB0069390
:10266000C6F30F4323F00F035B040F685B0C934228
:102670000590DDF89CB00997079627D10023E370F9
:10268000C6F313033B434FF06E0315D16922637009
:10269000002E4FF066032270A37001DAA64B10E003
:1026A000069B980706D4A54A13F0040FA44B08BF55
:1026B000134606E0A34B04E023706122A3709F4BF6
:1026C0006270269A0320136000F033BC059B23F050
:1026D0002003412B00F03982002200233846314686
:1026E00002F063FA38B106F10043099A1E4601234D
:1026F00017460A9300E00A9000220023384631462C
:1027000002F03DFA002840F0028240F22D150FAA97
:102710003846314601F0BFFD0F9ACDE9100155430F
:10272000A5F5AB531C3B4FF47A7593FBF5F50020F0
:10273000AA1A854901F0DCFD002DCDE91A0106DA5F
:1027400077A3D3E900236E42CDE9162306E07F4B41
:102750004FF00002CDE9162316D02E46F10709D41A
:10276000DDE91601DDE9162301F044FF7610CDE91D
:102770001601F3E7DDE91601DDE91A2301F03AFF5E
:10278000012ECDE91A01EBD1DDE91001DDE91A23B3
:1027900001F0B8FFCDE91201DDE9120162A3D3E92E
:1027A000002302F002FA88B1DDE912010022684B31
:1027B00001F020FFCDE91201DDE91A010022644B8E
:1027C00001F0A0FF013DCDE91A01E5E7DDE91201C5
:1027D00057A3D3E9002302F03CFA88B1DDE91201E6
:1027E00000225B4B01F08EFFCDE91201DDE91A01F9
:1027F0000022574B01F0FEFE0135CDE91A01E5E755
:10280000DDE9120102F070F96B4213EA250338BFCB
:102810002B4682460B930F9A5046AE1A02F0A7F948
:10282000324601F065FD00220023002DCDE91201A2
:10283000CDE914232FDA3AA3D3E90023CDE91623F7
:1028400000220023CDE91823DDE91689DDE9160110
:102850004FF000084246DDE918674B4601F0EEFFF5
:1028600032463B4602F0BAF8CDE91801CDE91689A7
:10287000DDE916010022354B01F0BCFE02460B4695
:102880000020314901F0DAFF0022304B01F03AFF1D
:10289000CDE918010CE02D4B4FF00002CDE91623D5
:1028A0004FF000024FF00003CDE9182300F09480B0
:1028B0000B9B0893089BDA074CD4DDE91623DDE96E
:1028C0001889DDE918671046194602F087F8424674
:1028D0004B4602F083F832463B4601F08BFECDE9D1
:1028E0001801DDE91601DDE9162301F083FECDE9CB
:1028F0001601DDE91689DDE916014FF000084246B0
:10290000DDE918674B4601F099FF3B46324602F07D
:1029100065F8089BCDE918015B10CDE91689C8E779
:102920009A9999999999C93F00000000006AF84066
:102930000000000080842E41E64E0000B34E0000EF
:10294000B64E0000B44E00000000F03F00001440FE
:1029500000002440DDE91223DDE91889CDE90C23CC
:10296000DDE91601DDE9182302F038F8DDE9146726
:1029700032463B4601F03EFE424606460F46DDE942
:102980000C014B4601F036FE02460B4630463946F6
:1029900002F024F8CDE91401DDE91601DDE9122386
:1029A00001F028FECDE91201DDE91289DDE912010D
:1029B0004FF000084246DDE914674B4601F03EFF48
:1029C0003B46324602F00AF8089BCDE91401012B80
:1029D000CDE912897FF471AFDDE91201DDE9102341
:1029E00002F00DF910B90AF1FF3A14E7DDE91223FC
:1029F000DDE9100101F022FFCDE91001DDE914232A
:102A0000DDE9100101F01AFFCDE91001DDE91A231B
:102A1000DDE9100101F076FEA5A3D3E90023CDE99D
:102A20001001DDE9100101F0E5FDCDE91001DDE95E
:102A3000100102F059F8DDE91067804602F097F8BE
:102A400002460B463046394601F0F8FE98A3D3E91A
:102A5000002301F0CFFDCDE91001DDE9100102F006
:102A600043F80646002E06DA06F5742606F51076BB
:102A700008F1FF38F6E7904A96428F4B06DDA6F53F
:102A80007426A6F5107608F10108F5E7B8F1000FF5
:102A900006DA08F5742808F510780AF1FF3AF5E728
:102AA000984506DDA8F57428A8F510780AF1010A02
:102AB000F6E7824B9A4511DC013398FBF3F296FB63
:102AC000F3F37F480A2100FB028800FB036601FB49
:102AD0000A2A01FB08384E43013D1DE0764B9A451A
:102AE0001ADD0A229AFBF2F16FF0090303FB01AA37
:102AF0007448013500FB0A8A9AFBF2F803FB08A32D
:102B000000FB0366053696FBF2F68A4604E00026D3
:102B1000B046B2466FF004052146302701F8067B27
:102B20005046FFF749FD04F10C014046FFF744FD14
:102B300004F112013046FFF73FFD002323750A9B85
:102B40000535E77443EA850500E00025EB0701D56C
:102B50005D4B0AE0069B9F0706D45C4A13F0040F06
:102B60005B4B08BF134600E05A4B269A25F001053F
:102B70001360042395FBF3F5059BDBF80000612B44
:102B800010D006DC452B6DD0472B4DD0412B49D1C1
:102B900008E0059B662B00F00581672B44D0652B70
:102BA00040D15FE007990022C1F3130309990A435A
:102BB0000799C1F30A5515B1A5F2FF3104E052EAB5
:102BC0000301454908BF002188B9069E36070ED487
:102BD000002D0B464148059D41490CBF3022312252
:102BE000612D08BF01462046FFF7FAFC10E0002DDA
:102BF000CDE90023029103463A493B48059D0CBFAD
:102C000030223122612D08BF01462046FFF7E8FC43
:102C10002D4A2E4B079933EA210328BF1346269AE3
:102C2000136086E167230593069B002843F4006345
:102C30000693DCBF0123CBF80030DBF80010204600
:102C40001129D4BF01311221FFF790FCDBF80030CD
:102C500005449D42C0F29F80013BCBF80030059BAC
:102C6000023B0593DBF80030112B05DD299A113B5F
:102C700013601123CBF80030069BDBF8006013F4DF
:102C8000006706F1020604D131462046FFF76EFCCC
:102C9000054463782370DBF8003023B940F608035D
:102CA000069A134013B32E23637020E0AFF3008025
:102CB0000000000080842E413F420F009F860100EB
:102CC0006079FEFF40420F00E64E0000B34E000068
:102CD000B64E0000B44E000001FCFFFFB84E0000ED
:102CE000C04E0000D74E0000C84E00000126299BB0
:102CF0001B68002BC2BF3E23A355013677B1069B4C
:102D00001F070BD4A219161B12F8013D302BFAD065
:102D10003E2BF8D02E2B08BF06F1FF369DF814305D
:102D2000002DA355B8BF6D4206F1020306F1010262
:102D3000B5BF2D212B211E461E46B5F57A7FA15425
:102D40000ADB4FF47A7295FBF2F202F13001E154A2
:102D500079495E1C01FB0255632D0ADD642395FB56
:102D6000F3F303F13002A2556FF0630202FB035547
:102D700001360A2395FBF3F3DBB203F13002A255CF
:102D8000C3EB4312C3EB82033035344405EB4303FA
:102D90006370B01CCDE02A1DFFF65EAF6A1C9B1A63
:102DA000CBF80030069A002DDBF8003002F4006703
:102DB0004CDAC5F100085A1C904509DD3023237018
:102DC0002E236370DBF80030299A0226136038E066
:102DD0002B449E1C122EC1BF299A113B136013264F
:102DE0005FB931462046FFF7C1FB30B17FEA0508E5
:102DF00006F1010601D163780DE0B8F1010F04EB93
:102E000006030CD11A1B002A03DD13F801299A705E
:102E1000F8E70136302323702E23637011E01A1B6C
:102E2000002A03DD13F80129DA70F8E73023237054
:102E30002E236370289A3C23A37008F1FF330236D7
:102E40001360299B1B68002B25DC59E005EB030868
:102E500008F10206122E3DDD3FB913212046FFF78F
:102E600085FB10B10135142600E01326721E954231
:102E7000234614DA13F8012F03F8012C1A1B95428C
:102E8000F8DA63192E225A70DBF800301D44299BB2
:102E9000113D1D60A5B33E23A355013630E013F864
:102EA000011F03F8011C191B8A42F8DCA3193C22FC
:102EB00003F8012CAD1B289B2E2202351D60A25564
:102EC000DBF80020731CD2B1299902360A603E2239
:102ED000E25415E03FB931462046FFF747FB10B1F9
:102EE000013508F10306234613F8012F03F8012CDE
:102EF0001A1B9542F8DA25442E236B7000E01E461B
:102F000077B1069B180713D42644301B16F8013DF1
:102F1000302BFAD03E2BF8D02E2B0AD1013808E006
:102F2000DBF8003023B9069B190701D4701E00E0BE
:102F300030461DB0BDE8F08F18FCFFFFF0B5044629
:102F40000D461F4616468FB02822002104A8FFF721
:102F50007FFA0A2307936FF0004306930D4B049406
:102F6000002402936A1E23468DE8C00004A800F0E6
:102F70008FF8069B0546013BA342069302DB049BA8
:102F80001C7003E004A9204601F084F828460FB025
:102F9000F0BD00BF512600000FB473B506AB53F867
:102FA000046B0121324668460193FFF7C7FF041EF8
:102FB00013DD651C2846FFF74DFA009068B1019BB0
:102FC00032462946FFF7BAFF074B22460099D86BD5
:102FD000FEF7A4FB0098FFF7A1FA204602B0BDE877
:102FE000704004B0704700BF3409001070B54FF452
:102FF000A07200212048FFF72BFAC020FFF7A6FAA5
:103000001E4CC02200211C4D20602826FFF720FA0C
:1030100020680023182406FB035204FB030101333C
:10302000082B5162F7D1144A1549002001F0D2F85B
:103030004FF480534FF4806200210F4800F07CFF72
:10304000104A1149012001F0C5F84FF480534FF4A4
:10305000806200210B4800F06FFF0C4A0A490220F1
:1030600001F0B8F8BDE870404FF480534FF480622F
:103070000021064800F060BF34090010300900103C
:10308000E84E00005C090010EA4E000084090010C0
:103090002DE9F04F0546B1B0CDE90A23DDF8EC800B
:1030A00000223A9B0492187803F1010A002800F0EC
:1030B0007E86252801D100241FE0049BDDE90A67F4
:1030C0001946DA175C1C1346B142BB4180F2658693
:1030D000AB68013B002BAB6005DB2B685A1C2A60F8
:1030E000187000F05ABE294600F0D4FF00F055BE1B
:1030F00009D92D2F0ED144F0010453461AF8017B53
:103100002B2FF5D10BE0202F0CD0232F0DD144F025
:103110000804F2E7302F08D144F40074EDE744F0DE
:103120000204EAE744F00404E7E72A2F02D000266D
:103130000A2211E0D8F8006008F10402002EBCBF9A
:10314000764284F0010403F1020A5F78904608E0B9
:1031500002FB06361AF8017BA7F13003D9B2092920
:10316000F6D926EAE6732E2F0E931DD19AF8007039
:103170002A2F08D1D8F800909AF8017008F10408B5
:103180000AF1020A0AE00AF1010A4FF000090A22D4
:10319000A7F13003D9B2092940F20386B9F1000F33
:1031A00002DB44F0100401E04FF000096C2F0ED157
:1031B0009AF800706C2F03BF9AF8017044F0600415
:1031C0000AF1020A0AF1010A18BF44F020044C2F48
:1031D00001D0712F04D19AF8007044F060041CE013
:1031E000682F0FD19AF80070682F03BF9AF801700A
:1031F00044F480740AF1020A0AF1010A18BF44F08B
:1032000080040CE06A2F02D144F0400403E07A2FDE
:1032100001D0742F03D19AF800700AF1010A672FC8
:103220001CDC652F80F2B282472F00F0AF8209DCF0
:10323000412F00F0A582452F00F0A882002F00F05A
:10324000BF8027E0612F00F09B8203DC582F00F045
:10325000A8811FE0632F17D0642F09E0702F00F0C2
:10326000F68108DC6E2F00F0B18000F3FB81692F3E
:1032700000F04F820EE0752F00F01882782F00F0DA
:10328000BB81732F06D1C4E008F104030793D8F87B
:10329000007001E0CDF81C800E9B14F0010603F1D4
:1032A000FF3308933CD10E9A14F4007FA2F102047C
:1032B000049A18BF302310464FEAE2710A460146CD
:1032C000CDE90E1208BF20234FF000084FF000098F
:1032D000049AB4EB08014244089120D4DDE90E01C0
:1032E000DDE90ABC10EB080041EB0901584571EB20
:1032F0000C020FDAAA68013A002AAA6004DB2A68E5
:10330000511C2960137005E018462946089300F007
:10331000C1FE089B18F1010849F10009D8E70492A1
:10332000049B1946DA175C1C13460A46DDE90A01BC
:1033300082428B410DDAAB68013B002BAB6004DBB2
:103340002B685A1C2A601F7003E02946384600F09B
:10335000A1FE002E00F01D852246089B002603F1E9
:10336000FF380027E3174FF02009C6EB08010029BA
:103370001FDBDDE90ABC901943EB0701584571EBEF
:103380000C0112DAA96801390029A96005DB296856
:10339000481C286081F8009007E029462020CDE9EC
:1033A000042300F077FEDDE90423013647F100072E
:1033B000DBE7089B002BA8BFE418234600F0E7BC1E
:1033C0000AF1FF3ACDF81C8000F0E4BC08F10403D8
:1033D00014F0400F0793D8F8003006D0049A104636
:1033E000D117C3E9000100F0D5BCA7060DD4E6054E
:1033F00004D59DF810201A7000F0CCBC240604D52A
:10340000BDF810201A8000F0C5BC049A1A6000F0C4
:10341000C1BC08F104030793B14AD8F80030002B6F
:1034200008BF13461846089300F0CCFD14F0100FA7
:103430000746089B02D04845A8BF4F460E9AD61BA8
:1034400014F0010208923DD1049914F4007F4FEA70
:10345000E17C08466146CDE90E0114BF30222022EE
:103460004FF000084FF00009741EC8EB040100295A
:1034700022DBDDE90E01DDE90ABC10EB080041EBBF
:103480000901584571EB0C0111DAA96801390029CD
:10349000A96004DB2968481C28600A7007E0104610
:1034A00029461E931C9200F0F5FD1E9B1C9A18F1F4
:1034B000010849F10009D8E7049A26EAE676324481
:1034C0000492A61B049A4FF000081046D1170A4632
:1034D0000146CDE90E124FF00009474523DDDDE935
:1034E0000E01DDE90ABC10EB080041EB090158456B
:1034F00071EB0C0212DAAA68013A002AAA6003EB07
:10350000080205DB2968481C286012780A7005E06B
:10351000294610781C9300F0BDFD1C9B18F1010892
:1035200049F10009D9E7049B002FA8BFDB190493D8
:10353000089B002B00F02E84049B4FF000081946D6
:10354000DA1713460A464FF00009741E2027C8EB0D
:103550000401002920DBDDE90ABC12EB080043EB83
:103560000901584571EB0C0111DAA96801390029EC
:10357000A96004DB2968481C28600F7007E0294611
:103580002020CDE9082300F085FDDDE9082318F1AE
:10359000010849F10009DAE7049B002EA8BF9B1936
:1035A000F5E3600609D508F1070828F0070808F1D7
:1035B00008030793D8E900BC07E0D8F8002008F119
:1035C0000403934607934FF0000C210602D51FFA1F
:1035D0008BFB03E0E20503D50BF0FF0B4FF0000C73
:1035E000404914F0080F404808BF0846E30640F180
:1035F000EA8024F40074E6E0660609D508F10708BD
:1036000028F0070808F108030793D8E900BC07E091
:10361000D8F8002008F10403934607934FF0000CFC
:10362000200602D51FFA8BFB03E0E10503D50BF062
:10363000FF0B4FF0000C2B4914F0080F2B4808BF6C
:103640000846E20640F1C18024F40074BDE0D8F8D9
:10365000002008F10403079393464FF0000C24491F
:103660002248B5E0630609D508F1070828F00708E5
:1036700008F108030793D8E900BC07E0D8F8002058
:1036800008F10403934607934FF0000C260602D579
:103690001FFA8BFB03E0E00503D50BF0FF0B4FF0A7
:1036A000000C14F0080F0F4912485EE0610609D5BE
:1036B00008F1070828F0070808F108030793D8E97C
:1036C00000BC07E0D8F8002008F1040393460793F4
:1036D0004FF0000C22060FD51FFA8BFB10E000BF45
:1036E000EC4E0000B34E0000F34E0000F64E00001A
:1036F0000C4F0000F94E0000E30503D50BF0FF0B63
:103700004FF0000C14F0100161D024F4007400217B
:103710005DE0660609D508F1070828F0070808F1FA
:1037200008030793D8E9002305E0D8F8002008F142
:1037300004030793D317200601D512B202E0E10576
:1037400001D552B2D317002A73F1000105DAD2F184
:10375000000B63EB430CB1480BE09346A2079C4679
:1037600006D4AF49AF4814F0040F08BF084600E084
:10377000AD4814F010012BD024F40074002127E090
:10378000E3065CBF44F010044FF00D0914F0100F75
:1037900008F1070828F0070808BF4FF0060914F0E1
:1037A000200144F4806008F1080318BF002107934A
:1037B0000446D8E900234FF0000BCDE926234FF053
:1037C000000C084604E0994902E0994900E0944859
:1037D000049EDDE90A23921B63EBE673CDE908231F
:1037E00023904FF0FF3024902590CDF88890002052
:1037F0004FF0550328AE835501302028F8D114F43A
:10380000826F04BF01202290672F14DC652F80F2A5
:10381000BC80472F00F0B98006DC412F00F0B58056
:10382000452F40F0C280B0E0612F00F0AE80642FE1
:1038300011D0582F0CE0702F10D006DC692F0AD061
:103840006F2F40F0B28000211DE0752F03D0782F3C
:1038500040F0AB8002E000260A2728E000205BEA67
:103860000C03804600F0A3800BF00F068F5D28AE9E
:1038700087554FEA1B1646EA0C764FEA1C17B346EB
:10388000BC460130EBE75BEA0C03884600F08F8012
:103890000BF00700303028AE88554FEADB0040EAD5
:1038A0004C704FEADC068346B4460131EBE75BEA35
:1038B0000C03B0467BD05FEA5C014FEA3B004FEA65
:1038C0009B0343EA8C7318934FEA9C031993DDE939
:1038D000182312184B4119461046130943EA017385
:1038E00010930B091193DDE9102312184B4119466F
:1038F0001046130A43EA016312930B0A1393DDE99E
:10390000122312184B4119461046130C43EA014387
:1039100014930B0C1593DDE9142312184B41104638
:1039200019461A9300231B93DDE91A2312184B4101
:103930001946D30843EA41730C93CB080D930C9BB3
:103940001BF10600A3FB07890D9B4CF1000107FB4F
:103950000399B0EB080061EB0901030943EA017325
:1039600016930B091793DDE91623DDE90C01801886
:1039700059410BF1300200EB8003A2EB430228AB6C
:10398000F254834601368C4691E725AB039324AB72
:10399000029322AB019323AB009328AA234626A9C6
:1039A00038463C9EB047804601E04FF0000814F4D2
:1039B00080631C930ED000232293249B002BC4BF52
:1039C00003F1FF332293259B002B09DD229A013B53
:1039D000134404E0229BB3EB080348BF0023229367
:1039E000229E239800F0EEFA0E9B46449E1B04F0A4
:1039F00001030E9340F201232340361A2BB9002213
:103A00000023771E4FF020091DE04FF000094846C3
:103A1000C11700220023CDE91E013EE0E64E000062
:103A2000B34E0000B64E0000B44E0000FB4E000046
:103A30000C4F0000DDE90801824273EB010106DB57
:103A4000013243F10003B91A0029F3DA13E0A9683F
:103A500001390029A96005DB2968481C286081F824
:103A60000090EDE729462020CDE91E2300F012FB4F
:103A7000DDE91E23E4E726EAE679C9EB0706C6E797
:103A8000DDE91E0180185941DDE908BC584571EB9C
:103A90000C010DDB013243F10003239909EB02070E
:103AA000481C239091F800E0BEF1000FE8D113E02C
:103AB000A96801390029A96005DB2968481C28602C
:103AC00081F800E0E6E729467046CDE9202300F0C2
:103AD000E1FADDE92023DDE70E9B002B35D13846E6
:103AE000F917CDE91E0114F4007F14BF4FF030091F
:103AF0004FF0200900220023741EA11A002920DBA8
:103B0000DDE91E01DDE908BC80185941584571EB1B
:103B10000C0112DAA96801390029A96005DB2968BE
:103B2000481C286081F8009007E029464846CDE906
:103B3000202300F0AFFADDE92023013243F1000336
:103B4000DBE726EAE6763744A61B1C9B43B93846DA
:103B5000F91700220023CDE91C014FF030098FE056
:103B60000024A04540F3DE8028ABE05C3C2808D070
:103B70003E285FD13846F91700220023CDE91C0109
:103B80003BE03846F917CDE91C01002200232499B7
:103B900007EB020901390029249161DBDDE91C01F1
:103BA000DDE908BC80185941584571EB0C0113DA66
:103BB000A96801390029A96006DB2968481C28602A
:103BC0004FF03000087007E029463020CDE91E2371
:103BD00000F060FADDE91E23013243F10003D6E76D
:103BE000DDE91C0180185941DDE908BC584571EB3D
:103BF0000C010ADB013243F10003259907EB0209AE
:103C0000013900292591EBDA2AE0A9680139002958
:103C1000A96006DB2968481C28604FF03000087056
:103C2000E8E729463020CDE91E2300F033FADDE92C
:103C30001E23DFE7DDE908BCFB175F4573EB0C03D0
:103C400007F101090CDAAB68013B002BAB6004DB28
:103C50002B685A1C2A60187002E0294600F01AFAF4
:103C600001344F467DE7DDE91C0180185941DDE94B
:103C700008BC584571EB0C0109DB013243F100032C
:103C80002299BC18013900292291ECDA13E0A968C5
:103C900001390029A96005DB2968481C286081F8E2
:103CA0000090EAE729463020CDE91E2300F0F2F922
:103CB000DDE91E23E1E72046E11730ABCDE91C0129
:103CC00003EB0807213F00220023C2EB0801002973
:103CD00022DDDDE91C01DDE908BC801859415845A9
:103CE00071EB0C0112DAA96801390029A96005DB22
:103CF0002968481C28603878087007E02946387819
:103D0000CDE91E2300F0C6F9DDE91E23013207F1DB
:103D1000FF3743F10003D8E7B8F1000FACBF04EB65
:103D20000807271C0E9B83B33A464FF000084FF05C
:103D30000009741EFB17C8EB0401002922DBDDE932
:103D400008BC12EB080043EB0901584571EB0C016C
:103D500013DAA96801390029A96006DB2968481C23
:103D600028604FF02000087007E029462020CDE9A8
:103D70000E2300F08FF9DDE90E2318F1010849F157
:103D80000009D8E7002EA8BFBF19049B3B44049349
:103D900000E00494DDF81C80049C04945346FFF773
:103DA00082B902FB09391AF8017BFFF7F1B90498CF
:103DB00031B0BDE8F08F00BF0A4B034493F8803068
:103DC0009A0601D5303808E01A0701D5573804E0C3
:103DD000DB064CBF37384FF0FF308842A8BF4FF0AA
:103DE000FF307047284F00002DE9F84F80461546F8
:103DF0000346894629491C4614F8010BC8B10A1824
:103E000092F88020D20701D52346F4E7302810D15C
:103E100058789C1C00F0DF02582A06D135F01006B5
:103E20003AD1DC1C9878102508E0012635B9082520
:103E300004E00DB1002601E02E460A250027BA460F
:103E4000BB462946FFF7B8FF00280EDB05FB070736
:103E50003B0C05FB0A3ABAF5803FBFB228BF4FF0D2
:103E6000010B14F8010B0126EBE7B9F1000F05D0A7
:103E70000EB1013C00E04446C9F80040BBF1000F20
:103E800006D0074B22221A604FF0FF30BDE8F88FB2
:103E900047EA0A40BDE8F88F0126CFE7284F000027
:103EA0007C0A0010F7B50E46074605461A48294613
:103EB00011F8014B94B1031993F8803013F001030A
:103EC00001D00D46F3E72B2C06D02D2C0ABF4FF462
:103ED000007400240D4601E00D461C4601A9284649
:103EE000FFF782FF26B1019B9D4208BF3B4633602E
:103EF000A30508D5404200280CDD084B22221A6099
:103F00004FF0004006E00028BFBF044B22221A6099
:103F10006FF0004003B0F0BD284F00007C0A001095
:103F200038B5044C0A2225680021FFF7BBFF256045
:103F300038BD00BF7C0A001070B5C468A50717D053
:103F4000B2F5007F09D0B2F5806F03D0B2F5807F63
:103F50000ED102E0416A012303E0064D5E1EAE422F
:103F600006D8224301610160C361C260002070BDB8
:103F7000012070BDFEFFFF000028B8BF404270471F
:103F800040EA01039B0730B510D105460C46214697
:103F900028460B6855F8042B04349A4206D1A2F146
:103FA000013323EA020313F0803FF0D010F8013B05
:103FB00011F8012B934201D0981A30BD002BF5D196
:103FC000184630BD10B5421C830705D010F8013BE0
:103FD000002BF9D1801A10BD034650F8041BA1F143
:103FE000013424EA010414F0803FF5D011F0FF0FF2
:103FF0000AD011F47F4F05D011F47F0F14BF034690
:10400000033302E0023300E00133981A10BDFFFFD2
:1040100038B50C4B1A680AB90B4A1A60C41C1D68E3
:1040200024F003042C442046FCF750FD18B9054B3E
:1040300028461C6038BD054B0C221A604FF0FF303B
:1040400038BD00BF780A00107C5D00107C0A0010AB
:10405000C36810B523F02003C360436A82695B68BC
:1040600004469A420FD000F0EAF8E368626A23F44B
:10407000405323F0100343F01003E3605368A3613F
:10408000236993602360E36823F4804323F04003B3
:10409000E36010BDF8B5CB68064623F400229F0606
:1040A0000C46CA6002D50846FFF7D2FFA168E36854
:1040B0004D1C0DDA98050BD443F49033E3606FF098
:1040C00001022368521AA2605A1C22601E707FE00F
:1040D00041F28A021A40022A1D4605D0002243F00E
:1040E0008003A260E36051E04AF210011940B1F58B
:1040F000004F0AD10021204600F0A2F9E36899069A
:1041000002D52046FFF7A4FFE56845F4903315F487
:10411000706FE3601CD1606900F0FFFD50B16A056B
:1041200008D5636A236123600123E36145F4923378
:10413000E3600DE04FF48050FEF708FA4FF480532F
:10414000E268E36145F494331A4320612060E26041
:1041500013F4106F216825691BD0636A9B688B423A
:104160002CBFC5EB0301C5EB010149B9636A6A1CA9
:104170009A602260E269511EA160DA602E7027E029
:104180002246284600F0DAF80028EFD04FF0FF3042
:10419000F8BD4A1C22600E70676A2268B9688A42BC
:1041A0002CBFC5EB0201C5EB0101E2695B05FA60BA
:1041B00004D4F0B20A2801D091420ADB0023BD608A
:1041C00022462560A360284600F0B8F80028DDD11B
:1041D000F0B2F8BD70B50D4606461046144600F024
:1041E000E1F82B78722B0AD0772B05D0612B22D1E6
:1041F000082348F2020204E00423022201E0002323
:10420000012215F8011F2B2906D0622909D142F09D
:10421000040243F00103F4E742F0030243F0020317
:10422000EFE71B07E260666107D502220021204606
:1042300000F006F901E0002070BD204670BD38B5E1
:104240000446436A05690168C0689B6820F400223F
:10425000E26000F08202022A02D04FF0FF3038BD47
:1042600010F4803016D0994238BF19468D4209D1DA
:10427000636A00209D60E368256023F48033A060BA
:10428000E36038BD2246491B284600F057F8002855
:10429000EED0E2E738BDF8B5154600230022064609
:1042A0000F4600F06CFC20B100232B6000200021A1
:1042B000F8BDC7F30A5330463946A3F2FE348BB932
:1042C0003246C7F31303D70F03F4002647EA43032C
:1042D000C3F3130352001EB163F31301104601E050
:1042E000013CF0E740F2FE332C6063F31E51F8BD51
:1042F00070B500231646002204460D4600F03FFC30
:1043000010B10020002170BD40F2FE73C5F30A52C7
:1043100032449A422046294606DD064B22221A6084
:10432000054BD3E9000170BD002AEADD62F31E519E
:1043300070BD00BF7C0A0010204F00002DE9F04145
:10434000D5688046EB020E461446576905D53846B7
:1043500000F0E0FC45F01005A061114B2B4053B17B
:10436000A169384600F0DFFC002810DB25F4003599
:1043700025F01005E560324641463846FDF7CEF996
:1043800020F00043F61AA3691E44A66128B1E36831
:104390004FF0FF3043F08003E360BDE8F08100BFE1
:1043A000100002002DE9F041C56888B0A907044655
:1043B000466A28D02A0719D4D0F81480076900F07B
:1043C00027F8404600F0A3FC2B0502D53846FEF73F
:1043D000A5F8AD0DAD0515F1A54F07D12022216A35
:1043E000684600F0A3FC684600F0D8F818220021C7
:1043F000606AFEF72DF8282200212046FEF728F8F3
:104400006662002001E04FF0FF3008B0BDE8F081A7
:1044100070B5044618B1BDE8704000F0C9B8054653
:10442000064E301900F0C4F82834002818BF4FF0A9
:10443000FF35B4F5A07FF4D1284670BD34090010D3
:104440002DE9F843C668414B044633400D4690467B
:10445000002B77D0D0F81490484600F05EFC074659
:1044600000286FD1B8F1010F06D0B8F1020F08D0C3
:10447000B8F1000F66D129E0204600F069F8054444
:1044800024E0484600F046FCB0F1000ED4F80CC021
:1044900004DA4CF08001E160012754E0606A83682F
:1044A0001A46A3691946236893422CBFC918891874
:1044B00023691CF0200FA1EB030303D04268934251
:1044C000B8BF13467345ACBFED187544002D39DBFA
:1044D00016F4005F626A04D023689168994238BF7D
:1044E0009360A1698D4210DB20689368D4F810E0D6
:1044F000834238BF03465818CEEB0000854204DCE7
:10450000D06801EB000C654506DB0023A360636007
:1045100046F0200655600FE06D1AB10744BF281A17
:10452000A060F20744BFCEEB0303EB1A754448BF0B
:104530006360256026F0200626F4032626F0400658
:10454000E66000E002273846BDE8F883030010006B
:10455000C3689A0705D1104B21221A604FF0FF3033
:10456000704713F4002F03F020030AD013B1436AFD
:10457000586804E00268836900691344181A013816
:10458000704713B1436A58687047026883690069CD
:104590001344181A704700BF7C0A001010B5044677
:1045A000FFF710FD01462046BDE8104000F0B8BB03
:1045B000C26870B512F00303044619D0930604D5FF
:1045C000436A5D68FFF744FD04E0056883692B4496
:1045D00005695D1BE368204623F44053E360FFF761
:1045E0002EFE0646002229462046FFF729FF3346C5
:1045F000184670BD2DE9F04FC1F30A5681EA030455
:10460000002E58D040F2FF77BE4254D0C3F30A5573
:10461000002D50D0BD424ED006EB050EC1F3130164
:10462000550D41F4801145EAC323D20243F0004501
:10463000A1FB02ABA2FB00234FF0000913EB0A0819
:1046400049F10009E0FB0589002719EB0B0647F14A
:104650000007E5FB0167B7F5801F04F0004448EA56
:10466000920809D2B6194FEAD873AEF5806E7F4131
:104670001E434FEA480801E0AEF2FF3E40F2FD72F1
:104680004FEAD873F61847F10007B8F1004F3346E8
:1046900008BF26F00103964505D83C4304EB0E51B4
:1046A0001846BDE8F08FBEF1000F0EDB44F0FF446A
:1046B00044F4E00409E0490011F5001F04F000444F
:1046C00007D25A0012F5001F04D200202146BDE88F
:1046D000F08F09D15B0013F5001F05D8490D49057E
:1046E00011B15B0D5B051BB900200549BDE8F08FDA
:1046F00044F0FF44002044F4E001BDE8F08F00BF27
:104700000000F87F2DE9F043C1F30A56002E58D07F
:1047100040F2FF77BE4254D0C3F30A54002C50D06D
:10472000BC424ED0C4EB060E460D81EA030446EAB5
:10473000C12141F00047510D41EAC32343F0004934
:10474000C6024FEAC2284F4508BF464502D20EF2C4
:10475000FD3104E07F084FEA36060EF2FE315FEAD3
:1047600059094FEA3808352300224F4508BF46450E
:104770004FEA420205D3B6EB080667EB090742F0A1
:104780000102B6197F41212B08BF1546013BECD130
:104790004F4508BF464502D3013208BF013540F2FC
:1047A000FD70814204F0004303D803EB0153591913
:1047B00022E00029A4BF43F0FF4343F4E0030020BC
:1047C00034E0480010F5001F03D85C0014F5001F0A
:1047D00001D900202DE041EA0302C2F30A52550537
:1047E0001AB915492846BDE8F083420D4B405205E1
:1047F00003F000431AB919461046BDE8F083620D74
:10480000520522B943F0FF4343F4E001F4E714F505
:10481000001F06D043F0FF43002043F4E001BDE851
:10482000F08310F5001F4FF0000002D01946BDE8DC
:10483000F0830149BDE8F0830000F87FF0B491EA0D
:10484000030405460E4605D503F100452B46F0BC92
:1048500000F0C4B8994203D3904208D8994206D1D7
:10486000554004F100416A404E404B40554040F2F3
:10487000FF70370D27F400618142A7EB135400F05D
:104880009C808C4200F09680C6F31301C3F313039F
:104890001F2C41F4801143F480134ED823FA04F006
:1048A000091A22FA04F0C4F12004A3401843281A7C
:1048B000854238BF01F1FF3112FA04F304D05B42A4
:1048C000451E10B9013900E0054611F4C01F51D151
:1048D000EA0FDB0F42EA410243EA450352EA0304CE
:1048E00069D0BD1E510B05D1190E41EA02221B02EF
:1048F000083DF7E7510C01BF190F41EA02121B01F5
:10490000043DD10C01BF990F41EA82029B00023D98
:10491000110D04BFD90F05F1FF354FEAD72404BFAD
:1049200041EA42025B00B4EBD52F4FF0000006BF16
:1049300002EB05511846E1074BE0352C1AD8203C14
:1049400023FA04F0281A8542C4F1200538BF01F18A
:10495000FF3122FA04F4AB40120643EA040302D00A
:1049600043F0FF0300E023B15B42451E10B901395B
:1049700000E00546CA020DD4013F7A0507D0EA0FD0
:1049800042EA4101DA0F42EA45055B0002E03905DF
:1049900010461EE0002B21F480124FEA075407DA7C
:1049A000013508BF0132B3F1004F08BF25F0010502
:1049B000A1180DE05CB9214607E033034FF0000079
:1049C00001D0054905E014B90349204601E031460C
:1049D0002846F0BC704700BF0000F87F70B491EA31
:1049E000030504460E4605D503F100452B4670BC71
:1049F000FFF724BF994204D2544062406E406B409E
:104A0000544040F2FF75300D20F40061A9425ED0A1
:104A1000A0EB13558D4255D0C6F31301C3F3130316
:104A20001F2D41F4801143F480130ED823FA05F6AC
:104A3000314422FA05F6C5F12005AB403343E418B2
:104A400028BF013102FA05F312E0352D10D8203DC0
:104A500023FA05F6A419C5F1200603FA06F322FA93
:104A600005F528BF01312B43120618BF43F0FF03A1
:104A70008A0215D5013408BF01310BB924F00204B4
:104A8000050505EB51056B0013F5001F04D2C9079E
:104A90002B4641EA540212E0431C190500201EE097
:104AA000002B00F1FF3007DA013408BF0131B3F108
:104AB000004F08BF24F00104224601EB00531046CA
:104AC00019460CE04DB906F00041284607E03303D3
:104AD0004FF0000001D0034901E03146204670BC90
:104AE000704700BF0000F87FCB0243EA50500B0D27
:104AF000C3F58363063340F00040FF2B20FA03F038
:104B000011D913F4E06F01D14042704711F0804099
:104B100009D04B0013F5001F04D8C80F00F1004066
:104B2000013870470020704710B9034602461BE069
:104B3000030C0CBF000401F18071030E0CBF0002D6
:104B400001F50001030F0CBF000101F58001830F87
:104B50000CBF800001F500110028ACBF400001F53A
:104B6000801101EBE023420510461946704710F012
:104B7000004118BF404201F18041FFF7D5BF10B599
:104B80004C0050EA040E02D152EA430E09D0994279
:104B900009D1904207D114F5001F8CBF00200120DD
:104BA00010BD012010BD002010BD30B5054651EAF2
:104BB00003000BD4580010F5001F1ED899421AD3D9
:104BC0001BD195422CBF0020012030BD480010F5BC
:104BD000001F12D85C0014F5001F0ED8284302D124
:104BE00052EA04000AD0994205D806D1954294BFF2
:104BF0000020012030BD012030BD002030BD30B587
:104C000051EA03040BD45C0014F5001F1FD899422D
:104C10001BD31CD190428CBF0020012030BD4D0021
:104C200015F5001F13D85C0014F5001F0FD899422A
:104C30000BD801D1904208D250EA050307D152EABD
:104C400004030CBF0120002030BD012030BD002036
:104C500030BD30B551EA03044FEA41040AD414F5DB
:104C6000001F1ED899421AD81BD1904234BF002091
:104C7000012030BD14F5001F13D85D0015F5001F8D
:104C80000FD899420BD301D1904208D950EA0403BE
:104C900007D152EA05030CBF0120002030BD0120DE
:104CA00030BD002030BD40EA0103DB0703460CD4D1
:104CB0000346043A22BF51F804CB43F804CBB2F1C7
:104CC0000402F7D2043208BF7047013A24BF11F83A
:104CD00001CB03F801CBF8D87047034613F0030F5C
:104CE0000ED101F0FF0141EA012141EA0141043AFC
:104CF00024BF43F8041BB2F10402F9D202F104020A
:104D0000013A24BF03F8011BFAE77047FEE74FF0B2
:104D1000FF3070474FF0FF3070474FF0FF30704763
:104D20004FF0FF3070474FF0FF3070474FF0FF30CB
:104D30007047FFFF4449453A4552524F523A467236
:104D4000656552544F533A204D616C6C6F63204639
:104D500061696C757265210D0A0000004449453A8D
:104D60004552524F523A4672656552544F533A205B
:104D7000537461636B206F766572666C6F77206920
:104D80006E207461736B2025730D0A0049444C45F5
:104D900000FFFFFF66660D0A00000000677269648D
:104DA00020737472204641494C210D0A0000000016
:104DB00053640D0A00000000676F20746F20676F56
:104DC000646F776E53746174650D0A0053690D0A40
:104DD00000000000676F20746F2069646C652073A9
:104DE000746174650D0A000053720D0A0000000022
:104DF000726573657420706F732073746174650DD0
:104E00000A000000253032642530326420257820E5
:104E100025303478202000002564200072623A009A
:104E20007278204649464F206E6F7420656D70740D
:104E300079206F6E20656E74657220676574506F9F
:104E4000730D0A00706F732067657420726570655A
:104E500061740D0A00000000706F733A2025642011
:104E600025640D0A0000000025642025640D0A0059
:104E7000737973636C6B2025642070657269706848
:104E80002025640D0A000000765561727463747207
:104E90006C000000001BB700008000002A2A2A20B6
:104EA0005F437379735F616C6C6F63206661696CDB
:104EB00065640A002B0020003078256370256400AB
:104EC0003058256350256400307825632E252E2A1E
:104ED0006C6C7870256400305825632E252E2A6C62
:104EE0006C58502564002D0072007700286E756C98
:104EF0006C290030580030780030003031323334C3
:104F00003536373839414243444546003031323333
:104F100034353637383961626364656600FFFFFFF8
:104F2000FFFFFFFFFFFFEF7F000000000000000019
:104F30000000000000000000000000000000000071
:104F40000000000000000000000000000000000061
:104F50000000000000000000000000000000000051
:104F60000000000000000000000000000000000041
:104F70000000000000000000000000000000000031
:104F80000000000000000000000000000000000021
:104F90000000000000000000000000000000000011
:104FA0000000000000000000404040404040404001
:104FB00040414141414140404040404040404040EC
:104FC00040404040404040400502020202020202CE
:104FD00002020202020202022020202020202020C1
:104FE0002020020202020202029090909090901003
:104FF00010101010101010101010101010101010B1
:10500000101010020202020202888888888888082C
:105010000808080808080808080808080808080810
:105020000808080202020240000000000000000020
:105030000000000000000000000000000000000070
:105040000000000000000000000000000000000060
:105050000000000000000000000000000000000050
:105060000000000000000000000000000000000040
:105070000000000000000000000000000000000030
:105080000000000000000000000000000000000020
:105090000000000000000000000000000000000010
:0850A000000000000000000008
:0850A800AAAAAAAAFFFFFFFF5C
:040000030000011DDB
:00000001FF
