:100000000080001071010000E9010000F101000012
:10001000F9010000010200000902000000000000D8
:100020000000000000000000000000005504000077
:1000300019020000000000004D0500008D050000C1
:1000400031020000310200003102000031020000E4
:1000500031020000310200003102000031020000D4
:1000600031020000310200003102000031020000C4
:1000700031020000310200003102000031020000B4
:1000800031020000310200003102000031020000A4
:100090003102000031020000310200003102000094
:1000A0003102000031020000310200003102000084
:1000B0003102000031020000310200003102000074
:1000C000310200003102000031020000184B000034
:1000D0000000001008000000184B000000C00720BE
:1000E00000000000080000109C02000000C0072073
:1000F0000000000080B489B000AFF860B9607A6099
:10010000BB68FB61FB68BB6100237B610AE0FB69A4
:100110001A1DFA61BA69111DB96112681A607B690A
:1001200004337B617A697B689A42F0D300BF24373D
:10013000BD4680BC704700BF80B485B000AF78601A
:1001400039607B68FB600023BB6007E0FB681A1D19
:10015000FA6000221A60BB680433BB60BA683B686F
:100160009A42F3D300BF1437BD4680BC704700BF2E
:1001700080B584B000AF194BFB6013E0FB681A1D1B
:10018000FA601B68BB60FB681A1DFA601B687B6025
:10019000FB681A1DFA601B683B603A687968B868AA
:1001A000FFF7A8FFFB680E4A9342E7D30DE0FB6818
:1001B0001A1DFA601B687B60FB681A1DFA601B68D9
:1001C0003B6039687868FFF7B7FFFB68054A9342E0
:1001D000EDD301F03FF902F065F8FEE7CC00000036
:1001E000E4000000F400000080B400AFFEE700BFB0
:1001F00080B400AFFEE700BF80B400AFFEE700BFF1
:1002000080B400AFFEE700BF80B400AFFEE700BFE0
:1002100080B400AFFEE700BF80B400AFFEE700BFD0
:1002200080B400AFFEE700BF80B400AFFEE700BFC0
:1002300080B400AFFEE700BF80B400AF30BF00BFA6
:10024000BD4680BC704700BF80B584B000AF786009
:1002500000F090FB786802F031F8F86000F0BEFB27
:10026000FB6818461037BD4680BD00BF80B582B020
:1002700000AF78607B68002B06D000F07BFB7868CD
:1002800002F080F800F0AAFB00BF0837BD4680BD31
:1002900080B483B000AF78607B6803F108027B68AC
:1002A0005A607B684FF0FF329A607B6803F1080266
:1002B0007B68DA607B6803F108027B681A617B68FF
:1002C00000221A6000BF0C37BD4680BC704700BFDB
:1002D00080B483B000AF78607B6800221A6100BFF1
:1002E0000C37BD4680BC704780B485B000AF7860E5
:1002F00039607B685B68FB603B68FA685A60FB6842
:100300009A683B689A60FB689B683A685A60FB6829
:100310003A689A603B687A681A617B681B685A1C65
:100320007B681A6000BF1437BD4680BC704700BFB1
:1003300080B485B000AF786039603B681B68BB60F3
:10034000BB68B3F1FF3F03D17B681B69FB600CE026
:100350007B680833FB6002E0FB685B68FB60FB685E
:100360005B681A68BB689A42F6D9FB685A683B68B2
:100370005A603B685B683A689A603B68FA689A60C2
:10038000FB683A685A603B687A681A617B681B6848
:100390005A1C7B681A6000BF1437BD4680BC70478A
:1003A00080B485B000AF78607B685B687A689268DB
:1003B0009A607B689B687A6852685A607B681B69A0
:1003C000FB60FB685A687B689A4203D17B689A6835
:1003D000FB685A607B6800221A61FB681B685A1E22
:1003E000FB681A60FB681B6818461437BD4680BC62
:1003F000704700BF80B485B000AFF860B9607A6024
:10040000FB68043BFB60FB684FF080721A60FB687E
:10041000043BFB60BA68FB681A60FB68043BFB6046
:10042000084AFB681A60FB68143BFB607A68FB684B
:100430001A60FB68203BFB60FB6818461437BD461A
:1004400080BC70474904000080B500AF00F070F830
:10045000FEE700BF064B19680868B0E8F00F80F3AC
:1004600009884FF0000080F311884EF00D0E7047A0
:100470001400001000BF00BF04480068006880F34B
:10048000088862B600DF00BF00BF000008ED00E092
:1004900080B500AF0A4A0A4B1B6843F47803136027
:1004A000074A074B1B6843F07843136000F030F9AC
:1004B000044B00221A60FFF7DFFF0023184680BDBF
:1004C00020ED00E00000001080B400AF054B4FF0BD
:1004D00080521A60BFF34F8FBFF36F8F00BFBD46CE
:1004E00080BC704704ED00E080B500AF00F020F85C
:1004F000054B1B680133044A1360BFF34F8FBFF3F2
:100500006F8F00BF80BD00BF0000001080B500AF3E
:10051000064B1B68013B054A1360044B1B68002B0C
:1005200002D1002000F00EF800BF80BD00000010D6
:10053000EFF311804FF0280181F3118870470023F9
:10054000184600BF80F31188704700BFEFF30980A1
:100550000C4B1A6820E9F00F10602DE908404FF0AD
:10056000280080F3118800F08FFB4FF0000080F32B
:100570001188BDE8084019680868B0E8F00F80F3FA
:10058000098870471400001000BF00BF80B500AF9D
:10059000FFF7CEFF00F0B2FA0346002B03D0044B66
:1005A0004FF080521A600020FFF7CCFF00BF80BDE3
:1005B00004ED00E080B588B000AF78604E4B1B685A
:1005C0007A689A4202D94C4B1B687B604B4B0622DF
:1005D0001A604B4B1A687B68013B4A49096801FB6A
:1005E00003F31344FB61484B1B68FA699A4204D930
:1005F000454B1B68FA69D31AFB6172B600F0B4FB75
:100600000346002B0DD1414A3D4B1B6813603B4B09
:1006100007221A603D4A3B4B1B68013B136062B6E0
:1006200065E03A4AFB691360354B00221A60334B90
:1006300007221A607B683B613B69002B04D0BFF343
:100640004F8F30BFBFF36F8F2C4B06221A6062B6FC
:100650002A4B1B6803F48033002B1DD0294B1A68EA
:10066000274B1968FB69CB1A1344013B7B61264B6E
:100670001B687A699A4204D3224B1B687A699A42B2
:1006800003D9204B1B68013B7B61204A7B691360C7
:100690007B68013BBB6118E01A4B1B687A6802FB60
:1006A00003F2174B1B68D31AFB60164B1B68FA68E2
:1006B000B2FBF3F3BB611549BB690133114A126800
:1006C00002FB03F2FB68D31A0B600D4B00221A6089
:1006D000FFF70AFF094B07221A60B86900F0FCF91E
:1006E0000A4A084B1B68013B1360FFF70FFF00BF6E
:1006F0002037BD4680BD00BF0C00001010E000E0B8
:1007000018E000E0080000101000001014E000E005
:1007100080B400AF154B1B68154AA2FB03239B094D
:10072000144A1360134B1B686FF07F42B2FBF3F364
:10073000114A13600D4B1A680C4B1B68B2FBF3F3A4
:100740002D22B2FBF3F30D4A13600D4A074B1B68D1
:100750000749A1FB03139B09013B1360094B0722C7
:100760001A6000BFBD4680BC704700BFA0020010E9
:10077000D34D6210080000100C0000101000001093
:1007800014E000E010E000E080B58AB002AFF8604D
:10079000B9603B601346FB80FB88396B184600F05C
:1007A0000FFCB861BB69002B6AD0BB691A6BFB8870
:1007B00003F18043013B9B0013447B617B6923F081
:1007C00007037B61FB8800937B6BBA6AB968B869E1
:1007D00000F0F8FA3A68F9687869FFF70BFE02460C
:1007E000BB691A60FB6A002B02D0FB6ABA691A6007
:1007F000FFF77AFE2E4B1B6801332D4A13602D4BF9
:100800001B68002B09D12B4ABB691360284B1B685E
:10081000012B0FD100F022FB0CE0274B1B68002BB3
:1008200008D1244B1B68DA6ABB6A9A4202D8214A73
:10083000BB691360214B1B680133204A13601F4BB7
:100840001A68BB699A64BB69DA6A1D4B1B689A42D5
:1008500003D9BB69DB6A1A4A1360BB69DA6A1346BB
:100860009B0013449B00174A1A44BB690433194682
:100870001046FFF739FD0123FB61FFF747FE02E059
:100880004FF0FF33FB61FB69012B0BD10A4B1B6857
:10089000002B07D0074B1B68DA6ABB6A9A4201D269
:1008A000FFF712FEFB6918462037BD4680BD00BF2A
:1008B000280100101400001034010010480100103D
:1008C000300100101800001080B584B000AF7860CF
:1008D0000023FB607B68002B12D000F04BF80D4B1F
:1008E0001A687B681344BB600B4B1B6804331846C3
:1008F000FFF756FDB86800F02DFB00F06FF8F860C8
:10090000FB68002B01D1FFF7DFFD00BF1037BD46AC
:1009100080BD00BF2C0100101400001080B586B00F
:1009200004AF0023039300230293002301930023C9
:100930000093002380220B490B48FFF725FF7860C6
:100940007B68012B09D1FFF7F3FD084B01221A60E8
:10095000074B00221A60FFF79BFD00BF0837BD461A
:1009600080BD00BFBC490000210D00003401001013
:100970002C01001080B400AF044B1B680133034A04
:10098000136000BFBD4680BC704700BF3801001037
:1009900080B483B000AF0D4B1B68DB6A002B02D024
:1009A00000237B600CE00A4B1B68012B02D900235B
:1009B0007B6005E0074B1A68074B1B68D31A7B6006
:1009C0007B6818460C37BD4680BC70471400001089
:1009D00018000010040000102C01001080B582B037
:1009E00000AF00237B60FFF77FFD334B1B68013BAB
:1009F000314A1360304B1B68002B56D12F4B1B68BC
:100A0000002B52D02FE02E4BDB68DB683B603B684D
:100A100018331846FFF7C4FC3B6804331846FFF749
:100A2000BFFC3B68DA6A274B1B689A4203D93B68D4
:100A3000DB6A244A13603B68DA6A13469B0013445E
:100A40009B00214A1A443B68043319461046FFF7BD
:100A50004BFC3B68DA6A1D4B1B68DB6A9A4202D387
:100A60001B4B01221A60164B1B68002BCBD1194B74
:100A70001B68002B11D00CE000F040F80346002B5F
:100A800002D0134B01221A60124B1B68013B114A22
:100A90001360104B1B68002BEED10D4B1B68012B14
:100AA00003D101237B60FFF70FFDFFF72FFD7B686C
:100AB00018460837BD4680BD3801001028010010D7
:100AC000E8000010300100101800001014000010A1
:100AD000400100103C01001080B483B000AF78608A
:100AE000054B1A687B681344034A136000BF0C3738
:100AF000BD4680BC704700BF2C01001080B586B099
:100B000000AF00237B61554B1B68002B40F09580A4
:100B1000534B1B680133524A1360514B1B683B61B6
:100B20003B69002B26D14F4B1B68FB604E4B1B686B
:100B30004C4A13604C4AFB6813604C4B1B680133F2
:100B40004A4A1360474B1B681B68002B01D10123E5
:100B500000E00023002B04D0454B4FF0FF321A6019
:100B600008E0404B1B68DB68DB68BB60BB685B6808
:100B70003F4A13603E4B1B683A699A424ED3394B49
:100B80001B681B68002B01D1012300E00023002B10
:100B900004D0374B4FF0FF321A603FE0314B1B68F7
:100BA000DB68DB68BB60BB685B687B603A697B685D
:100BB0009A4203D22E4A7B6813602FE0BB6804334D
:100BC0001846FFF7EDFBBB689B6A002B04D0BB689F
:100BD00018331846FFF7E4FBBB68DA6A254B1B683D
:100BE0009A4203D9BB68DB6A224A1360BB68DA6A9F
:100BF00013469B0013449B001F4A1A44BB680433EE
:100C000019461046FFF770FBBB68DA6A1B4B1B687E
:100C1000DB6A9A42B3D301237B61B0E7174B1B68B1
:100C2000DA6A154913469B0013449B000B441B686A
:100C3000012B07D901237B6104E0114B1B680133B1
:100C40000F4A13600F4B1B68002B01D001237B61FF
:100C50007B6918461837BD4680BD00BF38010010BB
:100C60002C010010E0000010E4000010440100100E
:100C700004000010300100101800001014000010D3
:100C80003C0100104001001080B483B000AF1F4B46
:100C90001B68002B03D01E4B01221A6031E01C4B55
:100CA00000221A6004E01B4B1B68013B194A1360C9
:100CB000184B1A68184913469B0013449B000B44B9
:100CC0001B68002BEFD0134B1A6813469B0013448C
:100CD0009B00114A13447B607B685B685A687B68A1
:100CE0005A607B685A687B6808339A4204D17B68F3
:100CF0005B685A687B685A607B685B68DB68074A98
:100D0000136000BF0C37BD4680BC7047380100102F
:100D100040010010300100101800001014000010F5
:100D200080B584B000AF786000F0D8F80D4B1B6838
:100D3000012B01D9FFF7C8FBFFF77EFAFFF728FE6A
:100D4000F860FB68012BEFD9FFF714FEFFF720FED8
:100D5000F860FB68012B02D9F868FFF72BFCFFF75E
:100D60003DFEE1E71800001080B483B000AF01231E
:100D7000FB71104B1B68002B02D00023FB7112E0AB
:100D80000D4B1B68002B02D00023FB710BE00123ED
:100D90003B600A4B1A680A4B19683B68CB1A9A42A7
:100DA00001D10223FB71FB7918460C37BD4680BC8C
:100DB000704700BFE800001040010010140100104F
:100DC0002801001080B586B000AFF860B9607A6085
:100DD0003B6000237B6114E0BA687B69134493F99C
:100DE0000010FA687B69134434330A461A70BA68F3
:100DF0007B69134493F90030002B06D07B690133E3
:100E00007B617B69132BE7D900E000BFFB68002200
:100E100083F847207B68072B01D907237B60FB6899
:100E20007A68DA62FB687A681A65FB6804331846E8
:100E3000FFF74EFAFB6818331846FFF749FAFB68CC
:100E4000FA681A617B68C3F10802FB689A61FB6863
:100E5000FA685A6200BF1837BD4680BD80B582B0BF
:100E600000AF00237B600CE07A6813469B001344BC
:100E70009B00124A13441846FFF70AFA7B680133B5
:100E80007B607B68072BEFD90D48FFF701FA0D480F
:100E9000FFF7FEF90C48FFF7FBF90C48FFF7F8F9EC
:100EA0000B48FFF7F5F90B4B054A1A600A4B054A48
:100EB0001A6000BF0837BD4680BD00BF1800001093
:100EC000B8000010CC000010E8000010FC0000107A
:100ED00014010010E0000010E400001080B582B0A2
:100EE00000AF28E0FFF746FD174B1B68002B0CBF37
:100EF00001230023DBB27B60FFF770FD7B68002BD2
:100F000019D1FFF7F1FA104BDB68DB683B603B68F7
:100F100004331846FFF744FA0C4B1B68013B0B4A9D
:100F200013600B4B1B68013B094A1360FFF7EEFA95
:100F3000386800F077F8064B1B68002BD2D100BF51
:100F40000837BD4680BD00BFFC000010280100101E
:100F50001001001080B582B000AF7860134B1B68A1
:100F60007A685A60124B1B687A689A4209D2114B10
:100F70001A680E4B1B68043319461046FFF7D8F960
:100F800010E00D4B1A68094B1B68043319461046D4
:100F9000FFF7CEF9094B1B687A689A4202D2074ADA
:100FA0007B68136000BF0837BD4680BD1400001089
:100FB0002C010010E4000010E000001004000010FC
:100FC00080B584B000AF03463960FB805420FFF742
:100FD0003BF9F860FB68002B1ED03B68002B06D164
:100FE000FB889B001846FFF72FF9034600E03B689B
:100FF000FA681363FB681B6B002B05D1F868FFF7D9
:1010000035F90023FB6007E0FB68186BFB889B0049
:101010001A46A52101F050F9FB6818461037BD4665
:1010200080BD00BF80B582B000AF78607B681B6B6D
:101030001846FFF71BF97868FFF718F900BF083763
:10104000BD4680BD80B483B000AF786008461146CD
:101050001A460346FB700B46BB7013467B707B78C9
:10106000002B0FD0FB785B017A681344FA785201A9
:1010700079680A449169BA78012000FA02F20A43B9
:101080009A610EE0FB785B017A681344FA785201AA
:1010900079680A44D169BA78012000FA02F20A4359
:1010A000DA6100BF0C37BD4680BC704780B584B0A4
:1010B00000AFF860B96011461A460B46FB71134643
:1010C000BB71BB68D9B2BB79FA79F868FFF7BAFF90
:1010D00000BF1037BD4680BD80B483B000AF7860DC
:1010E0000B46FB701346BB70FB785B017A681344B8
:1010F000FA78520179680A441168BA78012000FA36
:1011000002F20A431A6000BF0C37BD4680BC70472C
:1011100080B483B000AF78600B46FB701346BB70A1
:10112000FB785B017A681344FA78520179680A44C3
:101130001168BA78012000FA02F2D2430A401A601C
:1011400000BF0C37BD4680BC704700BF80B582B081
:1011500000AF7860084611461A460346FB700B46FE
:10116000BB7013467B707B78002B06D0BA78FB7877
:1011700019467868FFF7B0FF05E0BA78FB781946A2
:101180007868FFF7C5FF00BF0837BD4680BD00BFC8
:1011900080B582B000AF7860084611461A46034613
:1011A000FB700B46BB7013467B707B78BA78F9787E
:1011B0007868FFF7CBFF00BF0837BD4680BD00BF92
:1011C00080B483B000AF78607B685B6843F0020254
:1011D0007B685A6000BF0C37BD4680BC704700BFBB
:1011E00080B483B000AF78600B467B807A887B68E0
:1011F0009A6000BF0C37BD4680BC704780B485B094
:1012000000AFF860B9607A603B60FB681B6823F050
:10121000FF02BB681A437B681A433B681A43FB68AA
:101220001A6000BF1437BD4680BC704780B582B0DD
:1012300002AF00F037FB00F099FA01230093082376
:1012400002220021084800F045FD012300930823F5
:1012500003220021044800F03DFD0021002000F0A1
:101260006DFA00BFBD4680BD00C0024080B584B0AD
:1012700000AF78600123052202210A48FFF788FFAA
:101280000023FB73FB7B052202210648FFF70EFFBC
:10129000FB7B83F00103FB734FF4FA70FFF714FB41
:1012A000F0E700BF00C0092080B584B000AF7860CF
:1012B0000023FB73FB7B1946002000F03FFAFB7B09
:1012C00083F00103FB73A620FFF7FEFAF2E700BFED
:1012D00080B584B000AF78600023FB60F9680548F2
:1012E00001F08EFDFB680133FB604FF4FA70FFF7ED
:1012F000EBFAF3E7C449000080B582B000AF786034
:10130000124800F045FA114800F00AFE104B002286
:101310009A700F4B07221A700D4B00225A700C4B1B
:101320001B7819460A4B9B781A46094B5B7807488D
:10133000FFF764FF0548FFF743FF4AF6CD31034846
:10134000FFF74EFF4720FFF7BFFAF6E7008008409F
:101350004C010010FFFFFFFFF0B585B004AFFFF7B1
:1013600065FF00F07BFC0346184603F062FA2EA3EB
:10137000D3E9002303F020F803460C461D46264619
:10138000152000F077FC0346184603F052FA26A316
:10139000D3E9002303F010F803460C46CDE90034EE
:1013A0002A463346224801F02BFD002303930023F5
:1013B00002930023019301230093002380221D49FF
:1013C0001D48FFF7E1F90023039300230293002354
:1013D0000193012300930023802218491848FFF746
:1013E000D3F90023039300230293002301930123E5
:1013F00000930023802213491348FFF7C5F9002307
:1014000003930023029300230193012300930023FD
:1014100080220E490E48FFF7B7F9FFF77FFA012344
:1014200018460437BD46F0BD0000000080842E4100
:10143000D0490000F4490000A9120000004A000051
:10144000D11200000C4A00006D120000184A000082
:10145000F912000080B582B000AF054B7B60054AF1
:101460007B681A6000F016FA00BF0837BD4680BDE1
:1014700008ED00E00000000080B582B000AF7860A9
:101480000F2000F003FB00BF0837BD4680BD00BF42
:1014900080B582B000AF78600F2000F0F7FA00BF8F
:1014A0000837BD4680BD00BF80B483B000AF786010
:1014B000084611461A460346FB700B46BB7013469E
:1014C0007B707B78002B0FD0FB785B017A6813442C
:1014D000FA78520179680A449169BA78012000FAD1
:1014E00002F20A439A610EE0FB785B017A681344CA
:1014F000FA78520179680A44D169BA78012000FA71
:1015000002F20A43DA6100BF0C37BD4680BC704767
:1015100080B584B000AFF860B96011461A460B463A
:10152000FB711346BB71BB68D9B2BB79FA79F86815
:10153000FFF7BAFF00BF1037BD4680BD80B483B04F
:1015400000AF78600B46FB701346BB70FB785B0105
:101550007A681344FA78520179680A441168BA78B3
:10156000012000FA02F20A431A6000BF0C37BD46A0
:1015700080BC704780B483B000AF78600B46FB70CE
:101580001346BB70FB785B017A681344FA7852010A
:1015900079680A441168BA78012000FA02F2D2434D
:1015A0000A401A6000BF0C37BD4680BC704700BFC0
:1015B00080B582B000AF7860084611461A460346EF
:1015C000FB700B46BB7013467B707B78002B06D0FC
:1015D000BA78FB7819467868FFF7B0FF05E0BA786B
:1015E000FB7819467868FFF7C5FF00BF0837BD468E
:1015F00080BD00BF80B582B000AF7860084611465C
:101600001A460346FB700B46BB7013467B707B7813
:10161000BA78F9787868FFF7CBFF00BF0837BD4686
:1016200080BD00BF80B483B000AF78600B46FB7014
:10163000FA787B681A6000BF0C37BD4680BC7047E3
:1016400080B483B000AF786039607B683A68DA6054
:1016500000BF0C37BD4680BC704700BF80B483B06C
:1016600000AF78607B685B6918460C37BD4680BC6C
:10167000704700BF80B586B000AFF860B9607A608F
:1016800000237B6109E0BA687B6913441B78184624
:1016900000F03AF87B6901337B617B687A699A4292
:1016A000F1D37B6818461837BD4680BD80B500AFC2
:1016B0000123162200210248FFF79CFF00BF80BDD6
:1016C00000C0092080B483B000AF786000BF0C3741
:1016D000BD4680BC704700BF80B500AF0948FFF72A
:1016E000F1FF084800F058FD4FF4E131054800F0E3
:1016F000A7FD03210348FFF7A3FF024800F088FD80
:1017000000BF80BD00C0004080B582B000AF03467E
:10171000FB7100BF0848FFF7A1FF034603F0200359
:10172000002BF7D0FB7919460348FFF77BFF00BF7A
:101730000837BD4680BD00BF00C0004080B582B004
:1017400000AF03460A46FB711346BB71FB79002BC1
:1017500005D1BB79162200210348FFF7D9FE00BF4F
:101760000837BD4680BD00BF00C0092080B500AF6E
:10177000FFF7B2FF0448FFF78BFE0448FFF77CFE3B
:10178000FFF794FF00BF80BD00C0092000C00240E9
:1017900080B584B002AF78607B68244A934220D140
:1017A00002230093082307220021214800F092FA27
:1017B000022300930823062200211D4800F08AFA24
:1017C00002230093082308220021194800F082FA1E
:1017D00002230093082309220021154800F07AFA19
:1017E0001FE00223009308230F220021104800F07D
:1017F00071FA022300930823102200210C4800F004
:1018000069FA02230093082311220021084800F0FE
:1018100061FA02230093082312220021044800F0F9
:1018200059FA00BF0837BD4680BD00BF0000034025
:1018300000C0024080B485B000AF0346FB71084B86
:101840001B68C3F30B03FB60054AFB791B031946B6
:10185000FB680B43136000BF1437BD4680BC704764
:1018600000C00F4080B500AF17220349034800F0C5
:101870007BFA00BF80BD00BF2C4A000000C00240C0
:1018800080B500AF00F0B2FB0420FFF7D3FF00BF2C
:1018900080BD00BF80B500AFFFF7E4FFFFF7F0FFAA
:1018A00000BF80BD80B500AF00F0D8F90246024B02
:1018B0001A6000BF80BD00BFA002001080B400AF5E
:1018C000064BD3F8883003F08073002B14BF01233C
:1018D0000023DBB21846BD4680BC704700C00F40F5
:1018E00080B400AF064BD3F8883003F00073002BB0
:1018F00014BF01230023DBB21846BD4680BC7047ED
:1019000000C00F4080B483B000AF0346FB71094AAA
:10191000FB795B0113448C33AA221A60054AFB79D8
:101920005B0113448C3355221A6000BF0C37BD464F
:1019300080BC704700C00F4080B400AF054BD3F8A7
:101940000C31DBB203F00303DBB21846BD4680BCAA
:10195000704700BF00C00F4080B400AF024B1B684F
:101960001846BD4680BC7047244A000080B400AFD2
:10197000024B1846BD4680BC704700BF00093D00C1
:1019800080B400AF024B1B681846BD4680BC704750
:10199000284A000080B500AF00F008F90346184659
:1019A00080BD00BF80B584B000AF03463960FB71D5
:1019B0000C4AFB7904335B0113441B68FB60FA6833
:1019C0003B681343FB60074AFB7904335B01134414
:1019D000FA681A60FB791846FFF794FF00BF1037CA
:1019E000BD4680BD00C00F4080B584B000AF034647
:1019F0003960FB710D4AFB7904335B0113441B68AA
:101A0000FB603B68DB43FA681340FB60074AFB79E5
:101A100004335B011344FA681A60FB791846FFF738
:101A200071FF00BF1037BD4680BD00BF00C00F4032
:101A300080B586B000AF0346B9607A60FB73FB7B6C
:101A4000002B05D17B681A04BB6813437B6104E05B
:101A50007B685A01BB6813437B610B4AFB7B0433F1
:101A60005B01134404337A691A60074AFB7B043331
:101A70005B01134401221A60FB7B1846FFF742FF0B
:101A800000BF1837BD4680BD00C00F4080B485B090
:101A900000AF0346FB71FB79FB600849074BD3F8A5
:101AA000C4300120FA6800FA02F21343C1F8C430CE
:101AB00000BF1437BD4680BC704700BF00C00F4058
:101AC00080B582B000AFFFF70BFF0346002B02D0BA
:101AD0000123FB7101E00023FB71FB7918460837F5
:101AE000BD4680BD80B483B000AF7860044A7B6897
:101AF000C2F8043100BF0C37BD4680BC704700BF40
:101B000000C00F4080B400AF044BD3F80431DBB207
:101B100001331846BD4680BC704700BF00C00F406F
:101B200080B487B000AF0346FB7101237B61FB7972
:101B30005B003B613B6903F01F03FB603B695B0992
:101B40003B61194A3B696A3352F823307B617A69F9
:101B5000FB6822FA03F303F003037B617B69002B2C
:101B600002D104237B6119E07B69012B02D101239F
:101B70007B6113E07B69022B02D102237B610DE0C4
:101B8000FB790D2B05D0FB790E2B02D0FB790F2BA7
:101B900002D106237B6101E008237B617B69184643
:101BA0001C37BD4680BC704700C00F4080B500AFF9
:101BB000FFF7C2FE0346012B07D0022B09D0002BF2
:101BC0000BD1FFF7D3FE034608E0FFF7C5FE03463F
:101BD00004E0FFF7D5FE034600E00023184680BD71
:101BE00080B584B000AF0023FB60FFF767FE0346BB
:101BF000002B18D00E4BD3F88430C3F30E030133FF
:101C0000BB600B4BD3F884301B0CDBB201337B6021
:101C1000FFF7C0FE0246BB6803FB02F35A007B6875
:101C2000B2FBF3F3FB60FB6818461037BD4680BD7E
:101C300000C00F4080B500AFFFF742FF0346002B06
:101C400005D0012B07D1FFF7CBFF034604E0FFF7D8
:101C5000ADFF034600E00023184680BD98B500AFF5
:101C6000FFF7E8FF0446FFF74DFF0346B4FBF3F32D
:101C7000184698BD90B583B000AF0346FB71FFF7DF
:101C8000EDFF0446FB791846FFF74AFF0346B4FB15
:101C9000F3F318460C37BD4690BD00BF80B586B043
:101CA00002AFF8607B600B46FB721346BB727B6829
:101CB00098087B68DBB203F00303DBB2BA7AF97AE7
:101CC00000930346F86800F005F800BF1037BD46E2
:101CD00080BD00BF80B487B000AFF8607B600B466A
:101CE000FB721346BB72BB7A03F00F03DBB25B00DF
:101CF000FB75FB7A5B00DAB2BB7A1B09DBB21344DB
:101D0000BB75BA7DFB6853F82220FB7D032101FAE5
:101D100003F3DB4313403B61BA7D97F82010FB7D52
:101D200001FA03F319463B691943FB6843F8221093
:101D3000BA7DFB68103253F82220FB7D032101FAA3
:101D400003F3DB4313403B61BA7DFB7D7968994027
:101D50003B691943FB68103243F8221000BF1C375F
:101D6000BD4680BC704700BF80B586B000AFF8604C
:101D7000B9607A6000237B611FE07B699B00BA68D1
:101D800013441B78C3F30203DBB219467B699B0043
:101D9000BA6813441B78C3F3C403DBB218467B69EB
:101DA0009B00BA6813441B68C3F317230246F86804
:101DB000FFF774FF7B6901337B617A697B689A4224
:101DC000DBD300BF1837BD4680BD00BF80B485B0EF
:101DD00000AFF860B9607A603B60FB681B6823F075
:101DE000FF02BB681A437B681A433B681A43FB68CF
:101DF0001A6000BF1437BD4680BC704780B483B002
:101E000000AF786039607B685B6823F004023B6850
:101E10001A437B685A6000BF0C37BD4680BC7047D0
:101E200080B485B000AF78607B68074A934202D1E6
:101E30000A23FB7301E01523FB73FB7B1846143761
:101E4000BD4680BC704700BF0000034080B485B031
:101E500000AF78607B68074A934202D11523FB7379
:101E600001E00A23FB73FB7B18461437BD4680BC98
:101E7000704700BF0080084080B487B000AFF860B2
:101E8000B9607A60FB681B6823F47F437B61BB68A1
:101E90001B029AB27B691A43FB681A60FB687A6876
:101EA0001A6100BF1C37BD4680BC704780B586B044
:101EB00000AF786039607868FFF7C8FF03461846BE
:101EC000FFF7D8FEB86000237B614FF0FF333B6122
:101ED0000223FB6017E07B690133FA6802FB03F31E
:101EE000BA68B2FBF3F33B613A693B689A420AD99C
:101EF0007B6901337B617B69FF2B04D900237B6104
:101F0000FB680233FB603A693B689A42E3D8FA689F
:101F100079697868FFF7B0FF00BF1837BD4680BD0C
:101F200080B582B000AF78607868FFF779FF03462C
:101F30001846FFF7ABFD00217868FFF75FFF00232D
:101F4000002207217868FFF741FF04497868FFF70E
:101F5000ADFF00BF0837BD4680BD00BFA0860100B1
:101F600080B400AF064BD3F8883003F08073002BA9
:101F700014BF01230023DBB21846BD4680BC704766
:101F800000C00F4080B400AF064BD3F8883003F098
:101F90008063002B14BF01230023DBB21846BD462B
:101FA00080BC704700C00F4080B400AF064BD3F830
:101FB000883003F00073002B14BF01230023DBB231
:101FC0001846BD4680BC704700C00F4080B483B047
:101FD00000AF0346FB71044AFB79C2F80C3100BF25
:101FE0000C37BD4680BC704700C00F4080B500AFC5
:101FF000FFF7DAFF0346002B03D002210020FFF792
:10200000F3FCFFF7ADFF0346002B03D001210020B6
:10201000FFF7EAFC0020FFF765FD0020FFF7D6FF81
:10202000002224210020FFF703FD01210020FFF7FB
:10203000B9FC0320FFF756FD00BFFFF7A3FF0346DF
:1020400083F00103DBB2002BF7D102210020FFF760
:10205000A9FC00BF80BD00BF80B483B000AF786032
:1020600039607B683A689A6000BF0C37BD4680BC17
:10207000704700BF80B483B000AF786039607B6880
:102080003A68DA6000BF0C37BD4680BC704700BFBD
:1020900080B483B000AF78607B68DB6843F0800277
:1020A0007B68DA6000BF0C37BD4680BC704700BF5C
:1020B00080B483B000AF78607B68DB6823F0800277
:1020C0007B68DA6000BF0C37BD4680BC704700BF3C
:1020D00080B483B000AF78600B46FB701346BB70D2
:1020E000FA787B681A60BA787B685A6000BF0C3750
:1020F000BD4680BC704700BF80B485B000AF78603B
:102100007B680E4A934202D10423FB730FE07B6885
:102110000B4A934202D11823FB7308E07B68094AFB
:10212000934202D11923FB7301E00323FB73FB7B72
:1021300018461437BD4680BC704700BF0000014000
:102140000080094000C0094080B485B000AF7860CD
:102150007B680E4A934202D10423FB730FE07B6835
:102160000B4A934202D11823FB7308E07B68094AAB
:10217000934202D11923FB7301E00323FB73FB7B22
:1021800018461437BD4680BC704700BF00000140B0
:102190000080094000C0094080B584B000AF78607D
:1021A0007868FFF7A9FF03461846FFF76FFC072181
:1021B0007868FFF751FF786800F036F87B680022F6
:1021C0005A607B680022DA607B6800221A627B68B2
:1021D0000022DA647B6800225A657B6800221A6557
:1021E0007B680A4A934205D17B6800221A617B68AA
:1021F0009B69FB6003217868FFF73CFF7B68102236
:102200009A6200BF1037BD4680BD00BF000001408C
:1022100080B483B000AF78607B6880221A6300BF0F
:102220000C37BD4680BC704780B483B000AF786087
:102230007B6800221A6300BF0C37BD4680BC704724
:1022400080B586B000AF786039607868FFF77CFFB2
:1022500003461846FFF70EFD78613B681B017A695B
:10226000B2FBF3F33B613B691B0AFB60FB681B029B
:102270003A69D31ABB607868FFF70AFFBB68DBB224
:10228000FA68D2B219467868FFF722FF7868FFF73C
:102290000FFF7A693B69B2FBF3F318461837BD4666
:1022A00080BD00BF08B500221146104600F0D2FDE7
:1022B000BDE80840FFF750B802F053BBF8B5304F07
:1022C0003C68A0B1C51CAD08002605F10A0E05F159
:1022D000030C05E02368B3F1805F14D02646A468A0
:1022E000002CF7D10C3001F0E1FC431C10D1002090
:1022F000F8BD1168B1F1805F15D151680B4403330B
:1023000063609368A360A2686368002AF1D10AE061
:102310004FF0005380E8280084600EB9386000E078
:10232000B0600C30F8BD9D4207DC634505DC2046FB
:102330004FF0005340F80C3BF8BD734511D92046CF
:102340004FF00051656040F80C1B00EB8501A16067
:102350004FF0805440F825405D1B033D4D608A607E
:10236000F8BD002ABAD1A0EB830001F09FFC013038
:10237000BDD04FF0005384E8280004F10C00F8BDF4
:1023800094020010A8B14FF0805340F80C3C50F874
:10239000042C72B11368B3F1805F0AD1536850F80E
:1023A000081C0B44033340F8083C936840F8043C95
:1023B000EDE7704710B5FFF781FF044628B91722F3
:1023C0000349FFF757F902F0E5FA204610BD00BFB8
:1023D000884A000010B5425C4318342A01DC002012
:1023E00010BD352A06D1194611F8012F302AFBD02D
:1023F000002AF4D01A46302412F8011D392901D1DF
:102400001470F9E7013111700278302AE7D01A1AF6
:10241000002A03DB13F801299A70F8E7012010BDA8
:1024200030B58C1F0A25A1420CD090FBF5F3C3EB0D
:102430004312C3EB8202303000EB420001F8010985
:102440001846F0E730BDFFFF0EB430B5054690B03A
:1024500013AB53F8044B2822002106A80593FFF77D
:102460002BFF0A2309936FF000430893104B00944D
:102470000293059B4FF0FF32019306A86FF00043D3
:10248000069500F039FD089B0446013B002B08939C
:1024900003DB069B00221A7003E006A9002001F06E
:1024A00047FC204610B0BDE8304003B0704700BF85
:1024B000B9240000FFFFFFFF2DE9F04F144647F657
:1024C000F0724E689DB00693C6F30F4323F00F03DE
:1024D0005B040F685B0C93420590DDF89CB0099794
:1024E000079627D10023E370C6F313033B434FF055
:1024F0006E0315D169226370002E4FF066032270BF
:10250000A37001DAA64B10E0069B980706D4A54AF3
:1025100013F0040FA44B08BF134606E0A34B04E0DE
:1025200023706122A3709F4B6270269A0320136070
:1025300000F033BC059B23F02003412B00F03982CF
:10254000002200233846314602F08DF938B106F1F9
:102550000043099A1E46012317460A9300E00A9099
:10256000002200233846314602F067F9002840F087
:10257000028240F22D150FAA3846314601F0D9FCEF
:102580000F9ACDE910015543A5F5AB531C3B4FF411
:102590007A7593FBF5F50020AA1A854901F0F6FC3F
:1025A000002DCDE91A0106DA77A3D3E900236E42A4
:1025B000CDE9162306E07F4B4FF00002CDE916234C
:1025C00016D02E46F10709D4DDE91601DDE9162300
:1025D00001F06AFE7610CDE91601F3E7DDE9160198
:1025E000DDE91A2301F060FE012ECDE91A01EBD1DD
:1025F000DDE91001DDE91A2301F0DEFECDE912016B
:10260000DDE9120162A3D3E9002302F02CF988B1BD
:10261000DDE912010022684B01F046FECDE912010E
:10262000DDE91A010022644B01F0C6FE013DCDE94F
:102630001A01E5E7DDE9120157A3D3E9002302F00F
:1026400066F988B1DDE9120100225B4B01F0B4FEAE
:10265000CDE91201DDE91A010022574B01F024FEF9
:102660000135CDE91A01E5E7DDE9120102F096F83E
:102670006B4213EA250338BF2B4682460B930F9A11
:102680005046AE1A02F0CDF8324601F07FFC00222F
:102690000023002DCDE91201CDE914232FDA3AA34E
:1026A000D3E90023CDE9162300220023CDE9182326
:1026B000DDE91689DDE916014FF000084246DDE943
:1026C00018674B4601F014FF32463B4601F0E0FF2D
:1026D000CDE91801CDE91689DDE916010022354B57
:1026E00001F0E2FD02460B460020314901F000FFF7
:1026F0000022304B01F060FECDE918010CE02D4BBB
:102700004FF00002CDE916234FF000024FF0000316
:10271000CDE9182300F094800B9B0893089BDA07FF
:102720004CD4DDE91623DDE91889DDE91867104688
:10273000194601F0ADFF42464B4601F0A9FF324673
:102740003B4601F0B1FDCDE91801DDE91601DDE9F7
:10275000162301F0A9FDCDE91601DDE91689DDE9B1
:1027600016014FF000084246DDE918674B4601F0BC
:10277000BFFE3B46324601F08BFF089BCDE91801B6
:102780005B10CDE91689C8E79A9999999999C93F3B
:1027900000000000006AF8400000000080842E4124
:1027A000D24A00009F4A0000A24A0000A04A00004E
:1027B0000000F03F0000144000002440DDE9122337
:1027C000DDE91889CDE90C23DDE91601DDE91823DF
:1027D00001F05EFFDDE9146732463B4601F064FD1F
:1027E000424606460F46DDE90C014B4601F05CFD12
:1027F00002460B463046394601F04AFFCDE9140146
:10280000DDE91601DDE9122301F04EFDCDE91201EB
:10281000DDE91289DDE912014FF000084246DDE9E9
:1028200014674B4601F064FE3B46324601F030FF30
:10283000089BCDE91401012BCDE912897FF471AF1A
:10284000DDE91201DDE9102302F037F810B90AF1D1
:10285000FF3A14E7DDE91223DDE9100101F048FE3B
:10286000CDE91001DDE91423DDE9100101F040FE9E
:10287000CDE91001DDE91A23DDE9100101F09CFD2D
:10288000A5A3D3E90023CDE91001DDE9100101F092
:102890000BFDCDE91001DDE9100101F07FFFDDE95D
:1028A0001067804601F0BDFF02460B4630463946B0
:1028B00001F01EFE98A3D3E9002301F0F5FCCDE959
:1028C0001001DDE9100101F069FF0646002E06DA6D
:1028D00006F5742606F5107608F1FF38F6E7904AFB
:1028E00096428F4B06DDA6F57426A6F5107608F104
:1028F0000108F5E7B8F1000F06DA08F5742808F5C5
:1029000010780AF1FF3AF5E7984506DDA8F5742836
:10291000A8F510780AF1010AF6E7824B9A4511DC16
:10292000013398FBF3F296FBF3F37F480A2100FB97
:10293000028800FB036601FB0A2A01FB08384E43AC
:10294000013D1DE0764B9A451ADD0A229AFBF2F111
:102950006FF0090303FB01AA7448013500FB0A8AE2
:102960009AFBF2F803FB08A300FB0366053696FB0F
:10297000F2F68A4604E00026B046B2466FF004053F
:102980002146302701F8067B5046FFF749FD04F148
:102990000C014046FFF744FD04F112013046FFF7F9
:1029A0003FFD002323750A9B0535E77443EA85053F
:1029B00000E00025EB0701D55D4B0AE0069B9F0771
:1029C00006D45C4A13F0040F5B4B08BF134600E0CB
:1029D0005A4B269A25F001051360042395FBF3F565
:1029E000059BDBF80000612B10D006DC452B6DD079
:1029F000472B4DD0412B49D108E0059B662B00F0B9
:102A00000581672B44D0652B40D15FE007990022F8
:102A1000C1F3130309990A430799C1F30A5515B184
:102A2000A5F2FF3104E052EA0301454908BF002145
:102A300088B9069E36070ED4002D0B464148059DE9
:102A400041490CBF30223122612D08BF014620468A
:102A5000FFF7FAFC10E0002DCDE9002302910346B8
:102A60003A493B48059D0CBF30223122612D08BFF9
:102A700001462046FFF7E8FC2D4A2E4B079933EA22
:102A8000210328BF1346269A136086E16723059326
:102A9000069B002843F400630693DCBF0123CBF8B8
:102AA0000030DBF8001020461129D4BF013112217B
:102AB000FFF790FCDBF8003005449D42C0F29F8098
:102AC000013BCBF80030059B023B0593DBF800305F
:102AD000112B05DD299A113B13601123CBF800302F
:102AE000069BDBF8006013F4006706F1020604D1D0
:102AF00031462046FFF76EFC054463782370DBF80F
:102B0000003023B940F60803069A134013B32E236E
:102B1000637020E0AFF300800000000080842E414D
:102B20003F420F009F8601006079FEFF40420F0088
:102B3000D24A00009F4A0000A24A0000A04A0000BA
:102B400001FCFFFFA44A0000AC4A0000C34A000099
:102B5000B44A00000126299B1B68002BC2BF3E23FC
:102B6000A355013677B1069B1F070BD4A219161B7C
:102B700012F8013D302BFAD03E2BF8D02E2B08BF97
:102B800006F1FF369DF81430002DA355B8BF6D42F5
:102B900006F1020306F10102B5BF2D212B211E46CD
:102BA0001E46B5F57A7FA1540ADB4FF47A7295FB85
:102BB000F2F202F13001E15479495E1C01FB025549
:102BC000632D0ADD642395FBF3F303F13002A25574
:102BD0006FF0630202FB035501360A2395FBF3F302
:102BE000DBB203F13002A255C3EB4312C3EB820305
:102BF0003035344405EB43036370B01CCDE02A1D2F
:102C0000FFF65EAF6A1C9B1ACBF80030069A002DC7
:102C1000DBF8003002F400674CDAC5F100085A1CFA
:102C2000904509DD302323702E236370DBF80030DC
:102C3000299A0226136038E02B449E1C122EC1BF35
:102C4000299A113B136013265FB931462046FFF7DE
:102C5000C1FB30B17FEA050806F1010601D16378B6
:102C60000DE0B8F1010F04EB06030CD11A1B002A8A
:102C700003DD13F801299A70F8E701363023237039
:102C80002E23637011E01A1B002A03DD13F80129BB
:102C9000DA70F8E7302323702E236370289A3C23E0
:102CA000A37008F1FF3302361360299B1B68002BC9
:102CB00025DC59E005EB030808F10206122E3DDD84
:102CC0003FB913212046FFF785FB10B101351426CB
:102CD00000E01326721E9542234614DA13F8012FE2
:102CE00003F8012C1A1B9542F8DA63192E225A7048
:102CF000DBF800301D44299B113D1D60A5B33E2328
:102D0000A355013630E013F8011F03F8011C191B0D
:102D10008A42F8DCA3193C2203F8012CAD1B289B46
:102D20002E2202351D60A255DBF80020731CD2B1A3
:102D3000299902360A603E22E25415E03FB9314635
:102D40002046FFF747FB10B1013508F10306234683
:102D500013F8012F03F8012C1A1B9542F8DA2544C9
:102D60002E236B7000E01E4677B1069B180713D424
:102D70002644301B16F8013D302BFAD03E2BF8D0FC
:102D80002E2B0AD1013808E0DBF8003023B9069B6E
:102D9000190701D4701E00E030461DB0BDE8F08F69
:102DA00018FCFFFFF0B504460D461F4616468FB0CF
:102DB0002822002104A8FFF77FFA0A2307936FF067
:102DC000004306930D4B0494002402936A1E23468D
:102DD0008DE8C00004A800F08FF8069B0546013B73
:102DE000A342069302DB049B1C7003E004A9204667
:102DF00000F09EFF28460FB0F0BD00BFB9240000D0
:102E00000FB473B506AB53F8046B01213246684624
:102E10000193FFF7C7FF041E13DD651C2846FFF76B
:102E20004DFA009068B1019B32462946FFF7BAFF80
:102E3000074B22460099D86BFEF71CFC0098FFF761
:102E4000A1FA204602B0BDE8704004B0704700BF50
:102E50005401001070B54FF4A07200212048FFF714
:102E60002BFAC020FFF7A6FA1E4CC02200211C4DF1
:102E700020602826FFF720FA20680023182406FB8C
:102E8000035204FB03010133082B5162F7D1144AAA
:102E90001549002000F0ECFF4FF480534FF480629E
:102EA00000210F4800F0BCFE104A1149012000F03B
:102EB000DFFF4FF480534FF4806200210B4800F095
:102EC000AFFE0C4A0A49022000F0D2FFBDE8704074
:102ED0004FF480534FF480620021064800F0A0BEFA
:102EE0005401001050010010D44A00007C01001071
:102EF000D64A0000A40100102DE9F04F0546B1B0FC
:102F0000CDE90A23DDF8EC8000223A9B0492187880
:102F100003F1010A002800F07E86252801D1002453
:102F20001FE0049BDDE90A671946DA175C1C1346AB
:102F3000B142BB4180F26586AB68013B002BAB60C0
:102F400005DB2B685A1C2A60187000F05ABE29460F
:102F500000F0EEFE00F055BE09D92D2F0ED144F041
:102F6000010453461AF8017B2B2FF5D10BE0202FDB
:102F70000CD0232F0DD144F00804F2E7302F08D1F4
:102F800044F40074EDE744F00204EAE744F004047A
:102F9000E7E72A2F02D000260A2211E0D8F80060C5
:102FA00008F10402002EBCBF764284F0010403F154
:102FB000020A5F78904608E002FB06361AF8017BA9
:102FC000A7F13003D9B20929F6D926EAE6732E2FE4
:102FD0000E931DD19AF800702A2F08D1D8F80090CE
:102FE0009AF8017008F104080AF1020A0AE00AF1ED
:102FF000010A4FF000090A22A7F13003D9B20929CA
:1030000040F20386B9F1000F02DB44F0100401E046
:103010004FF000096C2F0ED19AF800706C2F03BF8F
:103020009AF8017044F060040AF1020A0AF1010AF8
:1030300018BF44F020044C2F01D0712F04D19AF80E
:10304000007044F060041CE0682F0FD19AF8007003
:10305000682F03BF9AF8017044F480740AF1020AE1
:103060000AF1010A18BF44F080040CE06A2F02D173
:1030700044F0400403E07A2F01D0742F03D19AF872
:1030800000700AF1010A672F1CDC652F80F2B28202
:10309000472F00F0AF8209DC412F00F0A582452FB9
:1030A00000F0A882002F00F0BF8027E0612F00F021
:1030B0009B8203DC582F00F0A8811FE0632F17D0FC
:1030C000642F09E0702F00F0F68108DC6E2F00F00D
:1030D000B18000F3FB81692F00F04F820EE0752F65
:1030E00000F01882782F00F0BB81732F06D1C4E066
:1030F00008F104030793D8F8007001E0CDF81C80B4
:103100000E9B14F0010603F1FF3308933CD10E9A95
:1031100014F4007FA2F10204049A18BF3023104671
:103120004FEAE2710A460146CDE90E1208BF20239C
:103130004FF000084FF00009049AB4EB0801424434
:10314000089120D4DDE90E01DDE90ABC10EB08008E
:1031500041EB0901584571EB0C020FDAAA68013AFC
:10316000002AAA6004DB2A68511C2960137005E05C
:1031700018462946089300F0DBFD089B18F101086A
:1031800049F10009D8E70492049B1946DA175C1C40
:1031900013460A46DDE90A0182428B410DDAAB682B
:1031A000013B002BAB6004DB2B685A1C2A601F70AC
:1031B00003E02946384600F0BBFD002E00F01D85D7
:1031C0002246089B002603F1FF380027E3174FF043
:1031D0002009C6EB080100291FDBDDE90ABC9019B4
:1031E00043EB0701584571EB0C0112DAA96801396C
:1031F0000029A96005DB2968481C286081F8009037
:1032000007E029462020CDE9042300F091FDDDE907
:103210000423013647F10007DBE7089B002BA8BF1A
:10322000E418234600F0E7BC0AF1FF3ACDF81C8011
:1032300000F0E4BC08F1040314F0400F0793D8F841
:10324000003006D0049A1046D117C3E9000100F0FF
:10325000D5BCA7060DD4E60504D59DF810201A703C
:1032600000F0CCBC240604D5BDF810201A8000F074
:10327000C5BC049A1A6000F0C1BC08F104030793AE
:10328000B14AD8F80030002B08BF134618460893FF
:1032900000F0E6FC14F0100F0746089B02D04845EA
:1032A000A8BF4F460E9AD61B14F0010208923DD1DA
:1032B000049914F4007F4FEAE17C08466146CDE9A9
:1032C0000E0114BF302220224FF000084FF00009F9
:1032D000741EC8EB0401002922DBDDE90E01DDE9E3
:1032E0000ABC10EB080041EB0901584571EB0C01D9
:1032F00011DAA96801390029A96004DB2968481C92
:1033000028600A7007E0104629461E931C9200F0C0
:103310000FFD1E9B1C9A18F1010849F10009D8E71E
:10332000049A26EAE67632440492A61B049A4FF0E9
:1033300000081046D1170A460146CDE90E124FF09B
:103340000009474523DDDDE90E01DDE90ABC10EB8C
:10335000080041EB0901584571EB0C0212DAAA682A
:10336000013A002AAA6003EB080205DB2968481C21
:10337000286012780A7005E0294610781C9300F046
:10338000D7FC1C9B18F1010849F10009D9E7049BFF
:10339000002FA8BFDB190493089B002B00F02E849C
:1033A000049B4FF000081946DA1713460A464FF0FF
:1033B0000009741E2027C8EB0401002920DBDDE989
:1033C0000ABC12EB080043EB0901584571EB0C01F4
:1033D00011DAA96801390029A96004DB2968481CB1
:1033E00028600F7007E029462020CDE9082300F06F
:1033F0009FFCDDE9082318F1010849F10009DAE72B
:10340000049B002EA8BF9B19F5E3600609D508F1BF
:10341000070828F0070808F108030793D8E900BC5B
:1034200007E0D8F8002008F10403934607934FF013
:10343000000C210602D51FFA8BFB03E0E20503D541
:103440000BF0FF0B4FF0000C404914F0080F404800
:1034500008BF0846E30640F1EA8024F40074E6E081
:10346000660609D508F1070828F0070808F10803DF
:103470000793D8E900BC07E0D8F8002008F104035E
:10348000934607934FF0000C200602D51FFA8BFBE2
:1034900003E0E10503D50BF0FF0B4FF0000C2B49C7
:1034A00014F0080F2B4808BF0846E20640F1C1801F
:1034B00024F40074BDE0D8F8002008F10403079359
:1034C00093464FF0000C24492248B5E0630609D525
:1034D00008F1070828F0070808F108030793D8E95E
:1034E00000BC07E0D8F8002008F1040393460793D6
:1034F0004FF0000C260602D51FFA8BFB03E0E00517
:1035000003D50BF0FF0B4FF0000C14F0080F0F4920
:1035100012485EE0610609D508F1070828F007089F
:1035200008F108030793D8E900BC07E0D8F80020A9
:1035300008F10403934607934FF0000C22060FD5C1
:103540001FFA8BFB10E000BFD84A00009F4A000022
:10355000DF4A0000E24A0000F84A0000E54A0000A5
:10356000E30503D50BF0FF0B4FF0000C14F0100136
:1035700061D024F4007400215DE0660609D508F1ED
:10358000070828F0070808F108030793D8E9002383
:1035900005E0D8F8002008F104030793D3172006AC
:1035A00001D512B202E0E10501D552B2D317002ACB
:1035B00073F1000105DAD2F1000B63EB430CB14863
:1035C0000BE09346A2079C4606D4AF49AF4814F0DF
:1035D000040F08BF084600E0AD4814F010012BD0DE
:1035E00024F40074002127E0E3065CBF44F01004DB
:1035F0004FF00D0914F0100F08F1070828F0070824
:1036000008BF4FF0060914F0200144F4806008F16F
:10361000080318BF002107930446D8E900234FF0A0
:10362000000BCDE926234FF0000C084604E0994931
:1036300002E0994900E09448049EDDE90A23921BC8
:1036400063EBE673CDE9082323904FF0FF3024901D
:103650002590CDF8889000204FF0550328AE835573
:1036600001302028F8D114F4826F04BF0120229089
:10367000672F14DC652F80F2BC80472F00F0B980E3
:1036800006DC412F00F0B580452F40F0C280B0E04D
:10369000612F00F0AE80642F11D0582F0CE0702FF6
:1036A00010D006DC692F0AD06F2F40F0B2800021C5
:1036B0001DE0752F03D0782F40F0AB8002E000268C
:1036C0000A2728E000205BEA0C03804600F0A38074
:1036D0000BF00F068F5D28AE87554FEA1B1646EAA2
:1036E0000C764FEA1C17B346BC460130EBE75BEAA9
:1036F0000C03884600F08F800BF00700303028AEB6
:1037000088554FEADB0040EA4C704FEADC068346FE
:10371000B4460131EBE75BEA0C03B0467BD05FEACD
:103720005C014FEA3B004FEA9B0343EA8C7318931A
:103730004FEA9C031993DDE9182312184B411946EF
:103740001046130943EA017310930B091193DDE945
:10375000102312184B4119461046130A43EA01631D
:1037600012930B0A1393DDE9122312184B411946E9
:103770001046130C43EA014314930B0C1593DDE937
:10378000142312184B41104619461A9300231B9319
:10379000DDE91A2312184B411946D30843EA417355
:1037A0000C93CB080D930C9B1BF10600A3FB078920
:1037B0000D9B4CF1000107FB0399B0EB080061EB96
:1037C0000901030943EA017316930B091793DDE915
:1037D0001623DDE90C01801859410BF1300200EB92
:1037E0008003A2EB430228ABF254834601368C4699
:1037F00091E725AB039324AB029322AB019323AB58
:10380000009328AA234626A938463C9EB047804606
:1038100001E04FF0000814F480631C930ED00023E5
:103820002293249B002BC4BF03F1FF332293259BDB
:10383000002B09DD229A013B134404E0229BB3EBE9
:10384000080348BF00232293229E239800F008FA21
:103850000E9B46449E1B04F001030E9340F201238D
:103860002340361A2BB900220023771E4FF020097F
:103870001DE04FF000094846C11700220023CDE9A2
:103880001E013EE0D24A00009F4A0000A24A00000A
:10389000A04A0000E74A0000F84A0000DDE90801FC
:1038A000824273EB010106DB013243F10003B91AD6
:1038B0000029F3DA13E0A96801390029A96005DBC2
:1038C0002968481C286081F80090EDE729462020EF
:1038D000CDE91E2300F02CFADDE91E23E4E726EAF9
:1038E000E679C9EB0706C6E7DDE91E0180185941F4
:1038F000DDE908BC584571EB0C010DDB013243F1E9
:103900000003239909EB0207481C239091F800E07B
:10391000BEF1000FE8D113E0A96801390029A960C0
:1039200005DB2968481C286081F800E0E6E72946A5
:103930007046CDE9202300F0FBF9DDE92023DDE727
:103940000E9B002B35D13846F917CDE91E0114F432
:10395000007F14BF4FF030094FF0200900220023F0
:10396000741EA11A002920DBDDE91E01DDE908BC77
:1039700080185941584571EB0C0112DAA9680139D8
:103980000029A96005DB2968481C286081F800909F
:1039900007E029464846CDE9202300F0C9F9DDE9D2
:1039A0002023013243F10003DBE726EAE6763744C1
:1039B000A61B1C9B43B93846F91700220023CDE90A
:1039C0001C014FF030098FE00024A04540F3DE8059
:1039D00028ABE05C3C2808D03E285FD13846F91778
:1039E00000220023CDE91C013BE03846F917CDE960
:1039F0001C0100220023249907EB02090139002948
:103A0000249161DBDDE91C01DDE908BC8018594126
:103A1000584571EB0C0113DAA96801390029A96036
:103A200006DB2968481C28604FF03000087007E06A
:103A300029463020CDE91E2300F07AF9DDE91E2366
:103A4000013243F10003D6E7DDE91C01801859413A
:103A5000DDE908BC584571EB0C010ADB013243F18A
:103A60000003259907EB0209013900292591EBDABA
:103A70002AE0A96801390029A96006DB2968481CE9
:103A800028604FF030000870E8E729463020CDE983
:103A90001E2300F04DF9DDE91E23DFE7DDE908BC58
:103AA000FB175F4573EB0C0307F101090CDAAB68F8
:103AB000013B002BAB6004DB2B685A1C2A6018709A
:103AC00002E0294600F034F901344F467DE7DDE994
:103AD0001C0180185941DDE908BC584571EB0C0107
:103AE00009DB013243F100032299BC180139002996
:103AF0002291ECDA13E0A96801390029A96005DBFD
:103B00002968481C286081F80090EAE7294630209F
:103B1000CDE91E2300F00CF9DDE91E23E1E7204684
:103B2000E11730ABCDE91C0103EB0807213F002270
:103B30000023C2EB0801002922DDDDE91C01DDE9DB
:103B400008BC80185941584571EB0C0112DAA9687C
:103B500001390029A96005DB2968481C28603878EC
:103B6000087007E029463878CDE91E2300F0E0F818
:103B7000DDE91E23013207F1FF3743F10003D8E7E7
:103B8000B8F1000FACBF04EB0807271C0E9B83B3F2
:103B90003A464FF000084FF00009741EFB17C8EBBF
:103BA0000401002922DBDDE908BC12EB080043EB2D
:103BB0000901584571EB0C0113DAA9680139002994
:103BC000A96006DB2968481C28604FF020000870B7
:103BD00007E029462020CDE90E2300F0A9F8DDE911
:103BE0000E2318F1010849F10009D8E7002EA8BFFB
:103BF000BF19049B3B44049300E00494DDF81C804F
:103C0000049C04945346FFF782B902FB09391AF861
:103C1000017BFFF7F1B9049831B0BDE8F08F00BF28
:103C200070B5C468A50717D0B2F5007F09D0B2F50A
:103C3000806F03D0B2F5807F0ED102E0416A01238C
:103C400003E0064D5E1EAE4206D8224301610160CC
:103C5000C361C260002070BD012070BDFEFFFF0087
:103C600010B5421C830705D010F8013B002BF9D199
:103C7000801A10BD034650F8041BA1F1013424EA58
:103C8000010414F0803FF5D011F0FF0F0AD011F4B9
:103C90007F4F05D011F47F0F14BF0346033302E0BA
:103CA000023300E00133981A10BDFFFF38B50C4B0A
:103CB0001A680AB90B4A1A60C41C1D6824F0030470
:103CC0002C44204600F0C2FA18B9054B28461C6067
:103CD00038BD054B0C221A604FF0FF3038BD00BFD5
:103CE00098020010A40200109C020010C36810B5D6
:103CF00023F02003C360436A82695B6804469A42EA
:103D00000FD000F0EAF8E368626A23F4405323F02E
:103D1000100343F01003E3605368A36123699360C9
:103D20002360E36823F4804323F04003E36010BD85
:103D3000F8B5CB68064623F400229F060C46CA60FD
:103D400002D50846FFF7D2FFA168E3684D1C0DDAE3
:103D500098050BD443F49033E3606FF001022368BD
:103D6000521AA2605A1C22601E707FE041F28A0241
:103D70001A40022A1D4605D0002243F08003A260AB
:103D8000E36051E04AF210011940B1F5004F0AD149
:103D90000021204600F0A2F9E368990602D52046EA
:103DA000FFF7A4FFE56845F4903315F4706FE36006
:103DB0001CD1606900F0F5FD50B16A0508D5636A51
:103DC000236123600123E36145F49233E3600DE056
:103DD0004FF48050FEF7EEFA4FF48053E268E3614F
:103DE00045F494331A4320612060E26013F4106FAD
:103DF000216825691BD0636A9B688B422CBFC5EB89
:103E00000301C5EB010149B9636A6A1C9A6022602B
:103E1000E269511EA160DA602E7027E02246284632
:103E200000F0DAF80028EFD04FF0FF30F8BD4A1C60
:103E300022600E70676A2268B9688A422CBFC5EB9F
:103E40000201C5EB0101E2695B05FA6004D4F0B23E
:103E50000A2801D091420ADB0023BD60224625607A
:103E6000A360284600F0B8F80028DDD1F0B2F8BD14
:103E700070B50D4606461046144600F0E1F82B7862
:103E8000722B0AD0772B05D0612B22D1082348F260
:103E9000020204E00423022201E00023012215F8BB
:103EA000011F2B2906D0622909D142F0040243F0F8
:103EB0000103F4E742F0030243F00203EFE71B07BC
:103EC000E260666107D502220021204600F006F973
:103ED00001E0002070BD204670BD38B50446436A3D
:103EE00005690168C0689B6820F40022E26000F068
:103EF0008202022A02D04FF0FF3038BD10F4803029
:103F000016D0994238BF19468D4209D1636A002004
:103F10009D60E368256023F48033A060E36038BDD2
:103F20002246491B284600F057F80028EED0E2E769
:103F300038BDF8B515460023002206460F4600F0AE
:103F40007CFC20B100232B6000200021F8BDC7F3CA
:103F50000A5330463946A3F2FE348BB93246C7F3D2
:103F60001303D70F03F4002647EA4303C3F31303F5
:103F700052001EB163F31301104601E0013CF0E76B
:103F800040F2FE332C6063F31E51F8BD70B5002380
:103F90001646002204460D4600F04FFC10B10020EA
:103FA000002170BD40F2FE73C5F30A5232449A42BA
:103FB0002046294606DD064B22221A60054BD3E92E
:103FC000000170BD002AEADD62F31E5170BD00BF22
:103FD0009C020010104B00002DE9F041D56880468E
:103FE000EB020E461446576905D5384600F0D6FC5C
:103FF00045F01005A061114B2B4053B1A169384623
:1040000000F0D5FC002810DB25F4003525F0100564
:10401000E560324641463846FDF72CFB20F0004370
:10402000F61AA3691E44A66128B1E3684FF0FF3079
:1040300043F08003E360BDE8F08100BF10000200A0
:104040002DE9F041C56888B0A9070446466A28D022
:104050002A0719D4D0F81480076900F027F84046E1
:1040600000F099FC2B0502D53846FEF78BF9AD0D13
:10407000AD0515F1A54F07D12022216A684600F051
:1040800099FC684600F0D8F818220021606AFEF713
:1040900013F9282200212046FEF70EF9666200205F
:1040A00001E04FF0FF3008B0BDE8F08170B5044684
:1040B00018B1BDE8704000F0D5B80546064E30197D
:1040C00000F0D0F82834002818BF4FF0FF35B4F5C1
:1040D000A07FF4D1284670BD540100102DE9F843AB
:1040E000C668414B044633400D469046002B77D0BE
:1040F000D0F81490484600F054FC074600286FD1D1
:10410000B8F1010F06D0B8F1020F08D0B8F1000FD6
:1041100066D129E0204600F069F8054424E04846CD
:1041200000F03CFCB0F1000ED4F80CC004DA4CF006
:104130008001E160012754E0606A83681A46A36940
:104140001946236893422CBFC918891823691CF0AB
:10415000200FA1EB030303D042689342B8BF13467C
:104160007345ACBFED187544002D39DB16F4005FC4
:10417000626A04D023689168994238BF9360A1694C
:104180008D4210DB20689368D4F810E0834238BF7A
:1041900003465818CEEB0000854204DCD06801EBE2
:1041A000000C654506DB0023A360636046F0200633
:1041B00055600FE06D1AB10744BF281AA060F207DE
:1041C00044BFCEEB0303EB1A754448BF6360256020
:1041D00026F0200626F4032626F04006E66000E0DE
:1041E00002273846BDE8F88303001000C3689A0729
:1041F00005D1104B21221A604FF0FF30704713F4A5
:10420000002F03F020030AD013B1436A586804E07A
:104210000268836900691344181A0138704713B1A2
:10422000436A586870470268836900691344181A22
:10423000704700BF9C02001010B50446FFF710FD48
:1042400001462046BDE8104000F0AEBB044B23B150
:10425000984234BF0020012070471846704700BFC5
:1042600000000000C26870B512F00303044619D0C4
:10427000930604D5436A5D68FFF738FD04E00568DE
:1042800083692B4405695D1BE368204623F4405392
:10429000E360FFF722FE0646002229462046FFF78C
:1042A0001DFF3346184670BD2DE9F04FC1F30A5685
:1042B00081EA0304002E58D040F2FF77BE4254D06A
:1042C000C3F30A55002D50D0BD424ED006EB050E6B
:1042D000C1F31301550D41F4801145EAC323D20205
:1042E00043F00045A1FB02ABA2FB00234FF0000905
:1042F00013EB0A0849F10009E0FB0589002719EBD7
:104300000B0647F10007E5FB0167B7F5801F04F0D6
:10431000004448EA920809D2B6194FEAD873AEF5BC
:10432000806E7F411E434FEA480801E0AEF2FF3E37
:1043300040F2FD724FEAD873F61847F10007B8F162
:10434000004F334608BF26F00103964505D83C438D
:1043500004EB0E511846BDE8F08FBEF1000F0EDBE6
:1043600044F0FF4444F4E00409E0490011F5001F63
:1043700004F0004407D25A0012F5001F04D20020B6
:104380002146BDE8F08F09D15B0013F5001F05D869
:10439000490D490511B15B0D5B051BB900200549AD
:1043A000BDE8F08F44F0FF44002044F4E001BDE894
:1043B000F08F00BF0000F87F2DE9F043C1F30A56EB
:1043C000002E58D040F2FF77BE4254D0C3F30A54B7
:1043D000002C50D0BC424ED0C4EB060E460D81EAF4
:1043E000030446EAC12141F00047510D41EAC323CD
:1043F00043F00049C6024FEAC2284F4508BF464570
:1044000002D20EF2FD3104E07F084FEA36060EF2CA
:10441000FE315FEA59094FEA3808352300224F453B
:1044200008BF46454FEA420205D3B6EB080667EBE4
:10443000090742F00102B6197F41212B08BF15463A
:10444000013BECD14F4508BF464502D3013208BFBE
:10445000013540F2FD70814204F0004303D803EBC4
:104460000153591922E00029A4BF43F0FF4343F44C
:10447000E003002034E0480010F5001F03D85C0082
:1044800014F5001F01D900202DE041EA0302C2F318
:104490000A5255051AB915492846BDE8F083420D60
:1044A0004B40520503F000431AB919461046BDE8C7
:1044B000F083620D520522B943F0FF4343F4E0015B
:1044C000F4E714F5001F06D043F0FF43002043F447
:1044D000E001BDE8F08310F5001F4FF0000002D0AE
:1044E0001946BDE8F0830149BDE8F0830000F87F7C
:1044F000F0B491EA030405460E4605D503F10045E4
:104500002B46F0BC00F0C4B8994203D3904208D8BF
:10451000994206D1554004F100416A404E404B405B
:10452000554040F2FF70370D27F400618142A7EB40
:10453000135400F09C808C4200F09680C6F3130167
:10454000C3F313031F2C41F4801143F480134ED89E
:1045500023FA04F0091A22FA04F0C4F12004A3405B
:104560001843281A854238BF01F1FF3112FA04F3CB
:1045700004D05B42451E10B9013900E0054611F434
:10458000C01F51D1EA0FDB0F42EA410243EA450363
:1045900052EA030469D0BD1E510B05D1190E41EA40
:1045A00002221B02083DF7E7510C01BF190F41EA37
:1045B00002121B01043DD10C01BF990F41EA820296
:1045C0009B00023D110D04BFD90F05F1FF354FEAE5
:1045D000D72404BF41EA42025B00B4EBD52F4FF071
:1045E000000006BF02EB05511846E1074BE0352CF1
:1045F0001AD8203C23FA04F0281A8542C4F1200579
:1046000038BF01F1FF3122FA04F4AB40120643EA4D
:10461000040302D043F0FF0300E023B15B42451ED8
:1046200010B9013900E00546CA020DD4013F7A05F0
:1046300007D0EA0F42EA4101DA0F42EA45055B0082
:1046400002E0390510461EE0002B21F480124FEAEB
:10465000075407DA013508BF0132B3F1004F08BF34
:1046600025F00105A1180DE05CB9214607E03303F0
:104670004FF0000001D0054905E014B90349204678
:1046800001E031462846F0BC704700BF0000F87FCB
:1046900070B491EA030504460E4605D503F10045C2
:1046A0002B4670BCFFF724BF994204D254406240AD
:1046B0006E406B40544040F2FF75300D20F40061B5
:1046C000A9425ED0A0EB13558D4255D0C6F313011D
:1046D000C3F313031F2D41F4801143F480130ED84C
:1046E00023FA05F6314422FA05F6C5F12005AB4060
:1046F0003343E41828BF013102FA05F312E0352DE7
:1047000010D8203D23FA05F6A419C5F1200603FAB6
:1047100006F322FA05F528BF01312B43120618BF14
:1047200043F0FF038A0215D5013408BF01310BB9EC
:1047300024F00204050505EB51056B0013F5001F7D
:1047400004D2C9072B4641EA540212E0431C190562
:1047500000201EE0002B00F1FF3007DA013408BF13
:104760000131B3F1004F08BF24F00104224601EBF0
:104770000053104619460CE04DB906F0004128469A
:1047800007E033034FF0000001D0034901E0314658
:10479000204670BC704700BF0000F87FCB0243EAA0
:1047A00050500B0DC3F58363063340F00040FF2BE0
:1047B00020FA03F011D913F4E06F01D140427047A1
:1047C00011F0804009D04B0013F5001F04D8C80F2A
:1047D00000F10040013870470020704710B90346CF
:1047E00002461BE0030C0CBF000401F18071030EB4
:1047F0000CBF000201F50001030F0CBF000101F521
:104800008001830F0CBF800001F500110028ACBFB0
:10481000400001F5801101EBE023420510461946E6
:10482000704710F0004118BF404201F18041FFF78E
:10483000D5BF4FF08041FFF7D1BF10B54C0050EA13
:10484000040E02D152EA430E09D0994209D1904296
:1048500007D114F5001F8CBF0020012010BD0120DE
:1048600010BD002010BD30B5054651EA03000BD441
:10487000580010F5001F1ED899421AD31BD195423B
:104880002CBF0020012030BD480010F5001F12D8B9
:104890005C0014F5001F0ED8284302D152EA040030
:1048A0000AD0994205D806D1954294BF0020012034
:1048B00030BD012030BD002030BD30B551EA0304C9
:1048C0000BD45C0014F5001F1FD899421BD31CD1D8
:1048D00090428CBF0020012030BD4D0015F5001F17
:1048E00013D85C0014F5001F0FD899420BD801D1E2
:1048F000904208D250EA050307D152EA04030CBFE4
:104900000120002030BD012030BD002030BD30B579
:1049100051EA03044FEA41040AD414F5001F1ED8DB
:1049200099421AD81BD1904234BF0020012030BDDB
:1049300014F5001F13D85D0015F5001F0FD899421C
:104940000BD301D1904208D950EA040307D152EAAF
:1049500005030CBF0120002030BD012030BD002028
:1049600030BD034613F0030F0ED101F0FF0141EA01
:10497000012141EA0141043A24BF43F8041BB2F18A
:104980000402F9D202F10402013A24BF03F8011B28
:10499000FAE77047FEE74FF0FF3070474FF0FF3007
:1049A00070474FF0FF3070474FF0FF3070474FF0C7
:1049B000FF3070474FF0FF307047FFFF49444C45D0
:1049C00000FFFFFF5469636B3A2025640D0A000065
:1049D000737973636C6B20252E3266204D487A20E4
:1049E00070657269706820252E3266204D487A0DF8
:1049F0000A000000765461736B4C6564310000005E
:104A0000765461736B556172740000007652656C68
:104A1000655461736B000000765353505461736B9F
:104A200000FFFFFF001BB70000800000000A00002D
:104A3000080A0000200A0000280A0000B008000050
:104A4000B8090000D00A00000109000009090000AF
:104A50002109000041090000490900005109000036
:104A6000710900007909000081090000890900002E
:104A7000D90900001A080000780800002208000088
:104A800080080000880800002A2A2A205F437379E2
:104A9000735F616C6C6F63206661696C65640A00AA
:104AA0002B00200030782563702564003058256382
:104AB00050256400307825632E252E2A6C6C787082
:104AC000256400305825632E252E2A6C6C585025FD
:104AD00064002D0072007700286E756C6C29003020
:104AE00058003078003000303132333435363738C2
:104AF000394142434445460030313233343536374C
:104B0000383961626364656600FFFFFFFFFFFFFFE6
:084B1000FFFFFFFFFFFFEF7F35
:084B1800AAAAAAAAFFFFFFFFF1
:040000030000017187
:00000001FF
